:020000040800F2
:1000000000500020493D0008C1390008C9390008E6
:10001000D1390008D9390008E13900080000000092
:10002000000000000000000000000000E9390008A6
:10003000F539000800000000013A00080D3A0008F8
:10004000913D0008913D0008913D0008913D000858
:10005000913D0008913D0008913D0008193A0008C3
:10006000273A0008913D0008913D0008913D0008A5
:10007000913D0008913D0008913D0008913D000828
:10008000913D0008913D0008913D0008913D000818
:10009000913D0008913D0008913D0008913D000808
:1000A000913D0008913D0008913D0008913D0008F8
:1000B000353A0008913D0008913D0008913D000847
:1000C000913D0008913D0008913D0008913D0008D8
:1000D000913D0008493A0008913D0008913D000813
:1000E000913D0008913D0008913D0008000000008E
:1000F0000000000000000000000000000000000000
:0C01000000000000000000005FF808F1A3
:10010C000348044B834202D0034B03B1184770479A
:10011C002000002020000020000000000548064BB5
:10012C001B1AD90F01EBA301491002D0034B03B1E9
:10013C00184770472000002020000020000000001D
:10014C0010B5064C237843B9FFF7DAFF044B13B113
:10015C000448AFF300800123237010BD2000002061
:10016C0000000000F449000808B5054B1BB1054917
:10017C000548AFF30080BDE80840FFF7CFBF00BFD4
:10018C000000000024000020F449000880B400AFF7
:10019C0000BFBD4680BC704780B584B000AF7860AE
:1001AC007B68002B01D101232BE17B6893F83D3058
:1001BC00DBB2002B06D17B68002283F83C207868E8
:1001CC0003F078FC7B68242283F83D207B681B6855
:1001DC001A687B681B6822F001021A607B681B6836
:1001EC001A687B681B6842F400421A607B681B68C3
:1001FC001A687B681B6822F400421A6000F03CFD10
:10020C00F8607B685B68814A934207D8FB68804A38
:10021C00934294BF01230023DBB206E0FB687D4AC6
:10022C00934294BF01230023DBB2002B01D00123A6
:10023C00E7E0FB68784AA2FB03239B0CBB607B685E
:10024C001B685B6823F03F017B681B68BA680A4334
:10025C005A607B681B681B6A23F03F017B685B68F4
:10026C006A4A934202D8BB68013309E0BB684FF479
:10027C00967202FB03F3694AA2FB03239B09013329
:10028C007A6812680B4313627B681B68DB6923F482
:10029C004F4222F0FF027B685B685C498B4219D8A5
:1002AC00FB68591E7B685B685B00B1FBF3F3591C60
:1002BC0040F6FC730B40002B0AD0FB68591E7B6880
:1002CC005B685B00B1FBF3F30133C3F30B0351E049
:1002DC0004234FE07B689B68002B11D1FB68581EF0
:1002EC007B6859680B465B000B44B0FBF3F301339E
:1002FC00C3F30B03002B0CBF01230023DBB212E072
:10030C00FB68581E7B6859680B469B000B44990090
:10031C000B44B0FBF3F30133C3F30B03002B0CBF03
:10032C0001230023DBB2002B01D0012322E07B68E8
:10033C009B68002B0ED1FB68581E7B6859680B46D6
:10034C005B000B44B0FBF3F30133C3F30B0343F437
:10035C0000430FE0FB68581E7B6859680B469B00F6
:10036C000B4499000B44B0FBF3F30133C3F30B03C1
:10037C0043F44043796809681343CB617B681B687D
:10038C001B6823F0C0017B68DA697B681B6A1A431F
:10039C007B681B680A431A607B681B689B6823F4A4
:1003AC00034323F0FF037A6811697A68D26811431A
:1003BC007A6812680B4393607B681B68DB6823F0D8
:1003CC00FF017B685A697B689B691A437B681B68D1
:1003DC000A43DA607B681B681A687B681B6842F00A
:1003EC0001021A607B6800221A647B68202283F861
:1003FC003D207B6800221A637B68002283F83E2034
:10040C00002318461037BD4680BD00BFA0860100F2
:10041C007F841E00FF083D0083DE1B43D34D62101A
:10042C0080B500AF084B1B68074A43F010031360FC
:10043C00032000F0C9FF0F2000F008F803F008FBC0
:10044C000023184680BD00BF0020024080B582B05A
:10045C0000AF7860124B1A68124B1B7819464FF498
:10046C007A73B3FBF1F3B2FBF3F3184600F0EFFF32
:10047C000346002B01D001230EE07B680F2B0AD81A
:10048C00002279684FF0FF3000F0A9FF064A7B6824
:10049C001360002300E0012318460837BD4680BDD9
:1004AC0000000020080000200400002080B400AFF1
:1004BC00054B1B781A46054B1B681344034A136003
:1004CC0000BFBD4680BC7047080000203C000020E7
:1004DC0080B400AF024B1B681846BD4680BC704709
:1004EC003C00002080B586B000AF78607B68002BA4
:1004FC0001D1012372E27B681B6803F00103002B1E
:10050C0000F08780924B5B6803F00C03042B0CD03B
:10051C008F4B5B6803F00C03082B12D18C4B5B6880
:10052C0003F48033B3F5803F0BD1894B1B6803F484
:10053C000033002B6CD07B685B68002B68D10123E7
:10054C004CE27B685B68B3F5803F06D1804B1B683F
:10055C007F4A43F4803313602EE07B685B68002B8A
:10056C000CD17B4B1B687A4A23F480331360784B95
:10057C001B68774A23F4802313601DE07B685B685B
:10058C00B3F5A02F0CD1724B1B68714A43F4802336
:10059C0013606F4B1B686E4A43F4803313600BE09F
:1005AC006B4B1B686A4A23F480331360684B1B68DF
:1005BC00674A23F4802313607B685B68002B13D09D
:1005CC00FFF786FF386108E0FFF782FF02463B69C0
:1005DC00D31A642B01D9032300E25D4B1B6803F48F
:1005EC000033002BF0D014E0FFF772FF386108E005
:1005FC00FFF76EFF02463B69D31A642B01D9032324
:10060C00ECE1534B1B6803F40033002BF0D100E0FA
:10061C0000BF7B681B6803F00203002B63D04C4BBC
:10062C005B6803F00C03002B0BD0494B5B6803F0A9
:10063C000C03082B1CD1464B5B6803F48033002B56
:10064C0016D1434B1B6803F00203002B05D07B68CB
:10065C001B69012B01D00123C0E13D4B1B6823F02A
:10066C00F8027B685B69DB00394913430B603AE0A5
:10067C007B681B69002B20D0364B01221A60FFF7D8
:10068C0027FF386108E0FFF723FF02463B69D31AC6
:10069C00022B01D90323A1E12D4B1B6803F00203AC
:1006AC00002BF0D02A4B1B6823F0F8027B685B69A7
:1006BC00DB00274913430B6015E0264B00221A6020
:1006CC00FFF706FF386108E0FFF702FF02463B69BF
:1006DC00D31A022B01D9032380E11D4B1B6803F0B5
:1006EC000203002BF0D17B681B6803F00803002B7E
:1006FC003AD07B689B69002B19D0174B01221A60EA
:10070C00FFF7E6FE386108E0FFF7E2FE02463B69C0
:10071C00D31A022B01D9032360E10D4B5B6A03F062
:10072C000203002BF0D0012000F0CEFA1CE00A4BA3
:10073C0000221A60FFF7CCFE38610FE0FFF7C8FE0D
:10074C0002463B69D31A022B08D9032346E100BFAA
:10075C00001002400000424280044242924B5B6A0D
:10076C0003F00203002BE9D17B681B6803F0040340
:10077C00002B00F0A6800023FB758B4BDB6903F08C
:10078C008053002B0DD1884BDB69874A43F0805393
:10079C00D361854BDB6903F08053BB60BB680123DD
:1007AC00FB75824B1B6803F48073002B18D17F4BB5
:1007BC001B687E4A43F480731360FFF789FE38612F
:1007CC0008E0FFF785FE02463B69D31A642B01D97A
:1007DC00032303E1754B1B6803F48073002BF0D0EB
:1007EC007B68DB68012B06D16F4B1B6A6E4A43F0AA
:1007FC00010313622DE07B68DB68002B0CD16A4B84
:10080C001B6A694A23F001031362674B1B6A664A31
:10081C0023F0040313621CE07B68DB68052B0CD10E
:10082C00614B1B6A604A43F0040313625E4B1B6A04
:10083C005D4A43F0010313620BE05B4B1B6A5A4A9F
:10084C0023F001031362584B1B6A574A23F004032D
:10085C0013627B68DB68002B15D0FFF739FE38611B
:10086C000AE0FFF735FE02463B69D31A41F28832A3
:10087C00934201D90323B1E04B4B1B6A03F00203F3
:10088C00002BEED014E0FFF723FE38610AE0FFF7EF
:10089C001FFE02463B69D31A41F28832934201D9BA
:1008AC0003239BE0404B1B6A03F00203002BEED1A9
:1008BC00FB7D012B05D13C4BDB693B4A23F080537C
:1008CC00D3617B68DB69002B00F08780364B5B685B
:1008DC0003F00C03082B61D07B68DB69022B46D13B
:1008EC00334B00221A60FFF7F3FD386108E0FFF785
:1008FC00EFFD02463B69D31A022B01D903236DE0AD
:10090C00294B1B6803F00073002BF0D17B681B6A2A
:10091C00B3F5803F08D1244B5B6823F400327B682D
:10092C009B68214913434B601F4B5B6823F4741283
:10093C007B68196A7B685B6A0B431B4913434B60EA
:10094C001B4B01221A60FFF7C3FD386108E0FFF76B
:10095C00BFFD02463B69D31A022B01D903233DE0AC
:10096C00114B1B6803F00073002BF0D035E0104BDB
:10097C0000221A60FFF7ACFD386108E0FFF7A8FD14
:10098C0002463B69D31A022B01D9032326E0064BFE
:10099C001B6803F00073002BF0D11EE07B68DB6951
:1009AC00012B07D1012319E0001002400070004018
:1009BC00600042420B4B5B68FB60FB6803F48032C7
:1009CC007B681B6A9A4206D1FB6803F470127B6841
:1009DC005B6A9A4201D0012300E0002318461837C5
:1009EC00BD4680BD0010024080B584B000AF786079
:1009FC0039607B68002B01D10123D0E06A4B1B6866
:100A0C0003F007033A689A4210D9674B1B6823F02E
:100A1C00070265493B6813430B60634B1B6803F08B
:100A2C0007033A689A4201D00123B8E07B681B683F
:100A3C0003F00203002B20D07B681B6803F0040337
:100A4C00002B05D0594B5B68584A43F4E063536064
:100A5C007B681B6803F00803002B05D0534B5B68C5
:100A6C00524A43F460535360504B5B6823F0F002DE
:100A7C007B689B684D4913434B607B681B6803F094
:100A8C000103002B40D07B685B68012B07D1474BDF
:100A9C001B6803F40033002B15D101237FE07B6826
:100AAC005B68022B07D1414B1B6803F00073002BD2
:100ABC0009D1012373E03D4B1B6803F00203002BAB
:100ACC0001D101236BE0394B5B6823F003027B6897
:100ADC005B68364913434B60FFF7FAFCF8600AE099
:100AEC00FFF7F6FC0246FB68D31A41F288329342B8
:100AFC0001D9032353E02D4B5B6803F00C027B6898
:100B0C005B689B009A42EBD1274B1B6803F00703F1
:100B1C003A689A4210D2244B1B6823F007022249F0
:100B2C003B6813430B60204B1B6803F007033A68C8
:100B3C009A4201D0012332E07B681B6803F0040366
:100B4C00002B08D0194B5B6823F4E0627B68DB68F0
:100B5C00164913434B607B681B6803F00803002B9A
:100B6C0009D0124B5B6823F460527B681B69DB0075
:100B7C000E4913434B6000F021F802460B4B5B68A7
:100B8C001B0903F00F030A49CB5C22FA03F3094A51
:100B9C001360094B1B681846FFF758FC00231846D6
:100BAC001037BD4680BD00BF00200240001002403F
:100BBC001C4B0008000000200400002080B487B00B
:100BCC0000AF0023FB600023BB6000237B6100238C
:100BDC007B6000233B611E4B5B68FB60FB6803F092
:100BEC000C03042B02D0082B03D027E0194B3B61DC
:100BFC0027E0FB689B0C03F00F03174AD35C7B6068
:100C0C00FB6803F48033002B10D0114B5B685B0C3A
:100C1C0003F00103114AD35CBB607B680D4A03FBF4
:100C2C0002F2BB68B2FBF3F37B6104E07B680C4A15
:100C3C0002FB03F37B617B693B6102E0054B3B618B
:100C4C0000BF3B6918461C37BD4680BC704700BFCF
:100C5C000010024000127A00344B0008444B00088C
:100C6C0000093D0080B400AF024B1B681846BD461E
:100C7C0080BC70470000002080B500AFFFF7F2FF8A
:100C8C000246054B5B681B0A03F007030349CB5C68
:100C9C0022FA03F3184680BD001002402C4B0008CA
:100CAC0080B500AFFFF7DEFF0246054B5B68DB0A41
:100CBC0003F007030349CB5C22FA03F3184680BD0B
:100CCC00001002402C4B000880B485B000AF786057
:100CDC000A4B1B680A4AA2FB03235B0A7A6802FBD5
:100CEC0003F3FB6000BFFB685A1EFA60002BF9D1BE
:100CFC0000BF00BF1437BD4680BC70470000002009
:100D0C00D34D621080B48BB000AF78603960002393
:100D1C007B6200233B6269E101227B6A02FA03F3E6
:100D2C00FB613B681B68FA691340BB61BA69FB69DC
:100D3C009A4240F058813B685B689A4A93425ED075
:100D4C00984A934275D8984A934258D0964A9342FF
:100D5C006FD8964A934252D0944A934269D8944A97
:100D6C0093424CD0924A934263D8924A934246D0D3
:100D7C00904A93425DD8122B2AD8122B59D801A233
:100D8C0052F823F00B0E0008E50D0008F70D0008D3
:100D9C00390E00083F0E00083F0E00083F0E0008F9
:100DAC003F0E00083F0E00083F0E00083F0E0008E3
:100DBC003F0E00083F0E00083F0E00083F0E0008D3
:100DCC003F0E00083F0E0008ED0D0008010E000854
:100DDC00794A934213D02CE03B68DB683B6229E0F4
:100DEC003B68DB6804333B6224E03B68DB68083318
:100DFC003B621FE03B68DB680C333B621AE03B68EC
:100E0C009B68002B02D104233B6213E03B689B6878
:100E1C00012B05D108233B627B68FA691A6109E052
:100E2C0008233B627B68FA695A6103E000233B624A
:100E3C0000E000BFBB69FF2B01D87B6801E07B6839
:100E4C0004337B61BB69FF2B02D87B6A9B0002E0F9
:100E5C007B6A083B9B003B617B691A680F213B69ED
:100E6C0001FA03F3DB431A40396A3B6901FA03F3D5
:100E7C001A437B691A603B685B6803F08053002B54
:100E8C0000F0B1804D4B9B694C4A43F001039361D8
:100E9C004A4B9B6903F00103BB60BB68484A7B6A01
:100EAC009B08023352F82330FB607B6A03F0030388
:100EBC009B000F2202FA03F3DB43FA681340FB603A
:100ECC007B68404A934213D07B683F4A93420DD0D3
:100EDC007B683E4A934207D07B683D4A934201D1DE
:100EEC00032306E0042304E0022302E0012300E0D4
:100EFC0000237A6A02F0030292009340FA681343CB
:100F0C00FB602F497B6A9B080233FA6841F8232067
:100F1C003B685B6803F48013002B06D02D4B9A685A
:100F2C002C49BB6913438B6006E02A4B9A68BB695A
:100F3C00DB43284913408B603B685B6803F4001368
:100F4C00002B06D0234BDA682249BB691343CB60D4
:100F5C0006E0204BDA68BB69DB431E491340CB60CB
:100F6C003B685B6803F40033002B06D0194B5A68BE
:100F7C001849BB6913434B6006E0164B5A68BB69B2
:100F8C00DB43144913404B603B685B6803F48033CC
:100F9C00002B21D00F4B1A680E49BB6913430B6011
:100FAC0021E000BF000032100000311000002210C0
:100FBC00000021100000121000001110001002405F
:100FCC000000014000080140000C014000100140ED
:100FDC0000140140000401400B4B1A68BB69DB4351
:100FEC00094913400B607B6A01337B623B681A68CA
:100FFC007B6A22FA03F3002B7FF48EAE00BF00BF96
:10100C002C37BD4680BC70470004014080B483B0CF
:10101C0000AF78600B467B8013467B707B78002B8F
:10102C0003D07A887B681A6103E07B881A047B689A
:10103C001A6100BF0C37BD4680BC704780B582B0CA
:10104C0000AF0346FB80084B5A69FB881340002B0A
:10105C0006D0054AFB885361FB88184600F006F859
:10106C0000BF0837BD4680BD0004014080B483B08A
:10107C0000AF0346FB8000BF0C37BD4680BC7047F9
:10108C0080B485B000AF78600023FB737B6893F865
:10109C002130DBB2022B08D07B6804229A637B6878
:1010AC00002283F82020012320E07B681B681A684B
:1010BC007B681B6822F00E021A607B681B681A683A
:1010CC007B681B6822F001021A607B681A6C7B68D3
:1010DC00DB6B012101FA02F25A607B68012283F872
:1010EC0021207B68002283F82020FB7B18461437D4
:1010FC00BD4680BC7047000080B584B000AF7860FE
:10110C000023FB737B6893F82130DBB2022B05D0F4
:10111C007B6804229A630123FB7351E07B681B6894
:10112C001A687B681B6822F00E021A607B681B68C9
:10113C001A687B681B6822F001021A607B681B68C6
:10114C00224A934229D07B681B68214A934222D0C1
:10115C007B681B681F4A93421AD07B681B681E4A27
:10116C00934212D07B681B681C4A93420AD07B685E
:10117C001B681B4A934202D14FF480130EE04FF0D0
:10118C0080730BE04FF4803308E04FF4805305E09C
:10119C004FF4807302E0102300E00123114A5360E6
:1011AC007B68012283F821207B68002283F82020B1
:1011BC007B685B6B002B03D07B685B6B7868984714
:1011CC00FB7B18461037BD4680BD00BF08000240AF
:1011DC001C00024030000240440002405800024013
:1011EC006C0002400000024080B485B000AF786013
:1011FC007B6803F00703FB600C4BDB68BB60BA68D1
:10120C004FF6FF031340BB60FB681A02BB68134325
:10121C0043F0BF6343F40033BB60044ABB68D36044
:10122C0000BF1437BD4680BC704700BF00ED00E026
:10123C0080B400AF044BDB681B0A03F007031846AD
:10124C00BD4680BC704700BF00ED00E080B483B0A9
:10125C0000AF0346FB7197F90730002B0BDBFB79D2
:10126C0003F01F02064997F907305B09012000FAC9
:10127C0002F241F8232000BF0C37BD4680BC7047FA
:10128C0000E100E080B483B000AF0346FB7197F936
:10129C000730002B12DBFB7903F01F020A4997F988
:1012AC0007305B09012000FA02F2203341F82320B9
:1012BC00BFF34F8F00BFBFF36F8F00BF00BF0C3762
:1012CC00BD4680BC704700BF00E100E080B483B035
:1012DC0000AF03463960FB7197F90730002B0ADB2E
:1012EC003B68DAB20C4997F907301201D2B20B44C1
:1012FC0083F800230AE03B68DAB20849FB7903F073
:10130C000F03043B1201D2B20B441A7600BF0C3708
:10131C00BD4680BC704700BF00E100E000ED00E07E
:10132C0080B489B000AFF860B9607A60FB6803F0F4
:10133C000703FB61FB69C3F10703042B28BF0423DC
:10134C00BB61FB690433062B02D9FB69033B00E04C
:10135C0000237B614FF0FF32BB6902FA03F3DA43DF
:10136C00BB681A407B699A404FF0FF317B6901FAE8
:10137C0003F3D9437B680B40134318462437BD460F
:10138C0080BC704780B582B000AF78607B68013B51
:10139C00B3F1807F01D301230FE00A4A7B68013B44
:1013AC0053600F214FF0FF30FFF790FF054B0022E9
:1013BC009A60044B07221A60002318460837BD4672
:1013CC0080BD00BF10E000E080B582B000AF786057
:1013DC007868FFF709FF00BF0837BD4680BD80B5B0
:1013EC0086B000AF0346B9607A60FB7300237B6163
:1013FC00FFF71EFF78617A68B9687869FFF790FF8C
:10140C00024697F90F3011461846FFF75FFF00BFF1
:10141C001837BD4680BD80B582B000AF0346FB7166
:10142C0097F907301846FFF711FF00BF0837BD4684
:10143C0080BD80B582B000AF0346FB7197F90730D1
:10144C001846FFF71FFF00BF0837BD4680BD80B5AB
:10145C0082B000AF78607868FFF794FF03461846B7
:10146C000837BD4680BD80B582B000AF78607B6820
:10147C00002B01D1012376E07B685B6A002B08D13D
:10148C007B685B68B3F5827F09D07B680022DA61E8
:10149C0005E07B6800221A617B6800225A617B6838
:1014AC0000229A627B6893F85130DBB2002B06D194
:1014BC007B68002283F85020786802F039FB7B6847
:1014CC00022283F851207B681B681A687B681B68B2
:1014DC0022F040021A607B685B6803F482727B68BE
:1014EC009B6803F404431A437B68DB6803F40063D2
:1014FC001A437B681B6903F002031A437B685B6920
:10150C0003F001031A437B689B6903F400731A43CD
:10151C007B68DB6903F038031A437B681B6A03F0B2
:10152C00800342EA03017B689B6A03F400527B68E8
:10153C001B680A431A607B689B691A0C7B681B68E2
:10154C0002F004025A607B681B68DA697B681B68CE
:10155C0022F40062DA617B6800225A657B68012202
:10156C0083F85120002318460837BD4680BD80B54E
:10157C0088B000AFF860B9603B601346FB80FEF7A3
:10158C00A7FFF861FB887B83FB6893F85130DBB2D3
:10159C00012B01D002232AE1BB68002B02D0FB886F
:1015AC00002B01D1012322E1FB6893F85030012B71
:1015BC0001D102231BE1FB68012283F85020FB6858
:1015CC00032283F85120FB6800225A65FB68BA6835
:1015DC001A63FB68FA889A86FB68FA88DA86FB68D5
:1015EC0000229A63FB6800229A87FB680022DA8744
:1015FC00FB6800225A64FB6800221A64FB689B6833
:10160C00B3F5004F0FD1FB681B681A68FB681B68A9
:10161C0022F040021A60FB681B681A68FB681B68A2
:10162C0042F480421A60FB681B681B6803F040039D
:10163C00402B07D0FB681B681A68FB681B6842F0DC
:10164C0040021A60FB68DB68B3F5006F52D1FB688F
:10165C005B68002B02D07B8B012B45D1FB681B6B8D
:10166C001A88FB681B68DA60FB681B6B9A1CFB68AA
:10167C001A63FB68DB8E9BB2013B9AB2FB68DA867D
:10168C0032E0FB681B689B6803F00203022B12D14B
:10169C00FB681B6B1A88FB681B68DA60FB681B6BAA
:1016AC009A1CFB681A63FB68DB8E9BB2013B9AB2F7
:1016BC00FB68DA8618E0FEF70BFF0246FB69D31ACB
:1016CC003A689A4203D83B68B3F1FF3F02D13B68BA
:1016DC00002B09D1FB68012283F85120FB68002202
:1016EC0083F85020032382E0FB68DB8E9BB2002B37
:1016FC00C7D153E0FB685B68002B02D07B8B012BBE
:10170C0047D1FB681A6BFB681B680C3312781A7094
:10171C00FB681B6B5A1CFB681A63FB68DB8E9BB265
:10172C00013B9AB2FB68DA8633E0FB681B689B6866
:10173C0003F00203022B13D1FB681A6BFB681B68C6
:10174C000C3312781A70FB681B6B5A1CFB681A63FB
:10175C00FB68DB8E9BB2013B9AB2FB68DA8618E021
:10176C00FEF7B6FE0246FB69D31A3A689A4203D8D2
:10177C003B68B3F1FF3F02D13B68002B09D1FB68FA
:10178C00012283F85120FB68002283F850200323A8
:10179C002DE0FB68DB8E9BB2002BC6D1FA69396851
:1017AC00F86800F059FA0346002B02D0FB6820229F
:1017BC005A65FB689B68002B0AD100237B61FB6890
:1017CC001B68DB687B61FB681B689B687B617B69C2
:1017DC00FB68012283F85120FB68002283F850201B
:1017EC00FB685B6D002B01D0012300E00023184641
:1017FC002037BD4680BD80B58AB000AFF860B960B7
:10180C007A607B8001237B62FEF762FE3862FB68A4
:10181C0093F85130FB77FB685B68BB617B88FB827C
:10182C00FB7F012B0CD0BB69B3F5827F06D1FB6823
:10183C009B68002B02D1FB7F042B01D002237FE19C
:10184C00BB68002B05D07B68002B02D07B88002B5B
:10185C0001D1012374E1FB6893F85030012B01D1C5
:10186C0002236DE1FB68012283F85020FB6893F89A
:10187C005130DBB2042B03D0FB68052283F85120D6
:10188C00FB6800225A65FB687A689A63FB687A8861
:10189C00DA87FB687A889A87FB68BA681A63FB68F0
:1018AC007A88DA86FB687A889A86FB6800221A6442
:1018BC00FB6800225A64FB681B681B6803F040033A
:1018CC00402B07D0FB681B681A68FB681B6842F04A
:1018DC0040021A60FB68DB68B3F5006F7ED1FB68D1
:1018EC005B68002B02D0FB8A012B6CD1FB681B6B55
:1018FC001A88FB681B68DA60FB681B6B9A1CFB6818
:10190C001A63FB68DB8E9BB2013B9AB2FB68DA86EA
:10191C0059E0FB681B689B6803F00203022B1BD188
:10192C00FB68DB8E9BB2002B16D07B6A012B13D18C
:10193C00FB681B6B1A88FB681B68DA60FB681B6B07
:10194C009A1CFB681A63FB68DB8E9BB2013B9AB254
:10195C00FB68DA8600237B62FB681B689B6803F0DC
:10196C000103012B19D1FB68DB8F9BB2002B14D028
:10197C00FB681B68DA68FB689B6B92B21A80FB6889
:10198C009B6B9A1CFB689A63FB68DB8F9BB2013BD9
:10199C009AB2FB68DA8701237B62FEF799FD024657
:1019AC003B6AD31A3A6B9A420DD83B6BB3F1FF3FAB
:1019BC0009D0FB68012283F85120FB68002283F8D0
:1019CC0050200323BCE0FB68DB8E9BB2002BA0D124
:1019DC00FB68DB8F9BB2002B9BD182E0FB685B68C2
:1019EC00002B02D0FB8A012B71D1FB681A6BFB68B0
:1019FC001B680C3312781A70FB681B6B5A1CFB6843
:101A0C001A63FB68DB8E9BB2013B9AB2FB68DA86E9
:101A1C005DE0FB681B689B6803F00203022B1CD182
:101A2C00FB68DB8E9BB2002B17D07B6A012B14D189
:101A3C00FB681A6BFB681B680C3312781A70FB6816
:101A4C001B6B5A1CFB681A63FB68DB8E9BB2013B59
:101A5C009AB2FB68DA8600237B62FB681B689B6882
:101A6C0003F00103012B19D1FB68DB8F9BB2002B18
:101A7C0014D0FB681B68DA68FB689B6BD2B21A70D7
:101A8C00FB689B6B5A1CFB689A63FB68DB8F9BB2F1
:101A9C00013B9AB2FB68DA8701237B62FEF718FDE3
:101AAC0002463B6AD31A3A6B9A4203D83B6BB3F1AA
:101ABC00FF3F02D13B6B002B09D1FB68012283F85D
:101ACC005120FB68002283F85020032338E0FB6888
:101ADC00DB8E9BB2002B9CD1FB68DB8F9BB2002B67
:101AEC0097D13A6A396BF86800F0B6F80346002BC8
:101AFC0008D0FB6820225A65FB68002283F850202E
:101B0C0001231DE0FB689B68002B0AD100233B617D
:101B1C00FB681B68DB683B61FB681B689B683B616F
:101B2C003B69FB68012283F85120FB68002283F893
:101B3C005020FB685B6D002B01D0012300E00023DB
:101B4C0018462837BD4680BD80B588B000AFF86018
:101B5C00B9603B601346FB71FEF7BAFC0246BB6AE8
:101B6C009B1A3A681344FB61FEF7B2FCB861394B1F
:101B7C001B685B011B0DFA6902FB03F37B6154E0EC
:101B8C003B68B3F1FF3F50D0FEF7A2FC0246BB69A5
:101B9C00D31AFA699A4202D9FB69002B3DD1FB6832
:101BAC001B685A68FB681B6822F0E0025A60FB68ED
:101BBC005B68B3F5827F11D1FB689B68B3F5004F6E
:101BCC0004D0FB689B68B3F5806F07D1FB681B687A
:101BDC001A68FB681B6822F040021A60FB689B6A5B
:101BEC00B3F5005F0FD1FB681B681A68FB681B68B4
:101BFC0022F400521A60FB681B681A68FB681B68A9
:101C0C0042F400521A60FB68012283F85120FB68F1
:101C1C00002283F85020032317E07B69002B01D1AD
:101C2C000023FB617B69013B7B61FB681B689A6845
:101C3C00BB681340BA689A420CBF01230023DBB285
:101C4C001A46FB799A429BD1002318462037BD4691
:101C5C0080BD00BF0000002080B586B002AFF860E8
:101C6C00B9607A607B680093BB6801220221F86836
:101C7C00FFF76AFF0346002B07D0FB685B6D43F050
:101C8C002002FB685A65032313E07B680093BB6852
:101C9C0000228021F868FFF757FF0346002B07D07E
:101CAC00FB685B6D43F02002FB685A65032300E080
:101CBC00002318461037BD4680BD80B582B000AFFA
:101CCC0078607B68002B01D1012341E07B6893F89D
:101CDC003D30DBB2002B06D17B68002283F83C2020
:101CEC00786801F06FFF7B68022283F83D207B68E7
:101CFC001A687B6804331946104600F0CDFB7B68EC
:101D0C00012283F846207B68012283F83E207B6801
:101D1C00012283F83F207B68012283F840207B68F6
:101D2C00012283F841207B68012283F842207B68E2
:101D3C00012283F843207B68012283F844207B68CE
:101D4C00012283F845207B68012283F83D20002383
:101D5C0018460837BD4680BD80B582B000AF7860AC
:101D6C007B68002B01D1012341E07B6893F83D3067
:101D7C00DBB2002B06D17B68002283F83C2078680C
:101D8C0000F039F87B68022283F83D207B681A68E2
:101D9C007B6804331946104600F07EFB7B680122F9
:101DAC0083F846207B68012283F83E207B68012261
:101DBC0083F83F207B68012283F840207B68012256
:101DCC0083F841207B68012283F842207B68012242
:101DDC0083F843207B68012283F844207B6801222E
:101DEC0083F845207B68012283F83D2000231846A8
:101DFC000837BD4680BD80B483B000AF786000BFAB
:101E0C000C37BD4680BC704780B584B000AF78609D
:101E1C0039603B68002B09D17B6893F83E30DBB20C
:101E2C00012B14BF01230023DBB222E03B68042BFF
:101E3C0009D17B6893F83F30DBB2012B14BF01232F
:101E4C000023DBB215E03B68082B09D17B6893F8C3
:101E5C004030DBB2012B14BF01230023DBB208E0BE
:101E6C007B6893F84130DBB2012B14BF01230023B4
:101E7C00DBB2002B01D001235EE03B68002B04D1C8
:101E8C007B68022283F83E2013E03B68042B04D1CC
:101E9C007B68022283F83F200BE03B68082B04D1BF
:101EAC007B68022283F8402003E07B68022283F8DF
:101EBC0041207B681B6801223968184600F078FDC8
:101ECC007B681B681E4A934207D17B681B685A6C5F
:101EDC007B681B6842F400425A647B681B68184A92
:101EEC0093420ED07B681B68B3F1804F09D07B689E
:101EFC001B68144A934204D07B681B68124A9342B5
:101F0C0011D17B681B689B6803F00703FB60FB68BF
:101F1C00062B10D07B681B681A687B681B6842F024
:101F2C0001021A6007E07B681B681A687B681B68F3
:101F3C0042F001021A60002318461037BD4680BDDE
:101F4C00002C0140000400400008004080B584B023
:101F5C0000AF78607B681B68DB68FB607B681B6884
:101F6C001B69BB60BB6803F00203002B20D0FB682D
:101F7C0003F00203002B1BD07B681B686FF002027E
:101F8C001A617B6801221A777B681B689B6903F0D6
:101F9C000303002B03D0786800F063FA05E078683F
:101FAC0000F056FA786800F065FA7B6800221A7720
:101FBC00BB6803F00403002B20D0FB6803F0040380
:101FCC00002B1BD07B681B686FF004021A617B68C6
:101FDC0002221A777B681B689B6903F44073002B01
:101FEC0003D0786800F03DFA05E0786800F030FA2C
:101FFC00786800F03FFA7B6800221A77BB6803F020
:10200C000803002B20D0FB6803F00803002B1BD027
:10201C007B681B686FF008021A617B6804221A77D0
:10202C007B681B68DB6903F00303002B03D0786823
:10203C0000F017FA05E0786800F00AFA786800F00A
:10204C0019FA7B6800221A77BB6803F01003002B87
:10205C0020D0FB6803F01003002B1BD07B681B689F
:10206C006FF010021A617B6808221A777B681B6874
:10207C00DB6903F44073002B03D0786800F0F1F9AE
:10208C0005E0786800F0E4F9786800F0F3F97B6813
:10209C0000221A77BB6803F00103002B0CD0FB68FD
:1020AC0003F00103002B07D07B681B686FF0010263
:1020BC001A61786800F0C3F9BB6803F08003002B49
:1020CC000CD0FB6803F08003002B07D07B681B68E7
:1020DC006FF080021A61786800F0F5FCBB6803F0C1
:1020EC004003002B0CD0FB6803F04003002B07D0FF
:1020FC007B681B686FF040021A61786800F0C3F9C6
:10210C00BB6803F02003002B0CD0FB6803F020030A
:10211C00002B07D07B681B686FF020021A6178686F
:10212C0000F0C8FC00BF1037BD4680BD80B586B03E
:10213C0000AFF860B9607A600023FB75FB6893F818
:10214C003C30012B01D10223AEE0FB68012283F865
:10215C003C207B680C2B00F29F8001A252F823F0EC
:10216C00A1210008A5220008A5220008A52200082C
:10217C00E1210008A5220008A5220008A5220008DC
:10218C0023220008A5220008A5220008A522000889
:10219C0063220008FB681B68B968184600F0EAF96E
:1021AC00FB681B689A69FB681B6842F008029A611D
:1021BC00FB681B689A69FB681B6822F004029A6131
:1021CC00FB681B689969BB681A69FB681B680A4342
:1021DC009A6164E0FB681B68B968184600F030FA35
:1021EC00FB681B689A69FB681B6842F400629A6181
:1021FC00FB681B689A69FB681B6822F480629A6111
:10220C00FB681B689969BB681B691A02FB681B6831
:10221C000A439A6143E0FB681B68B968184600F0F2
:10222C0079FAFB681B68DA69FB681B6842F00802E4
:10223C00DA61FB681B68DA69FB681B6822F0040230
:10224C00DA61FB681B68D969BB681A69FB681B6893
:10225C000A43DA6123E0FB681B68B968184600F092
:10226C00C3FAFB681B68DA69FB681B6842F40062FE
:10227C00DA61FB681B68DA69FB681B6822F4806210
:10228C00DA61FB681B68D969BB681B691A02FB68B9
:10229C001B680A43DA6102E00123FB7500BFFB688F
:1022AC00002283F83C20FB7D18461837BD4680BDC4
:1022BC0080B584B000AF786039600023FB737B6815
:1022CC0093F83C30012B01D10223B4E07B6801224E
:1022DC0083F83C207B68022283F83D207B681B68D6
:1022EC009B68BB60BB6823F07703BB60BB6823F4BF
:1022FC007F43BB607B681B68BA689A603B681B684D
:10230C00B3F5005F3ED0B3F5005F00F28780B3F504
:10231C00805F00F08680B3F5805F7FD8702B1AD079
:10232C00702B7BD8602B50D0602B77D8502B3CD0A7
:10233C00502B73D8402B58D0402B6FD8302B64D0F7
:10234C00302B6BD8202B60D0202B67D8002B5CD087
:10235C00102B5AD062E07B6818683B6899683B6820
:10236C005A683B68DB6800F004FB7B681B689B6861
:10237C00BB60BB6843F07703BB607B681B68BA68C3
:10238C009A604FE07B6818683B6899683B685A68AC
:10239C003B68DB6800F0EDFA7B681B689A687B6829
:1023AC001B6842F480429A603CE07B6818683B688A
:1023BC0059683B68DB681A4600F064FA7B681B6856
:1023CC005021184600F0BBFA2CE07B6818683B687B
:1023DC0059683B68DB681A4600F082FA7B681B6818
:1023EC006021184600F0ABFA1CE07B6818683B686B
:1023FC0059683B68DB681A4600F044FA7B681B6836
:10240C004021184600F09BFA0CE07B681A683B6888
:10241C001B681946104600F092FA03E00123FB7387
:10242C0000E000BF7B68012283F83D207B6800221E
:10243C0083F83C20FB7B18461037BD4680BD80B42A
:10244C0083B000AF786000BF0C37BD4680BC7047CE
:10245C0080B483B000AF786000BF0C37BD4680BC41
:10246C00704780B483B000AF786000BF0C37BD46B6
:10247C0080BC704780B483B000AF786000BF0C376D
:10248C00BD4680BC704780B483B000AF786000BF9D
:10249C000C37BD4680BC704780B485B000AF786007
:1024AC0039607B681B68FB607B682F4A93420BD0BA
:1024BC007B68B3F1804F07D07B682C4A934203D0E2
:1024CC007B682B4A934208D1FB6823F07003FB60B6
:1024DC003B685B68FA681343FB607B68224A934253
:1024EC000BD07B68B3F1804F07D07B681F4A9342B7
:1024FC0003D07B681E4A934208D1FB6823F44073D7
:10250C00FB603B68DB68FA681343FB60FB6823F0F5
:10251C0080023B685B691343FB607B68FA681A6056
:10252C003B689A687B68DA623B681A687B689A62D7
:10253C007B680D4A934203D13B681A697B681A6326
:10254C007B6801225A617B681B6903F00103002B35
:10255C0005D07B681B6923F001027B681A6100BF00
:10256C001437BD4680BC7047002C0140000400406D
:10257C000008004080B487B000AF786039607B6899
:10258C001B6A7B617B681B6A23F001027B681A6201
:10259C007B685B683B617B689B69FB60FB6823F035
:1025AC007003FB60FB6823F00303FB603B681B6854
:1025BC00FA681343FB607B6923F002037B613B6881
:1025CC009B687A6913437B617B681C4A93420CD1EC
:1025DC007B6923F008037B613B68DB687A691343F2
:1025EC007B617B6923F004037B617B68134A934214
:1025FC0011D13B6923F480733B613B6923F4007375
:10260C003B613B685B693A6913433B613B689B697F
:10261C003A6913433B617B683A695A607B68FA6894
:10262C009A613B685A687B685A637B687A691A625C
:10263C0000BF1C37BD4680BC704700BF002C01405A
:10264C0080B487B000AF786039607B681B6A7B61AF
:10265C007B681B6A23F010027B681A627B685B68DC
:10266C003B617B689B69FB60FB6823F4E043FB6088
:10267C00FB6823F44073FB603B681B681B02FA6821
:10268C001343FB607B6923F020037B613B689B68F1
:10269C001B017A6913437B617B681D4A93420DD100
:1026AC007B6923F080037B613B68DB681B017A69E3
:1026BC0013437B617B6923F040037B617B68144A85
:1026CC00934213D13B6923F480633B613B6923F450
:1026DC0000633B613B685B699B003A6913433B6158
:1026EC003B689B699B003A6913433B617B683A6981
:1026FC005A607B68FA689A613B685A687B689A638F
:10270C007B687A691A6200BF1C37BD4680BC704773
:10271C00002C014080B487B000AF786039607B68D2
:10272C001B6A7B617B681B6A23F480727B681A626C
:10273C007B685B683B617B68DB69FB60FB6823F053
:10274C007003FB60FB6823F00303FB603B681B68B2
:10275C00FA681343FB607B6923F400737B613B686D
:10276C009B681B027A6913437B617B681D4A934209
:10277C000DD17B6923F400637B613B68DB681B0232
:10278C007A6913437B617B6923F480637B617B688B
:10279C00144A934213D13B6923F480533B613B6948
:1027AC0023F400533B613B685B691B013A6913439B
:1027BC003B613B689B691B013A6913433B617B6836
:1027CC003A695A607B68FA68DA613B685A687B68D8
:1027DC00DA637B687A691A6200BF1C37BD4680BC1D
:1027EC00704700BF002C014080B487B000AF786008
:1027FC0039607B681B6A3B617B681B6A23F48052DF
:10280C007B681A627B685B687B617B68DB69FB6059
:10281C00FB6823F4E043FB60FB6823F44073FB602C
:10282C003B681B681B02FA681343FB603B6923F48B
:10283C0000533B613B689B681B033A6913433B6144
:10284C007B680F4A934209D17B6923F480437B61F7
:10285C003B685B699B017A6913437B617B687A698E
:10286C005A607B68FA68DA613B685A687B681A645C
:10287C007B683A691A6200BF1C37BD4680BC704742
:10288C00002C014080B487B000AFF860B9607A606A
:10289C00FB681B6A7B61FB681B6A23F00102FB6807
:1028AC001A62FB689B693B613B6923F0F0033B6157
:1028BC007B681B013A6913433B617B6923F00A0374
:1028CC007B617A69BB6813437B61FB683A699A61E7
:1028DC00FB687A691A6200BF1C37BD4680BC704722
:1028EC0080B487B000AFF860B9607A60FB681B6A8F
:1028FC007B61FB681B6A23F01002FB681A62FB68A1
:10290C009B693B613B6923F470433B617B681B0310
:10291C003A6913433B617B6923F0A0037B61BB687D
:10292C001B017A6913437B61FB683A699A61FB6806
:10293C007A691A6200BF1C37BD4680BC704780B4F0
:10294C0085B000AF786039607B689B68FB60FB6882
:10295C0023F07003FB603A68FB68134343F00703F2
:10296C00FB607B68FA689A6000BF1437BD4680BC78
:10297C00704780B487B000AFF860B9607A603B6094
:10298C00FB689B687B617B6923F47F437B613B68BD
:10299C001A027B681A43BB6813437A6913437B6141
:1029AC00FB687A699A6000BF1C37BD4680BC7047D3
:1029BC0080B487B000AFF860B9607A60BB6803F090
:1029CC001F03012202FA03F37B61FB681A6A7B691D
:1029DC00DB431A40FB681A62FB681A6ABB6803F097
:1029EC001F03796801FA03F31A43FB681A6200BFEC
:1029FC001C37BD4680BC704780B485B000AF786092
:102A0C0039607B6893F83C30012B01D1022346E0FE
:102A1C007B68012283F83C207B68022283F83D20EE
:102A2C007B681B685B68FB607B681B689B68BB6092
:102A3C00FB6823F07003FB603B681B68FA68134368
:102A4C00FB607B681B68FA685A607B681B68164AD7
:102A5C0093420ED07B681B68B3F1804F09D07B6822
:102A6C001B68124A934204D07B681B68104A93423D
:102A7C000CD1BB6823F08003BB603B685B68BA6811
:102A8C001343BB607B681B68BA689A607B68012241
:102A9C0083F83D207B68002283F83C2000231846F5
:102AAC001437BD4680BC7047002C01400004004028
:102ABC000008004080B483B000AF786000BF0C37D2
:102ACC00BD4680BC704780B483B000AF786000BF57
:102ADC000C37BD4680BC704780B582B000AF7860C3
:102AEC007B68002B01D1012342E07B6893F84130D5
:102AFC00DBB2002B06D17B68002283F8402078687B
:102B0C0001F0C8F87B68242283F841207B681B689D
:102B1C00DA687B681B6822F40052DA60786800F08F
:102B2C007FFC7B681B681A697B681B6822F49042E7
:102B3C001A617B681B685A697B681B6822F02A0241
:102B4C005A617B681B68DA687B681B6842F4005228
:102B5C00DA607B6800225A647B68202283F841206B
:102B6C007B68202283F842207B6800225A63002372
:102B7C0018460837BD4680BD80B5BAB000AF786046
:102B8C007B681B681B68C7F8E4307B681B68DB68D4
:102B9C00C7F8E0307B681B685B69C7F8DC30002342
:102BAC00C7F8D8300023C7F8D430D7F8E43003F096
:102BBC000F03C7F8D830D7F8D830002B0FD1D7F87F
:102BCC00E43003F02003002B09D0D7F8E03003F0F9
:102BDC002003002B03D0786800F063FB5BE2D7F88E
:102BEC00D830002B00F0DE80D7F8DC3003F0010386
:102BFC00002B06D1D7F8E03003F49073002B00F0D3
:102C0C00D180D7F8E43003F00103002B0BD0D7F8B8
:102C1C00E03003F48073002B05D07B685B6C43F0D1
:102C2C0001027B685A64D7F8E43003F00403002BEC
:102C3C000BD0D7F8DC3003F00103002B05D07B68F8
:102C4C005B6C43F002027B685A64D7F8E43003F003
:102C5C000203002B0BD0D7F8DC3003F00103002B60
:102C6C0005D07B685B6C43F004027B685A64D7F830
:102C7C00E43003F00803002B11D0D7F8E03003F058
:102C8C002003002B05D1D7F8DC3003F00103002B17
:102C9C0005D07B685B6C43F008027B685A647B68E8
:102CAC005B6C002B00F0F281D7F8E43003F02003CA
:102CBC00002B08D0D7F8E03003F02003002B02D013
:102CCC00786800F0EEFA7B681B685B6903F04003E0
:102CDC00002B14BF01230023DBB2C7F8D4307B6870
:102CEC005B6C03F00803002B03D1D7F8D430002B16
:102CFC004FD0786800F0F8F97B681B685B6903F0CB
:102D0C004003002B41D07B681B681433C7F89C3000
:102D1C00D7F89C3053E8003FC7F89830D7F8983074
:102D2C0023F04003C7F8D0307B681B681433D7F806
:102D3C00D020C7F8A820C7F8A430D7F8A410D7F82B
:102D4C00A82041E80023C7F8A030D7F8A030002B0A
:102D5C00D9D17B68DB6B002B13D07B68DB6B7E4A95
:102D6C005A637B68DB6B1846FEF7C6F90346002BEB
:102D7C0016D07B68DB6B5B6B7A68D26B104698471E
:102D8C000EE0786800F09CF90AE0786800F098F999
:102D9C0006E0786800F094F97B6800225A6475E1CB
:102DAC0000BF73E17B681B6B012B40F04F81D7F8A0
:102DBC00E43003F01003002B00F04881D7F8E0302A
:102DCC0003F01003002B00F041810023BB607B68F3
:102DDC001B681B68BB607B681B685B68BB60BB685F
:102DEC007B681B685B6903F04003002B00F0B68026
:102DFC007B68DB6B1B685B68A7F8BE30B7F8BE302E
:102E0C00002B00F045817B689B8DB7F8BE209A4261
:102E1C0080F03E817B68B7F8BE20DA857B68DB6B7F
:102E2C009B69202B00F088807B681B680C33C7F8EB
:102E3C008830D7F8883053E8003FC7F88430D7F88B
:102E4C00843023F48073C7F8B8307B681B680C336C
:102E5C00D7F8B820C7F89420C7F89030D7F890105E
:102E6C00D7F8942041E80023C7F88C30D7F88C3081
:102E7C00002BD9D17B681B6814337B677B6F53E8BD
:102E8C00003F3B673B6F23F00103C7F8B4307B680E
:102E9C001B681433D7F8B420C7F88020FB67F96F90
:102EAC00D7F8802041E80023BB67BB6F002BE1D132
:102EBC007B681B6814333B663B6E53E8003FFB6535
:102ECC00FB6D23F04003C7F8B0307B681B681433EC
:102EDC00D7F8B020FA66BB66B96EFA6E41E80023EB
:102EEC007B667B6E002BE3D17B68202283F842202B
:102EFC007B6800221A637B681B680C33FB64FB6CD9
:102F0C0053E8003FBB64BB6C23F01003C7F8AC3034
:102F1C007B681B680C33D7F8AC20BA657B65796D80
:102F2C00BA6D41E800233B653B6D002BE3D17B6818
:102F3C00DB6B1846FEF7A4F87B6802225A637B68A9
:102F4C009A8D7B68DB8D9BB2D31A9BB2194678683D
:102F5C0000F0BFF89CE000BFB93100087B689A8D87
:102F6C007B68DB8D9BB2D31AA7F8CE307B68DB8DE8
:102F7C009BB2002B00F08E80B7F8CE30002B00F007
:102F8C0089807B681B680C33BB63BB6B53E8003FC9
:102F9C007B637B6B23F49073C7F8C8307B681B682A
:102FAC000C33D7F8C8207A643B64396C7A6C41E8EE
:102FBC000023FB63FB6B002BE3D17B681B68143392
:102FCC007B627B6A53E8003F3B623B6A23F0010360
:102FDC00C7F8C4307B681B681433D7F8C4203A6335
:102FEC00FB62F96A3A6B41E80023BB62BB6A002BB7
:102FFC00E3D17B68202283F842207B6800221A638D
:10300C007B681B680C333B613B6953E8003FFB60FA
:10301C00FB6823F01003C7F8C0307B681B680C33C7
:10302C00D7F8C020FA61BB61B969FA6941E800239D
:10303C007B617B69002BE3D17B6802225A63B7F872
:10304C00CE301946786800F044F823E0D7F8E43025
:10305C0003F08003002B09D0D7F8E03003F0800395
:10306C00002B03D0786800F0B5F814E0D7F8E43002
:10307C0003F04003002B0ED0D7F8E03003F04003F0
:10308C00002B08D0786800F0F4F804E000BF02E0F0
:10309C0000BF00E000BFE837BD4680BD80B483B000
:1030AC0000AF786000BF0C37BD4680BC704780B461
:1030BC0083B000AF786000BF0C37BD4680BC704752
:1030CC0080B483B000AF786000BF0C37BD4680BCC5
:1030DC00704780B483B000AF78600B467B8000BF34
:1030EC000C37BD4680BC704780B495B000AF78609B
:1030FC007B681B680C337B637B6B53E8003F3B6343
:10310C003B6B23F49073FB647B681B680C33FA6C89
:10311C003A64FB63F96B3A6C41E80023BB63BB6B0D
:10312C00002BE5D17B681B6814333B623B6A53E888
:10313C00003FFB61FB6923F00103BB647B681B68E8
:10314C001433BA6CFA62BB62B96AFA6A41E80023BA
:10315C007B627B6A002BE5D17B681B6B012B19D141
:10316C007B681B680C33FB60FB6853E8003FBB605B
:10317C00BB6823F010037B647B681B680C337A6C90
:10318C00BA617B617969BA6941E800233B613B69AB
:10319C00002BE5D17B68202283F842207B6800223B
:1031AC001A6300BF5437BD4680BC704780B584B0ED
:1031BC0000AF78607B685B6AFB60FB680022DA8595
:1031CC00FB680022DA84F868FFF77AFF00BF10373B
:1031DC00BD4680BD80B485B000AF78607B6893F845
:1031EC004130DBB2212B3ED17B689B68B3F5805F0D
:1031FC0014D17B681B69002B10D17B681B6AFB60A8
:10320C00FB681B881A467B681B68C2F308025A606D
:10321C007B681B6A9A1C7B681A6208E07B681B6AD5
:10322C00591C7A6811621A787B681B685A607B6833
:10323C00DB8C9BB2013B9BB27A681946D184002B84
:10324C000FD17B681B68DA687B681B6822F08002F0
:10325C00DA607B681B68DA687B681B6842F04002A6
:10326C00DA60002300E0022318461437BD4680BC08
:10327C00704780B582B000AF78607B681B68DA68F5
:10328C007B681B6822F04002DA607B68202283F89E
:10329C0041207868FFF702FF002318460837BD4627
:1032AC0080BD80B58CB000AF78607B6893F84230FD
:1032BC00DBB2222B40F0AE807B689B68B3F5805F5D
:1032CC0017D17B681B69002B13D10023FB627B6831
:1032DC009B6ABB627B681B685B689BB2C3F3080389
:1032EC009AB2BB6A1A807B689B6A9A1C7B689A624A
:1032FC0026E07B689B6AFB620023BB627B689B6851
:10330C00B3F5805F07D07B689B68002B0AD17B6884
:10331C001B69002B06D17B681B685B68DAB2FB6A01
:10332C001A7008E07B681B685B68DBB203F07F03F4
:10333C00DAB2FB6A1A707B689B6A5A1C7B689A62C9
:10334C007B68DB8D9BB2013B9BB27A681946D185B9
:10335C00002B5DD17B681B68DA687B681B6822F0E8
:10336C002002DA607B681B68DA687B681B6822F4D1
:10337C008072DA607B681B685A697B681B6822F074
:10338C0001025A617B68202283F842207B6800226C
:10339C005A637B681B6B012B35D17B6800221A6347
:1033AC007B681B680C337B617B6953E8003F3B6196
:1033BC003B6923F010037B627B681B680C337A6AD1
:1033CC003A62FB61F9693A6A41E80023BB61BB6967
:1033DC00002BE5D17B681B681B6803F01003102BD6
:1033EC000AD10023FB607B681B681B68FB607B6851
:1033FC001B685B68FB60FB687B689B8D1946786873
:10340C00FFF767FE02E07868FFF751FE002302E049
:10341C00002300E0022318463037BD4680BD000073
:10342C0080B584B000AF78607B681B681B6923F49F
:10343C0040517B68DA687B681B680A431A617B68B9
:10344C009A687B681B691A437B685B691343BB6092
:10345C007B681B68DB6823F4B05323F00C037A6899
:10346C001268B9680B43D3607B681B685B6923F4F3
:10347C0040717B689A697B681B680A435A617B6858
:10348C001B682C4A934203D1FDF70AFCF86002E05A
:10349C00FDF7F2FBF860FA6813469B0013449A00A0
:1034AC001A447B685B689B00B2FBF3F3224AA2FBD5
:1034BC0003235B091901FA6813469B0013449A0015
:1034CC001A447B685B689B00B2FBF3F21A4BA3FBBC
:1034DC0002035B09642000FB03F3D31A1B01323394
:1034EC00154AA2FB03235B0903F0F0031944FA68A5
:1034FC0013469B0013449A001A447B685B689B003C
:10350C00B2FBF3F20C4BA3FB02035B09642000FB40
:10351C0003F3D31A1B013233074AA2FB03235B09C3
:10352C0003F00F027B681B680A449A6000BF1037D7
:10353C00BD4680BD003801401F85EB5180B584B07D
:10354C0002AFFCF76DFF00F029F800F0BDF900F0B8
:10355C0067F800F093F800F017F900F08BF900F021
:10356C00C3F8084B1B88BB80074B0193074B009398
:10357C00074B084A0849786800F00CFE00F032FE50
:10358C00FCE700BF0C4A00080C000020940000204F
:10359C00400000207C0100201400002080B590B079
:1035AC0000AF07F1180328220021184601F0EFF9AB
:1035BC003B1D00221A605A609A60DA601A6102237D
:1035CC00BB610123BB621023FB6202237B630023DC
:1035DC00BB634FF46013FB6307F118031846FCF749
:1035EC0081FF0346002B01D000F0DEF90F237B6036
:1035FC000223BB600023FB604FF480633B6100231C
:10360C007B613B1D02211846FDF7EEF90346002BAA
:10361C0001D000F0C9F900BF4037BD4680BD0000A5
:10362C0080B500AF124B134A1A60114B124A5A6004
:10363C000F4B00229A600E4B0022DA600C4B4FF4B9
:10364C0080421A610A4B00225A61094B00229A618E
:10365C00074B0022DA61064B00221A620448FCF781
:10366C009BFD0346002B01D000F09EF900BF80BDEE
:10367C004000002000540040A086010080B500AF3F
:10368C00174B184A1A60164B4FF482725A60144B3F
:10369C0000229A60124B0022DA60114B00221A6150
:1036AC000F4B00225A610E4B4FF400729A610C4B77
:1036BC001022DA610A4B00221A62094B00225A626C
:1036CC00074B00229A62064B0A22DA620448FDF785
:1036DC00CAFE0346002B01D000F066F900BF80BD86
:1036EC00940000200030014080B586B000AF07F197
:1036FC00080300221A605A609A60DA603B46002286
:10370C001A605A601E4B1F4A1A601D4B00225A60E9
:10371C001B4B00229A601A4B4FF6FF72DA60184B63
:10372C0000221A61164B00225A61154B00229A6135
:10373C001348FEF7C2FA0346002B01D000F034F90F
:10374C004FF48053BB6007F1080319460C48FEF791
:10375C00AFFD0346002B01D000F026F900233B609F
:10376C0000237B603B4619460548FFF745F90346A5
:10377C00002B01D000F018F900BF1837BD4680BDF2
:10378C00EC000020002C014080B58EB000AF07F19A
:10379C00280300221A605A609A60DA6007F120034D
:1037AC0000221A605A603B1D00221A605A609A600F
:1037BC00DA601A615A619A612D4B4FF080421A609F
:1037CC002B4B3F225A602A4B00229A60284B44F61E
:1037DC001F62DA60264B00221A61254B00229A6187
:1037EC002348FEF76AFA0346002B01D000F0DCF800
:1037FC004FF48053BB6207F1280319461C48FEF7AF
:10380C0057FD0346002B01D000F0CEF81848FEF708
:10381C00A3FA0346002B01D000F0C6F800233B624C
:10382C0000237B6207F1200319461148FFF7E4F8E7
:10383C000346002B01D000F0B7F860237B60002317
:10384C00BB600023FB6000237B613B1D00221946FB
:10385C000748FEF76BFC0346002B01D000F0A4F8E0
:10386C00034800F0E7F900BF3837BD4680BD00BF04
:10387C003401002080B500AF114B124A1A60104B76
:10388C004FF4E1325A600E4B00229A600C4B00222E
:10389C00DA600B4B00221A61094B0C225A61084B5F
:1038AC0000229A61064B0022DA610548FFF714F9F1
:1038BC000346002B01D000F077F800BF80BD00BF9D
:1038CC007C0100200038014080B586B000AF07F1C4
:1038DC00080300221A605A609A60DA602E4B9B69CA
:1038EC002D4A43F0040393612B4B9B6903F00403B3
:1038FC007B607B68284B9B69274A43F008039361E4
:10390C00254B9B6903F008033B603B6800220821B0
:10391C002248FDF77BFB002201212148FDF776FBB5
:10392C000623BB601F4BFB6000233B6107F10803C0
:10393C0019461A48FDF7E6F90823BB600123FB6022
:10394C0000233B6102237B6107F1080319461348EE
:10395C00FDF7D8F90123BB600123FB6000233B6119
:10396C0002237B6107F1080319460D48FDF7CAF9DC
:10397C00002201210720FDF732FD0720FDF74BFD4A
:10398C00002201210820FDF72AFD0820FDF743FD48
:10399C0000BF1837BD4680BD001002400008014032
:1039AC00000C01400000111080B400AF72B600BFD3
:1039BC0000BFFDE780B400AF00BFFDE780B400AFEF
:1039CC0000BFFDE780B400AF00BFFDE780B400AFDF
:1039DC0000BFFDE780B400AF00BFFDE780B400AFCF
:1039EC0000BFBD4680BC704780B400AF00BFBD4671
:1039FC0080BC704780B400AF00BFBD4680BC704730
:103A0C0080B500AFFCF752FD00BF80BD80B500AFA4
:103A1C000220FDF713FB00BF80BD80B500AF042072
:103A2C00FDF70CFB00BF80BD80B500AF0248FEF770
:103A3C008DFA00BF80BD00BF3401002080B500AFFF
:103A4C000248FFF799F800BF80BD00BF7C01002041
:103A5C0080B485B000AF154B9B69144A43F0010349
:103A6C009361124B9B6903F00103BB60BB680F4B66
:103A7C00DB690E4A43F08053D3610C4BDB6903F0D6
:103A8C0080537B607B680A4B5B68FB60FB6823F0B0
:103A9C00E063FB60FB6843F00073FB60044AFB6867
:103AAC00536000BF1437BD4680BC70470010024005
:103ABC000000014080B588B000AF786007F11003BA
:103ACC0000221A605A609A60DA607B681B68154A9B
:103ADC00934223D1144B9B69134A43F0080393611F
:103AEC00114B9B6903F00803FB60FB68C0233B612F
:103AFC0012237B610323FB6107F1100319460B486A
:103B0C00FDF700F9084BDB69074A43F40013D36156
:103B1C00054BDB6903F40013BB60BB6800BF2037A7
:103B2C00BD4680BD0054004000100240000C014016
:103B3C0080B588B000AF786007F1100300221A60DE
:103B4C005A609A60DA607B681B681B4A93422FD1DB
:103B5C001A4B9B69194A43F480539361174B9B6929
:103B6C0003F48053FB60FB68144B9B69134A43F0CE
:103B7C0004039361114B9B6903F00403BB60BB68A6
:103B8C00A0233B6102237B610323FB6107F110033C
:103B9C0019460B48FDF7B6F840233B6100237B61C7
:103BAC000023BB6107F1100319460548FDF7AAF87D
:103BBC0000BF2037BD4680BD0030014000100240E0
:103BCC000008014080B584B000AF78607B681B684A
:103BDC00164A93420CD1164B9B69154A43F4006369
:103BEC009361134B9B6903F40063FB60FB6818E063
:103BFC007B681B68B3F1804F13D10D4BDB690C4A0A
:103C0C0043F00103D3610A4BDB6903F00103BB6092
:103C1C00BB68002202211C20FDF7E1FB1C20FDF7F4
:103C2C00FAFB00BF1037BD4680BD00BF002C014021
:103C3C000010024080B588B000AF786007F1100327
:103C4C0000221A605A609A60DA607B681B68B3F1D4
:103C5C00804F17D10D4B9B690C4A43F004039361C1
:103C6C000A4B9B6903F00403FB60FB6801233B6177
:103C7C0002237B610223FB6107F110031946044800
:103C8C00FDF740F800BF2037BD4680BD0010024054
:103C9C000008014080B588B000AF786007F11003D0
:103CAC0000221A605A609A60DA607B681B68204AAE
:103CBC00934239D11F4B9B691E4A43F48043936155
:103CCC001C4B9B6903F48043FB60FB68194B9B699D
:103CDC00184A43F004039361164B9B6903F00403E9
:103CEC00BB60BB684FF400733B6102237B61032311
:103CFC00FB6107F1100319460F48FDF703F84FF469
:103D0C0080633B6100237B610023BB6107F11003DF
:103D1C0019460948FCF7F6FF002203212520FDF780
:103D2C005EFB2520FDF777FB00BF2037BD4680BD2D
:103D3C00003801400010024000080140FCF726FA50
:103D4C000B480C490C4A002302E0D458C4500433ED
:103D5C00C4188C42F9D3094A094C002301E01360C2
:103D6C000432A242FBD300F01BFEFFF7E7FB7047C7
:103D7C000000002020000020504B000820000020F4
:103D8C0004020020FEE780B500AF00F0CAF88D21D8
:103D9C002A2000F01DF83E212B2000F019F81E21DE
:103DAC002D2000F015F800212C2000F011F87021C6
:103DBC00262000F00DF84021152000F009F83D21D7
:103DCC00112000F005F800F097F800BF80BD00004E
:103DDC0080B584B000AF03460A46FB711346BB7135
:103DEC00FB795B00DBB203F07E03DBB23B73BB7988
:103DFC007B73002201210948FDF708F907F10C013A
:103E0C00642302220648FDF7B2FB0122012103487C
:103E1C00FDF7FCF800BF1037BD4680BD000C01401B
:103E2C009400002080B586B002AF0346FB710023DE
:103E3C003B8197F907305B005BB203F07E035BB20A
:103E4C0063F07F035BB2DBB23B7300237B73002216
:103E5C0001210B48FDF7DAF807F1080207F10C0114
:103E6C006423009302230748FDF7C5FC01220121BE
:103E7C000348FDF7CBF87B7A18461037BD4680BD5A
:103E8C00000C01409400002080B582B000AF0346C6
:103E9C000A46FB711346BB71FB791846FFF7C2FF4C
:103EAC0003461A46BB791343DAB2FB79114618461E
:103EBC00FFF78EFF00BF0837BD4680BD80B582B0CE
:103ECC0000AF03460A46FB711346BB71FB791846DB
:103EDC00FFF7A8FF03465AB297F90630DB435BB2F3
:103EEC0013405BB2DAB2FB7911461846FFF770FF4C
:103EFC0000BF0837BD4680BD80B582B000AF14202E
:103F0C00FFF790FF0346FB71FB7903F00303002BD3
:103F1C0003D103211420FFF7B7FF00BF0837BD46BC
:103F2C0080BD80B500AF0F210120FFF751FF00BF0E
:103F3C0080BD80B586B002AF03463960FB710721A6
:103F4C000D20FFF745FF3B68FA791A7007F10C0357
:103F5C0000933B68012239680C2000F00FF80346EF
:103F6C00FB73FB7B002B02D1BB89102B01D00223EE
:103F7C00FB73FB7B18461037BD4680BD90B587B0F0
:103F8C0000AFB9607B600346FB731346BB7302231F
:103F9C00FB750023BB7500237B75FB7B0C2B06D0BC
:103FAC000E2B09D11223BB7510237B7505E07723EB
:103FBC00BB7530237B7500E000BFBB7D63F07F03D6
:103FCC00DBB219460220FFF703FF80210420FFF724
:103FDC0075FF80210A20FFF757FF00210120FFF712
:103FEC00F7FE00237B820AE07B8ABA6813441B78B5
:103FFC0019460920FFF7ECFE7B8A01337B82BB7BE1
:10400C009BB27A8A9A42EFD3FB7B19460120FFF7C9
:10401C00DFFEFB7B0C2B03D180210D20FFF734FF3F
:10402C004FF4FA637B820420FFF7FCFE03463B75DA
:10403C007B8A013B7B827B8A002B0AD03B7D03F081
:10404C000103002B05D13A7D7B7D1340DBB2002BA5
:10405C00E9D080210D20FFF731FF7B8A002B57D050
:10406C000620FFF7DFFE034603F01B03002B4DD1A8
:10407C000023FB753A7DBB7D1340DBB203F00103DB
:10408C00002B01D00123FB75FB7B0C2B40D10A20AC
:10409C00FFF7C8FE03463B750C20FFF7C3FE034633
:1040AC0003F007037B747B7C002B0BD03B7D013B27
:1040BC009BB2DB009AB27B7C9BB213449AB2BB6A74
:1040CC001A8005E03B7D9BB2DB009AB2BB6A1A807A
:1040DC003B7D002B01D101233B753B7D102B01D97E
:1040EC0010233B7500237B820AE07B8A7A68D41804
:1040FC000920FFF797FE034623707B8A01337B82EE
:10410C003B7D9BB27A8A9A42EFD301E00223FB7586
:10411C00FB7D18461C37BD4690BD80B586B002AFFE
:10412C00786000237B7300210D20FFF751FE7B6824
:10413C0093221A707B68013320221A7007F10A034C
:10414C0000937B68022279680C20FFF717FF034667
:10415C00FB73FB7B002B18D10023BB7309E0BB7BEB
:10416C007A6813441A787B7B53407B73BB7B013397
:10417C00BB73BB7B032BF2D9BB7B7A6813441B78D4
:10418C007A7B9A4201D00223FB73FB7B18461037D3
:10419C00BD4680BD80B584B000AFB881B9607A608F
:1041AC003B60386800F084FA786800F0C9FBB869A5
:1041BC0000F096FAF86900F063FBB86800F016FAA4
:1041CC00F86800F041FA054B00221A70044B0B22E0
:1041DC001A7000BF1037BD4680BD00BFC40100205F
:1041EC00C501002080B500AFB64B1B78DAB2B64BD8
:1041FC001B78DBB29A4200F08D80B24B1B78DAB29E
:10420C00B14B1A70AF4B1B78DBB20B2B7FD801A2D2
:10421C0052F823F0514200081B4300086742000883
:10422C008542000899420008AB420008B3420008DE
:10423C00BB420008C9420008D1420008DF42000816
:10424C00FF42000800F022FA002000F031FB00F0E1
:10425C00DFF99E4800F03AFA5CE000F005FA5920CC
:10426C0000F026FB9A4800F031FA9A4800F02EFA3A
:10427C00994800F073FB4DE0592000F019FB97486A
:10428C0000F024FA964800F069FB43E0954800F0F2
:10429C001DFA00F0CBF9944800F060FB3AE093482B
:1042AC0000F014FA36E0924800F010FA32E091482F
:1042BC0000F00CFA904800F051FB2BE08F4800F016
:1042CC0005FA27E08E4800F001FA8E4800F046FB14
:1042DC0020E08D4B1B78032B03D18C4800F0F6F9B2
:1042EC0017E0894B1B78002B13D1894800F0EEF9AD
:1042FC000FE000F0CBF9002000F0DAFA00F096F9AC
:10430C00844800F02BFB844800F0E0F902E000BF89
:10431C0000E000BF6B4B1B78DBB20B2B00F248812B
:10432C0001A252F823F000BF654300089343000834
:10433C00D9430008F7430008134400082F44000831
:10434C008D440008434500085D450008774500088A
:10435C0091450008AB45000800F022FA03461A46C6
:10436C006E4B1A706D4B1B78002B03D1554B0122F1
:10437C001A701FE1694B1B78022B40F01B81514BCB
:10438C000B221A7016E100F02BFA03461A465E4B0C
:10439C001A705D4B1B78002B03D14A4B02221A700A
:1043AC000EE0594B1B78012B03D1464B03221A709C
:1043BC0006E0554B1B78022B02D1424B04221A709B
:1043CC00FCF786F80346564A136008E1FCF780F8C0
:1043DC000246534B1B68D31A41F28832934240F287
:1043EC00EB80384B00221A70E6E0FCF771F80246BD
:1043FC004B4B1B68D31AB3F57A7F40F2DF80314BFD
:10440C0000221A70DAE0FCF763F80246444B1B6892
:10441C00D31AB3F57A7F40F2D3802A4B00221A705C
:10442C00CEE0FCF755F802463D4B1B68D31A41F21F
:10443C008832934203D9234B00221A70C2E000F059
:10444C00AFF90346002B40F0BD8000F0FFF90346A6
:10445C001A462D4B1A702C4B1B78042B03D02A4B6D
:10446C001B78002B03D1174B08221A7002E0154B56
:10447C0007221A70FCF72CF80346294A1360A1E0B6
:10448C00FCF726F80246264B1B68D31A41F28832F9
:10449C00934203D90B4B00221A7095E000F080F97F
:1044AC000346002B40F0908000F0D0F903461A46EA
:1044BC00154B1A70144B1B78042B33D1014B09226A
:1044CC001A7032E0C4010020C5010020104A000817
:1044DC001C4A0008284A0008484A0008544A0008A8
:1044EC005C4A0008704A0008784A0008884A0008AC
:1044FC00944A0008A44A0008B04A0008C04A0008C0
:10450C00CC4A0008DC4A0008CD010020EC4A000827
:10451C00F84A00080C4B0008144B0008CC01002092
:10452C00C80100202F4B0A221A70FBF7D1FF03465B
:10453C002D4A136048E0FBF7CBFF02462A4B1B6861
:10454C00D31AB3F57A7F41D9264B00221A703DE07D
:10455C00FBF7BEFF0246244B1B68D31AB3F57A7FD8
:10456C0036D9204B00221A7032E0FBF7B1FF02461D
:10457C001D4B1B68D31AB3F57A7F2BD9194B00222C
:10458C001A7027E0FBF7A4FF0246174B1B68D31ADF
:10459C00B3F57A7F20D9134B00221A701CE000F07F
:1045AC00FFF80346002B19D10E4B00221A7015E0B0
:1045BC0000BF14E000BF12E000BF10E000BF0EE02F
:1045CC0000BF0CE000BF0AE000BF08E000BF06E03F
:1045DC0000BF04E000BF02E000BF00E000BF00BF6E
:1045EC0080BD00BFC4010020C801002080B483B08E
:1045FC0000AF7860054B7A6892E8030083E803000B
:10460C0000BF0C37BD4680BC704700BFD0010020F6
:10461C0080B500AF044B1B68034A918800221846F2
:10462C00FCF7F4FC00BF80BDD001002080B500AFCA
:10463C00044B1B68034A918801221846FCF7E6FCE0
:10464C0000BF80BDD001002080B582B000AFB88023
:10465C00044ABB88138000F019F800BF0837BD4628
:10466C0080BD00BFD801002080B500AF064B93F988
:10467C0000301846FCF7CFFE034B93F90130184677
:10468C00FCF7C9FE00BF80BDD801002080B500AF8B
:10469C00064B93F900301846FCF7CBFE034B93F90D
:1046AC0001301846FCF7C5FE00BF80BDD8010020C4
:1046BC0080B483B000AF7860034A7B68136000BF9E
:1046CC000C37BD4680BC7047DC01002080B483B041
:1046DC0000AF786000BF0C37BD4680BC704700004F
:1046EC0080B582B000AF7860044A7B681360FFF736
:1046FC004AFB00BF0837BD4680BD00BFE00100206B
:10470C0080B483B000AF00237B6010E00C4A7B6860
:10471C0012F82330002B07D17B689B00084A134406
:10472C00084A12681A6006E07B6801337B607B687C
:10473C00032BEBDD00BF00BF0C37BD4680BC7047C0
:10474C00EC010020E401002080B582B000AF002312
:10475C007B6018E07B689B000F4A134404221946C7
:10476C000E4800F004F90346002B09D17B689B002E
:10477C00094A134404220021184600F008F906E007
:10478C007B6801337B607B68032BE3DD00BF00BFDC
:10479C000837BD4680BD00BFEC010020E4010020BD
:1047AC0080B582B000AF3B1D19462620FFF7C1FB38
:1047BC000346FB71FB79002B0BD10848FFF7ADFCCE
:1047CC000346FB71FB79002B01D1002302E002238D
:1047DC0000E0012318460837BD4680BDE4010020E7
:1047EC0080B582B000AF04221549164800F0BFF81E
:1047FC000346002B01D100231DE000237B6016E053
:10480C00114A7B6812F82330002B0DD07B689B007B
:10481C000D4A1344042219460A4800F0A8F803462E
:10482C00002B01D1012306E07B6801337B607B68A0
:10483C00032BE5DD022318460837BD4680BD00BFBB
:10484C001C000020E4010020EC01002080B582B0A7
:10485C0000AFFFF7C5FF0346FB71FB79002B01D1BD
:10486C00002309E0FB79012B03D1FFF76DFF042333
:10487C0002E0FFF745FF032318460837BD4680BD0D
:10488C0080B582B000AF7860084A7B681360074B34
:10489C001B681A68054B1B685B6819461046FDF7C8
:1048AC00B3FA00BF0837BD4680BD00BFFC01002035
:1048BC0080B485B000AF0346FB71FB794FF47A727C
:1048CC0002FB03F31C4A82FB03121A449211DB17FE
:1048DC00D31A9BB203F57A73FB81184B1B685B6888
:1048EC00002B06D1154B1B681B681B68FA895A6391
:1048FC001DE0124B1B685B68042B06D10F4B1B6829
:10490C001B681A68FB89936311E00C4B1B685B688E
:10491C00082B06D1094B1B681B681A68FB89D363EB
:10492C0005E0064B1B681B681A68FB89136400BF03
:10493C001437BD4680BC7047B7600BB6FC01002035
:10494C0080B483B000AF7860034A7B68136000BF0B
:10495C000C37BD4680BC70470002002080B483B089
:10496C0000AF786000BF0C37BD4680BC704710B5F7
:10497C0001390244904201D1002005E0037811F87E
:10498C00014FA34201D0181B10BD0130F2E70346C2
:10499C000244934200D1704703F8011BF9E7000071
:1049AC0070B500260C4D0D4B5B1B9C10A64209D11B
:1049BC00002600F019F80A4D0A4B5B1B9C10A6420E
:1049CC0005D170BD55F8043B98470136EEE755F814
:1049DC00043B98470136F2E7484B0008484B000867
:1049EC00484B00084C4B0008F8B500BFF8BC08BC9D
:1049FC009E467047F8B500BFF8BC08BC9E46704791
:104A0C00060700005363616E6E696E67210000003B
:104A1C00486920426F737321000000004144442018
:104A2C004341524420283129206F722044454C4583
:104A3C0054452043415244202832290041646D6979
:104A4C006E206D6F64650A0057656C636F6D650051
:104A5C0057656C636F6D652049443A202E2E2E0AE3
:104A6C000000000044656E696564000044656E6971
:104A7C0065642049443A202E2E2E0A005363616E41
:104A8C0020746F20616464005363616E20746F2026
:104A9C0064656C65746500004361726420416464F4
:104AAC0065640000536176652049443A202E2E2E11
:104ABC000A000000436172642045786973747300C6
:104ACC00436172642044656C657465640000000089
:104ADC0044656C6574652049443A202E2E2E0A00DC
:104AEC004E6F7420466F756E6400000043616E6EED
:104AFC006F742044656C6574652041646D696E004B
:104B0C004552524F520A00004572726F72212100B9
:104B1C000000000000000000010203040607080961
:104B2C000000000001020304020304050607080943
:0C4B3C000A0B0C0D0E0F101001020000FF
:044B480075010008EB
:044B4C004D0100080F
:104B500000127A0010000000010000003401002063
:104B6000000000000008014008000000534F4228E8
:0400000508003D4969
:00000001FF
