:020000040800F2
:1000000000500020C94A0008DD460008E546000807
:10001000ED460008F5460008FD4600080000000017
:10002000000000000000000000000000054700087C
:1000300011470008000000001D470008294700087C
:10004000114B0008114B0008114B0008114B000820
:10005000114B0008114B0008114B000835470008F0
:1000600043470008114B0008114B0008114B0008D2
:10007000114B0008114B0008114B0008114B0008F0
:10008000114B0008114B0008114B0008114B0008E0
:10009000114B0008114B0008114B0008114B0008D0
:1000A000114B0008114B0008114B0008114B0008C0
:1000B00051470008114B0008114B0008114B000874
:1000C000114B0008114B0008114B0008114B0008A0
:1000D000114B000865470008114B0008114B000840
:1000E00079470008114B0008114B00080000000080
:1000F0000000000000000000000000000000000000
:0C01000000000000000000005FF808F1A3
:10010C00034613F8012B002AFBD1181A013870474B
:10011C000348044B834202D0034B03B1184770478A
:10012C00A4000020A4000020000000000548064B9D
:10013C001B1AD90F01EBA301491002D0034B03B1D9
:10014C0018477047A4000020A40000200000000005
:10015C0010B5064C237843B9FFF7DAFF044B13B103
:10016C000448AFF300800123237010BDA8000020C9
:10017C0000000000F083000808B5054B1BB10549D1
:10018C000548AFF30080BDE80840FFF7CFBF00BFC4
:10019C0000000000AC000020F083000880B400AF29
:1001AC0000BFBD4680BC704780B584B000AF78609E
:1001BC007B68002B01D101232BE17B6893F83D3048
:1001CC00DBB2002B06D17B68002283F83C207868D8
:1001DC0004F00EFB7B68242283F83D207B681B68AF
:1001EC001A687B681B6822F001021A607B681B6826
:1001FC001A687B681B6842F400421A607B681B68B3
:10020C001A687B681B6822F400421A6001F0C8F877
:10021C00F8607B685B68814A934207D8FB68804A28
:10022C00934294BF01230023DBB206E0FB687D4AB6
:10023C00934294BF01230023DBB2002B01D0012396
:10024C00E7E0FB68784AA2FB03239B0CBB607B684E
:10025C001B685B6823F03F017B681B68BA680A4324
:10026C005A607B681B681B6A23F03F017B685B68E4
:10027C006A4A934202D8BB68013309E0BB684FF469
:10028C00967202FB03F3694AA2FB03239B09013319
:10029C007A6812680B4313627B681B68DB6923F472
:1002AC004F4222F0FF027B685B685C498B4219D895
:1002BC00FB68591E7B685B685B00B1FBF3F3591C50
:1002CC0040F6FC730B40002B0AD0FB68591E7B6870
:1002DC005B685B00B1FBF3F30133C3F30B0351E039
:1002EC0004234FE07B689B68002B11D1FB68581EE0
:1002FC007B6859680B465B000B44B0FBF3F301338E
:10030C00C3F30B03002B0CBF01230023DBB212E061
:10031C00FB68581E7B6859680B469B000B44990080
:10032C000B44B0FBF3F30133C3F30B03002B0CBFF3
:10033C0001230023DBB2002B01D0012322E07B68D8
:10034C009B68002B0ED1FB68581E7B6859680B46C6
:10035C005B000B44B0FBF3F30133C3F30B0343F427
:10036C0000430FE0FB68581E7B6859680B469B00E6
:10037C000B4499000B44B0FBF3F30133C3F30B03B1
:10038C0043F44043796809681343CB617B681B686D
:10039C001B6823F0C0017B68DA697B681B6A1A430F
:1003AC007B681B680A431A607B681B689B6823F494
:1003BC00034323F0FF037A6811697A68D26811430A
:1003CC007A6812680B4393607B681B68DB6823F0C8
:1003DC00FF017B685A697B689B691A437B681B68C1
:1003EC000A43DA607B681B681A687B681B6842F0FA
:1003FC0001021A607B6800221A647B68202283F851
:10040C003D207B6800221A637B68002283F83E2023
:10041C00002318461037BD4680BD00BFA0860100E2
:10042C007F841E00FF083D0083DE1B43D34D62100A
:10043C0080B588B002AFF860084611461A460346EC
:10044C007B810B463B811346FB8000F0B1FB78614E
:10045C00FB6893F83D30DBB2202B40F0D9807B69F0
:10046C000093192301226D49F86800F071F90346D5
:10047C00002B01D00223CCE0FB6893F83C30012B1D
:10048C0001D10223C5E0FB68012283F83C20FB6804
:10049C001B681B6803F00103012B07D0FB681B686A
:1004AC001A68FB681B6842F001021A60FB681B6843
:1004BC001A68FB681B6822F400621A60FB68212230
:1004CC0083F83D20FB68402283F83E20FB68002225
:1004DC001A64FB683A6A5A62FB68BA8C5A85FB68E4
:1004EC005B8D9AB2FB681A85FB684D4ADA62F88814
:1004FC003A8979897B690193BB6A00930346F86852
:10050C0000F090F80346002B52D0012381E07A6969
:10051C00B96AF86800F036FA0346002B0DD0FB6878
:10052C001B6C042B07D1FB681B681A68FB681B68E3
:10053C0042F400721A6001236BE0FB685B6A1A7864
:10054C00FB681B681A61FB685B6A5A1CFB685A6281
:10055C00FB681B8D013B9AB2FB681A85FB685B8DAF
:10056C009BB2013B9AB2FB685A85FB681B685B69BE
:10057C0003F00403042B1BD1FB681B8D002B17D03D
:10058C00FB685B6A1A78FB681B681A61FB685B6A1C
:10059C005A1CFB685A62FB681B8D013B9AB2FB68C4
:1005AC001A85FB685B8D9BB2013B9AB2FB685A853E
:1005BC00FB681B8D002BAAD17A69B96AF86800F028
:1005CC0029FA0346002B0DD0FB681B6C042B07D1BA
:1005DC00FB681B681A68FB681B6842F400721A609F
:1005EC00012316E0FB681B681A68FB681B6842F461
:1005FC0000721A60FB68202283F83D20FB68002201
:10060C0083F83E20FB68002283F83C20002300E0A6
:10061C00022318461837BD4680BD00BF02001000EB
:10062C000000FFFF80B588B002AFF86008461146A5
:10063C001A4603467B810B463B811346FB80FB68C5
:10064C001B681A68FB681B6842F480721A607B6A2C
:10065C0000933B6A00224FF00111F86800F078F823
:10066C000346002B0DD0FB681B681B6803F48073DA
:10067C00B3F5807F03D1FB684FF400721A64032337
:10068C005FE07B89DBB21A46FB681B6802F0FE0256
:10069C001A617B6A3A6A2D49F86800F0D3F8034670
:1006AC00002B01D001234CE000237B61FB681B680D
:1006BC005B697B61FB681B689B697B617B697A6A00
:1006CC00396AF86800F05EF90346002B0DD0FB6820
:1006DC001B6C042B07D1FB681B681A68FB681B6832
:1006EC0042F400721A6001232BE0FB88012B05D128
:1006FC003B89DAB2FB681B681A6121E03B891B0A53
:10070C009BB2DAB2FB681B681A617A6A396AF868BC
:10071C0000F038F90346002B0DD0FB681B6C042B42
:10072C0007D1FB681B681A68FB681B6842F40072EF
:10073C001A60012305E03B89DAB2FB681B681A6179
:10074C00002318461837BD4680BD00BF02000100CB
:10075C0080B584B000AFF860B9603B601346FB71A4
:10076C0048E03B68B3F1FF3F44D000F021FA024669
:10077C00BB69D31A3A689A4202D33B68002B39D131
:10078C00BB681B0CDBB2012B0DD1FB681B685B69D2
:10079C00DA43BB6813409BB2002B0CBF0123002330
:1007AC00DBB21A460CE0FB681B689B69DA43BB683A
:1007BC0013409BB2002B0CBF01230023DBB21A4663
:1007CC00FB799A4216D1FB6800221A63FB6820223F
:1007DC0083F83D20FB68002283F83E20FB681B6CED
:1007EC0043F02002FB681A64FB68002283F83C206B
:1007FC00012323E0BB681B0CDBB2012B0DD1FB6882
:10080C001B685B69DA43BB6813409BB2002B0CBFBF
:10081C0001230023DBB21A460CE0FB681B689B69C2
:10082C00DA43BB6813409BB2002B0CBF012300239F
:10083C00DBB21A46FB799A4293D000231846103744
:10084C00BD4680BD80B584B000AFF860B9607A60F9
:10085C003B6071E0FB681B685B6903F48063B3F574
:10086C00806F23D1FB681B681A68FB681B6842F415
:10087C0000721A60FB681B686FF480625A61FB6837
:10088C0000221A63FB68202283F83D20FB680022BB
:10089C0083F83E20FB681B6C43F00402FB681A646F
:1008AC00FB68002283F83C20012367E07B68B3F1EE
:1008BC00FF3F41D000F07CF902463B68D31A7A68BE
:1008CC009A4202D37B68002B36D1BB681B0CDBB27F
:1008DC00012B0CD1FB681B685B69DA43BB681340C6
:1008EC009BB2002B14BF01230023DBB20BE0FB688F
:1008FC001B689B69DA43BB6813409BB2002B14BF87
:10090C0001230023DBB2002B16D0FB6800221A63F4
:10091C00FB68202283F83D20FB68002283F83E20F0
:10092C00FB681B6C43F02002FB681A64FB68002216
:10093C0083F83C20012321E0BB681B0CDBB2012BAC
:10094C000CD1FB681B685B69DA43BB6813409BB234
:10095C00002B14BF01230023DBB20BE0FB681B68E8
:10096C009B69DA43BB6813409BB2002B14BF012375
:10097C000023DBB2002B7FF46DAF00231846103739
:10098C00BD4680BD80B584B000AFF860B9607A60B8
:10099C0034E0F86800F086F80346002B01D0012300
:1009AC0034E0BB68B3F1FF3F28D000F001F90246F8
:1009BC007B68D31ABA689A4202D3BB68002B1DD14C
:1009CC00FB681B685B6903F08003802B16D0FB6807
:1009DC0000221A63FB68202283F83D20FB6800226A
:1009EC0083F83E20FB681B6C43F02002FB681A6402
:1009FC00FB68002283F83C20012307E0FB681B689E
:100A0C005B6903F08003802BC3D100231846103799
:100A1C00BD4680BD80B584B000AFF860B9607A6027
:100A2C0034E0F86800F03EF80346002B01D00123B7
:100A3C0034E0BB68B3F1FF3F28D000F0B9F80246B0
:100A4C007B68D31ABA689A4202D3BB68002B1DD1BB
:100A5C00FB681B685B6903F00403042B16D0FB686E
:100A6C0000221A63FB68202283F83D20FB680022D9
:100A7C0083F83E20FB681B6C43F02002FB681A6471
:100A8C00FB68002283F83C20012307E0FB681B680D
:100A9C005B6903F00403042BC3D100231846103701
:100AAC00BD4680BD80B483B000AF78607B681B68A6
:100ABC005B6903F48063B3F5806F1BD17B681B68A3
:100ACC006FF480625A617B6800221A637B68202273
:100ADC0083F83D207B68002283F83E207B681B6CEA
:100AEC0043F004027B681A647B68002283F83C2084
:100AFC00012300E0002318460C37BD4680BC70472C
:100B0C0080B500AF084B1B68074A43F01003136015
:100B1C00032001F019F80F2000F008F803F036FE5E
:100B2C000023184680BD00BF0020024080B582B073
:100B3C0000AF7860124B1A68124B1B7819464FF4B1
:100B4C007A73B3FBF1F3B2FBF3F3184601F03FF801
:100B5C000346002B01D001230EE07B680F2B0AD833
:100B6C00002279684FF0FF3000F0F9FF064A7B68ED
:100B7C001360002300E0012318460837BD4680BDF2
:100B8C0000000020080000200400002080B400AF0A
:100B9C00054B1B781A46054B1B681344034A13601C
:100BAC0000BFBD4680BC704708000020C400002078
:100BBC0080B400AF024B1B681846BD4680BC704722
:100BCC00C400002080B584B000AF7860FFF7F0FF60
:100BDC00B8607B68FB60FB68B3F1FF3F05D00A4B44
:100BEC001B781A46FB681344FB6000BFFFF7E0FF5D
:100BFC000246BB68D31AFA689A42F7D800BF00BF06
:100C0C001037BD4680BD00BF0800002080B586B0FF
:100C1C0000AF78607B68002B01D1012372E27B6806
:100C2C001B6803F00103002B00F08780924B5B687C
:100C3C0003F00C03042B0CD08F4B5B6803F00C03FC
:100C4C00082B12D18C4B5B6803F48033B3F5803FD7
:100C5C000BD1894B1B6803F40033002B6CD07B68E1
:100C6C005B68002B68D101234CE27B685B68B3F5B1
:100C7C00803F06D1804B1B687F4A43F4803313605E
:100C8C002EE07B685B68002B0CD17B4B1B687A4A8F
:100C9C0023F480331360784B1B68774A23F480234A
:100CAC0013601DE07B685B68B3F5A02F0CD1724B11
:100CBC001B68714A43F4802313606F4B1B686E4AA8
:100CCC0043F4803313600BE06B4B1B686A4A23F4CC
:100CDC0080331360684B1B68674A23F480231360CE
:100CEC007B685B68002B13D0FFF762FF386108E06C
:100CFC00FFF75EFF02463B69D31A642B01D903232D
:100D0C0000E25D4B1B6803F40033002BF0D014E0C1
:100D1C00FFF74EFF386108E0FFF74AFF02463B69D8
:100D2C00D31A642B01D90323ECE1534B1B6803F456
:100D3C000033002BF0D100E000BF7B681B6803F090
:100D4C000203002B63D04C4B5B6803F00C03002BAD
:100D5C000BD0494B5B6803F00C03082B1CD1464BA2
:100D6C005B6803F48033002B16D1434B1B6803F0F4
:100D7C000203002B05D07B681B69012B01D00123DA
:100D8C00C0E13D4B1B6823F0F8027B685B69DB001C
:100D9C00394913430B603AE07B681B69002B20D068
:100DAC00364B01221A60FFF703FF386108E0FFF7AA
:100DBC00FFFE02463B69D31A022B01D90323A1E1A2
:100DCC002D4B1B6803F00203002BF0D02A4B1B6841
:100DDC0023F0F8027B685B69DB00274913430B6047
:100DEC0015E0264B00221A60FFF7E2FE386108E09E
:100DFC00FFF7DEFE02463B69D31A022B01D903230F
:100E0C0080E11D4B1B6803F00203002BF0D17B68C3
:100E1C001B6803F00803002B3AD07B689B69002BFE
:100E2C0019D0174B01221A60FFF7C2FE386108E097
:100E3C00FFF7BEFE02463B69D31A022B01D90323EE
:100E4C0060E10D4B5B6A03F00203002BF0D0012034
:100E5C0000F0CEFA1CE00A4B00221A60FFF7A8FE45
:100E6C0038610FE0FFF7A4FE02463B69D31A022B50
:100E7C0008D9032346E100BF0010024000004242A3
:100E8C0080044242924B5B6A03F00203002BE9D1CF
:100E9C007B681B6803F00403002B00F0A680002382
:100EAC00FB758B4BDB6903F08053002B0DD1884B0A
:100EBC00DB69874A43F08053D361854BDB6903F0D0
:100ECC008053BB60BB680123FB75824B1B6803F42A
:100EDC008073002B18D17F4B1B687E4A43F48073C0
:100EEC001360FFF765FE386108E0FFF761FE02460C
:100EFC003B69D31A642B01D9032303E1754B1B689F
:100F0C0003F48073002BF0D07B68DB68012B06D1D7
:100F1C006F4B1B6A6E4A43F0010313622DE07B6832
:100F2C00DB68002B0CD16A4B1B6A694A23F0010366
:100F3C001362674B1B6A664A23F0040313621CE0BE
:100F4C007B68DB68052B0CD1614B1B6A604A43F054
:100F5C00040313625E4B1B6A5D4A43F00103136288
:100F6C000BE05B4B1B6A5A4A23F001031362584B8C
:100F7C001B6A574A23F0040313627B68DB68002B5F
:100F8C0015D0FFF715FE38610AE0FFF711FE024697
:100F9C003B69D31A41F28832934201D90323B1E061
:100FAC004B4B1B6A03F00203002BEED014E0FFF74F
:100FBC00FFFD38610AE0FFF7FBFD02463B69D31ADF
:100FCC0041F28832934201D903239BE0404B1B6AC8
:100FDC0003F00203002BEED1FB7D012B05D13C4B22
:100FEC00DB693B4A23F08053D3617B68DB69002BC0
:100FFC0000F08780364B5B6803F00C03082B61D044
:10100C007B68DB69022B46D1334B00221A60FFF759
:10101C00CFFD386108E0FFF7CBFD02463B69D31AE0
:10102C00022B01D903236DE0294B1B6803F00073DD
:10103C00002BF0D17B681B6AB3F5803F08D1244BA1
:10104C005B6823F400327B689B68214913434B6037
:10105C001F4B5B6823F474127B68196A7B685B6AAC
:10106C000B431B4913434B601B4B01221A60FFF7C8
:10107C009FFD386108E0FFF79BFD02463B69D31AE0
:10108C00022B01D903233DE0114B1B6803F00073C5
:10109C00002BF0D035E0104B00221A60FFF788FDD2
:1010AC00386108E0FFF784FD02463B69D31A022B36
:1010BC0001D9032326E0064B1B6803F00073002BB9
:1010CC00F0D11EE07B68DB69012B07D1012319E00D
:1010DC000010024000700040600042420B4B5B6805
:1010EC00FB60FB6803F480327B681B6A9A4206D172
:1010FC00FB6803F470127B685B6A9A4201D001238F
:10110C0000E0002318461837BD4680BD0010024091
:10111C0080B584B000AF786039607B68002B01D15A
:10112C000123D0E06A4B1B6803F007033A689A422C
:10113C0010D9674B1B6823F0070265493B681343C2
:10114C000B60634B1B6803F007033A689A4201D0AB
:10115C000123B8E07B681B6803F00203002B20D04E
:10116C007B681B6803F00403002B05D0594B5B68AC
:10117C00584A43F4E06353607B681B6803F0080330
:10118C00002B05D0534B5B68524A43F460535360B9
:10119C00504B5B6823F0F0027B689B684D4913430E
:1011AC004B607B681B6803F00103002B40D07B680D
:1011BC005B68012B07D1474B1B6803F40033002BF2
:1011CC0015D101237FE07B685B68022B07D1414B73
:1011DC001B6803F00073002B09D1012373E03D4B16
:1011EC001B6803F00203002B01D101236BE0394B88
:1011FC005B6823F003027B685B68364913434B60E2
:10120C00FFF7D6FCF8600AE0FFF7D2FC0246FB6859
:10121C00D31A41F28832934201D9032353E02D4B68
:10122C005B6803F00C027B685B689B009A42EBD115
:10123C00274B1B6803F007033A689A4210D2244BE1
:10124C001B6823F0070222493B6813430B60204BB9
:10125C001B6803F007033A689A4201D0012332E07D
:10126C007B681B6803F00403002B08D0194B5B68E8
:10127C0023F4E0627B68DB68164913434B607B68A0
:10128C001B6803F00803002B09D0124B5B6823F496
:10129C0060527B681B69DB000E4913434B6000F006
:1012AC0021F802460B4B5B681B0903F00F030A493C
:1012BC00CB5C22FA03F3094A1360094B1B681846EE
:1012CC00FFF734FC002318461037BD4680BD00BF25
:1012DC000020024000100240F489000800000020A9
:1012EC000400002080B487B000AF0023FB60002313
:1012FC00BB6000237B6100237B6000233B611E4BA2
:10130C005B68FB60FB6803F00C03042B02D0082B1A
:10131C0003D027E0194B3B6127E0FB689B0C03F0E3
:10132C000F03174AD35C7B60FB6803F48033002BFC
:10133C0010D0114B5B685B0C03F00103114AD35CBA
:10134C00BB607B680D4A03FB02F2BB68B2FBF3F394
:10135C007B6104E07B680C4A02FB03F37B617B69D5
:10136C003B6102E0054B3B6100BF3B6918461C37F3
:10137C00BD4680BC704700BF0010024000127A00CE
:10138C000C8A00081C8A000800093D0080B400AFDC
:10139C00024B1B681846BD4680BC704700000020FD
:1013AC0080B500AFFFF7F2FF0246054B5B681B0AE6
:1013BC0003F007030349CB5C22FA03F3184680BD04
:1013CC0000100240048A000880B500AFFFF7DEFF72
:1013DC000246054B5B68DB0A03F007030349CB5C51
:1013EC0022FA03F3184680BD00100240048A00085C
:1013FC0080B485B000AF78600A4B1B680A4AA2FB28
:10140C0003235B0A7A6802FB03F3FB6000BFFB68F3
:10141C005A1EFA60002BF9D100BF00BF1437BD462D
:10142C0080BC704700000020D34D621080B48BB09C
:10143C0000AF7860396000237B6200233B6269E176
:10144C0001227B6A02FA03F3FB613B681B68FA69B1
:10145C001340BB61BA69FB699A4240F058813B6802
:10146C005B689A4A93425ED0984A934275D8984AE0
:10147C00934258D0964A93426FD8964A934252D090
:10148C00944A934269D8944A93424CD0924A9342DC
:10149C0063D8924A934246D0904A93425DD8122B1D
:1014AC002AD8122B59D801A252F823F03315000870
:1014BC000D1500081F1500086115000867150008B8
:1014CC006715000867150008671500086715000800
:1014DC0067150008671500086715000867150008F0
:1014EC0067150008671500086715000867150008E0
:1014FC001515000829150008794A934213D02CE0E1
:10150C003B68DB683B6229E03B68DB6804333B6289
:10151C0024E03B68DB6808333B621FE03B68DB6818
:10152C000C333B621AE03B689B68002B02D104230E
:10153C003B6213E03B689B68012B05D108233B629F
:10154C007B68FA691A6109E008233B627B68FA69D7
:10155C005A6103E000233B6200E000BFBB69FF2B34
:10156C0001D87B6801E07B6804337B61BB69FF2B8E
:10157C0002D87B6A9B0002E07B6A083B9B003B61C4
:10158C007B691A680F213B6901FA03F3DB431A40AC
:10159C00396A3B6901FA03F31A437B691A603B68A9
:1015AC005B6803F08053002B00F0B1804D4B9B69BE
:1015BC004C4A43F0010393614A4B9B6903F00103CE
:1015CC00BB60BB68484A7B6A9B08023352F82330E5
:1015DC00FB607B6A03F003039B000F2202FA03F308
:1015EC00DB43FA681340FB607B68404A934213D09C
:1015FC007B683F4A93420DD07B683E4A934207D0AA
:10160C007B683D4A934201D1032306E0042304E0A6
:10161C00022302E0012300E000237A6A02F00302B5
:10162C0092009340FA681343FB602F497B6A9B0836
:10163C000233FA6841F823203B685B6803F480139B
:10164C00002B06D02D4B9A682C49BB6913438B6039
:10165C0006E02A4B9A68BB69DB43284913408B6030
:10166C003B685B6803F40013002B06D0234BDA684D
:10167C002249BB691343CB6006E0204BDA68BB6997
:10168C00DB431E491340CB603B685B6803F40033BB
:10169C00002B06D0194B5A681849BB6913434B6091
:1016AC0006E0164B5A68BB69DB43144913404B6088
:1016BC003B685B6803F48033002B21D00F4B1A6816
:1016CC000E49BB6913430B6021E000BF00003210D0
:1016DC000000311000002210000021100000121038
:1016EC0000001110001002400000014000080140F1
:1016FC00000C0140001001400014014000040140A6
:10170C000B4B1A68BB69DB43094913400B607B6ABE
:10171C0001337B623B681A687B6A22FA03F3002B65
:10172C007FF48EAE00BF00BF2C37BD4680BC704727
:10173C000004014080B485B000AF78600B467B801C
:10174C007B689A687B881340002B02D00123FB73C3
:10175C0001E00023FB73FB7B18461437BD4680BCAD
:10176C00704780B483B000AF78600B467B80134623
:10177C007B707B78002B03D07A887B681A6103E03E
:10178C007B881A047B681A6100BF0C37BD4680BC8D
:10179C007047000080B582B000AF0346FB80084B59
:1017AC005A69FB881340002B06D0054AFB8853610D
:1017BC00FB88184603F06CFD00BF0837BD4680BDA2
:1017CC000004014080B485B000AF78600023FB7347
:1017DC007B6893F82130DBB2022B08D07B680422A3
:1017EC009A637B68002283F82020012320E07B6829
:1017FC001B681A687B681B6822F00E021A607B68F3
:10180C001B681A687B681B6822F001021A607B68EF
:10181C001A6C7B68DB6B012101FA02F25A607B685F
:10182C00012283F821207B68002283F82020FB7B97
:10183C0018461437BD4680BC7047000080B584B094
:10184C0000AF78600023FB737B6893F82130DBB228
:10185C00022B05D07B6804229A630123FB7351E0B1
:10186C007B681B681A687B681B6822F00E021A6082
:10187C007B681B681A687B681B6822F001021A607F
:10188C007B681B68224A934229D07B681B68214ADB
:10189C00934222D07B681B681F4A93421AD07B6804
:1018AC001B681E4A934212D07B681B681C4A9342E9
:1018BC000AD07B681B681B4A934202D14FF48013F9
:1018CC000EE04FF080730BE04FF4803308E04FF4E0
:1018DC00805305E04FF4807302E0102300E00123F5
:1018EC00114A53607B68012283F821207B68002217
:1018FC0083F820207B685B6B002B03D07B685B6BD1
:10190C0078689847FB7B18461037BD4680BD00BFF2
:10191C00080002401C00024030000240440002401B
:10192C00580002406C0002400000024080B485B0B8
:10193C0000AF78607B6803F00703FB600C4BDB683F
:10194C00BB60BA684FF6FF031340BB60FB681A021A
:10195C00BB68134343F0BF6343F40033BB60044ADA
:10196C00BB68D36000BF1437BD4680BC704700BF56
:10197C0000ED00E080B400AF044BDB681B0A03F001
:10198C0007031846BD4680BC704700BF00ED00E061
:10199C0080B483B000AF0346FB7197F90730002B7E
:1019AC000BDBFB7903F01F02064997F907305B0943
:1019BC00012000FA02F241F8232000BF0C37BD468B
:1019CC0080BC704700E100E080B483B000AF0346F8
:1019DC00FB7197F90730002B12DBFB7903F01F0228
:1019EC000A4997F907305B09012000FA02F220330B
:1019FC0041F82320BFF34F8F00BFBFF36F8F00BFA1
:101A0C0000BF0C37BD4680BC704700BF00E100E052
:101A1C0080B483B000AF0346FB7197F90730002BFD
:101A2C000CDBFB7903F01F02074997F907305B09C0
:101A3C00012000FA02F2603341F8232000BF0C377A
:101A4C00BD4680BC704700BF00E100E080B483B0AD
:101A5C0000AF03463960FB7197F90730002B0ADBA6
:101A6C003B68DAB20C4997F907301201D2B20B4439
:101A7C0083F800230AE03B68DAB20849FB7903F0EB
:101A8C000F03043B1201D2B20B441A7600BF0C3781
:101A9C00BD4680BC704700BF00E100E000ED00E0F7
:101AAC0080B489B000AFF860B9607A60FB6803F06D
:101ABC000703FB61FB69C3F10703042B28BF042355
:101ACC00BB61FB690433062B02D9FB69033B00E0C5
:101ADC0000237B614FF0FF32BB6902FA03F3DA4358
:101AEC00BB681A407B699A404FF0FF317B6901FA61
:101AFC0003F3D9437B680B40134318462437BD4688
:101B0C0080BC704780B582B000AF78607B68013BC9
:101B1C00B3F1807F01D301230FE00A4A7B68013BBC
:101B2C0053600F214FF0FF30FFF790FF054B002261
:101B3C009A60044B07221A60002318460837BD46EA
:101B4C0080BD00BF10E000E080B582B000AF7860CF
:101B5C007868FFF7EBFE00BF0837BD4680BD80B547
:101B6C0086B000AF0346B9607A60FB7300237B61DB
:101B7C00FFF700FF78617A68B9687869FFF790FF22
:101B8C00024697F90F3011461846FFF75FFF00BF6A
:101B9C001837BD4680BD80B582B000AF0346FB71DF
:101BAC0097F907301846FFF7F3FE00BF0837BD461C
:101BBC0080BD80B582B000AF0346FB7197F907304A
:101BCC001846FFF701FF00BF0837BD4680BD80B542
:101BDC0082B000AF78607868FFF794FF0346184630
:101BEC000837BD4680BD80B582B000AF0346FB719F
:101BFC0097F907301846FFF70BFF00BF0837BD46B3
:101C0C0080BD0000F0B587B000AFF860B960C7E9DF
:101C1C0000230123FB750023BB7500237B752F4B21
:101C2C001B7E012B01D1022354E02C4B01221A768E
:101C3C004CF2503000F0A8F80346FB75FB7D002BEE
:101C4C0044D1FB68012B02D101237B7507E0FB68B3
:101C5C00022B02D102237B7501E004237B75002348
:101C6C00BB752DE0BB7D5A00BB6802EB030CBB7D42
:101C7C001901D7E90023C1F12006A1F1200022FAB5
:101C8C0001F403FA06F6344323FA00F0044323FA72
:101C9C0001F5A3B21946604600F05AF84CF25030E8
:101CAC0000F072F80346FB750D4B1B690C4A23F0D0
:101CBC0001031361FB7D002B07D1BB7D0133BB7589
:101CCC00BA7D7B7D9A42CDD300E000BF034B00224E
:101CDC001A76FB7D18461C37BD46F0BDC8000020A7
:101CEC000020024080B483B000AF0023FB710D4B89
:101CFC001B6903F08003002B0DD00A4B0A4A5A6073
:101D0C00084B0A4A5A60074B1B6903F08003002BEF
:101D1C0001D00123FB71FB7918460C37BD4680BC02
:101D2C00704700BF0020024023016745AB89EFCD0F
:101D3C0080B400AF054B1B69044A43F08003136168
:101D4C0000231846BD4680BC704700BF00200240EF
:101D5C0080B483B000AF78600B467B80084B0022C8
:101D6C00DA61084B1B69074A43F0010313617B6876
:101D7C007A881A8000BF0C37BD4680BC704700BF04
:101D8C00C80000200020024080B584B000AF78600D
:101D9C00FEF70EFFF86010E07B68B3F1FF3F0CD04C
:101DAC007B68002B07D0FEF703FF0246FB68D31AB3
:101DBC007A689A4201D2032325E0154BDB6803F0C5
:101DCC000103002BE8D1124BDB6803F02003002B3E
:101DDC0002D00F4B2022DA600D4BDB6803F01003AE
:101DEC00002B0BD10A4BDB6903F00103002B05D14F
:101DFC00074BDB6803F00403002B03D000F00AF858
:101E0C00012300E0002318461037BD4680BD00BFFB
:101E1C000020024080B483B000AF00237B60234BD2
:101E2C00DB6803F01003002B09D0214BDB6943F076
:101E3C0002031F4AD3617B6843F010037B601B4B8A
:101E4C00DB6803F00403002B09D0194BDB6943F06A
:101E5C000103174AD3617B6843F004037B60134B87
:101E6C00DB6903F00103002B0BD0114BDB6943F052
:101E7C0004030F4AD3610D4BDB690C4A23F00103B9
:101E8C00D3617B6840F20112934206D1074BDB69A8
:101E9C00064A23F00103D36102E0044A7B68D36055
:101EAC0000BF0C37BD4680BC704700BF002002400D
:101EBC00C800002080B584B000AF78603960012381
:101ECC00FB730023BB602F4B1B7E012B01D1022324
:101EDC0053E02C4B01221A767B681B68022B16D11F
:101EEC004CF25030FFF750FF0346002B41D101203C
:101EFC0000F04CF84CF25030FFF746FF0346FB73F2
:101F0C00214B1B69204A23F00403136131E04CF28E
:101F1C005030FFF739FF0346002B2AD13B684FF0B6
:101F2C00FF321A607B689B68BB6019E0B86800F0F0
:101F3C0049F84CF25030FFF727FF0346FB73124B66
:101F4C001B69114A23F002031361FB7B002B03D0A6
:101F5C003B68BA681A600CE0BB6803F58063BB6031
:101F6C007B68DB689A027B689B681344BA689A4268
:101F7C00DCD3044B00221A76FB7B18461037BD4687
:101F8C0080BD00BFC80000200020024080B483B098
:101F9C0000AF7860094B0022DA61094B1B69084AD3
:101FAC0043F004031361064B1B69054A43F04003DD
:101FBC00136100BF0C37BD4680BC7047C8000020C1
:101FCC000020024080B483B000AF78600B4B00223D
:101FDC00DA610B4B1B690A4A43F002031361084A8E
:101FEC007B685361064B1B69054A43F04003136140
:101FFC0000BF0C37BD4680BC704700BFC800002036
:10200C000020024080B582B000AF78607B68002B66
:10201C0001D1012376E07B685B6A002B08D17B68D9
:10202C005B68B3F5827F09D07B680022DA6105E03A
:10203C007B6800221A617B6800225A617B6800224F
:10204C009A627B6893F85130DBB2002B06D17B6827
:10205C00002283F85020786802F008FC7B6802228A
:10206C0083F851207B681B681A687B681B6822F018
:10207C0040021A607B685B6803F482727B689B6821
:10208C0003F404431A437B68DB6803F400631A43CC
:10209C007B681B6903F002031A437B685B6903F0DE
:1020AC0001031A437B689B6903F400731A437B6832
:1020BC00DB6903F038031A437B681B6A03F0800367
:1020CC0042EA03017B689B6A03F400527B681B683D
:1020DC000A431A607B689B691A0C7B681B6802F0C8
:1020EC0004025A607B681B68DA697B681B6822F4FF
:1020FC000062DA617B6800225A657B68012283F8F2
:10210C005120002318460837BD4680BD80B588B0E5
:10211C0000AFF860B9603B601346FB80FEF748FDEA
:10212C00F861FB887B83FB6893F85130DBB2012BA1
:10213C0001D002232AE1BB68002B02D0FB88002BC4
:10214C0001D1012322E1FB6893F85030012B01D11E
:10215C0002231BE1FB68012283F85020FB68032259
:10216C0083F85120FB6800225A65FB68BA681A6331
:10217C00FB68FA889A86FB68FA88DA86FB68002284
:10218C009A63FB6800229A87FB680022DA87FB6857
:10219C0000225A64FB6800221A64FB689B68B3F542
:1021AC00004F0FD1FB681B681A68FB681B6822F094
:1021BC0040021A60FB681B681A68FB681B6842F4D3
:1021CC0080421A60FB681B681B6803F04003402BBD
:1021DC0007D0FB681B681A68FB681B6842F040025A
:1021EC001A60FB68DB68B3F5006F52D1FB685B6863
:1021FC00002B02D07B8B012B45D1FB681B6B1A8803
:10220C00FB681B68DA60FB681B6B9A1CFB681A6323
:10221C00FB68DB8E9BB2013B9AB2FB68DA8632E03C
:10222C00FB681B689B6803F00203022B12D1FB684E
:10223C001B6B1A88FB681B68DA60FB681B6B9A1CAB
:10224C00FB681A63FB68DB8E9BB2013B9AB2FB689E
:10225C00DA8618E0FEF7ACFC0246FB69D31A3A6842
:10226C009A4203D83B68B3F1FF3F02D13B68002B85
:10227C0009D1FB68012283F85120FB68002283F806
:10228C005020032382E0FB68DB8E9BB2002BC7D16E
:10229C0053E0FB685B68002B02D07B8B012B47D192
:1022AC00FB681A6BFB681B680C3312781A70FB689E
:1022BC001B6B5A1CFB681A63FB68DB8E9BB2013BE1
:1022CC009AB2FB68DA8633E0FB681B689B6803F004
:1022DC000203022B13D1FB681A6BFB681B680C33CF
:1022EC0012781A70FB681B6B5A1CFB681A63FB682C
:1022FC00DB8E9BB2013B9AB2FB68DA8618E0FEF7E4
:10230C0057FC0246FB69D31A3A689A4203D83B68D9
:10231C00B3F1FF3F02D13B68002B09D1FB680122CE
:10232C0083F85120FB68002283F8502003232DE012
:10233C00FB68DB8E9BB2002BC6D1FA693968F86852
:10234C0000F05AFA0346002B02D0FB6820225A6593
:10235C00FB689B68002B0AD100237B61FB681B6820
:10236C00DB687B61FB681B689B687B617B69FB6836
:10237C00012283F85120FB68002283F85020FB686F
:10238C005B6D002B01D0012300E0002318462037A1
:10239C00BD4680BD80B58AB000AFF860B9607A6088
:1023AC007B8001237B62FEF703FC3862FB6893F8A9
:1023BC005130FB77FB685B68BB617B88FB82FB7FE2
:1023CC00012B0CD0BB69B3F5827F06D1FB689B68EF
:1023DC00002B02D1FB7F042B01D002237FE1BB68D1
:1023EC00002B05D07B68002B02D07B88002B01D101
:1023FC00012374E1FB6893F85030012B01D10223C7
:10240C006DE1FB68012283F85020FB6893F8513092
:10241C00DBB2042B03D0FB68052283F85120FB6848
:10242C0000225A65FB687A689A63FB687A88DA87B7
:10243C00FB687A889A87FB68BA681A63FB687A88A3
:10244C00DA86FB687A889A86FB6800221A64FB6835
:10245C0000225A64FB681B681B6803F04003402B86
:10246C0007D0FB681B681A68FB681B6842F04002C7
:10247C001A60FB68DB68B3F5006F7ED1FB685B68A4
:10248C00002B02D0FB8A012B6CD1FB681B6B1A88CA
:10249C00FB681B68DA60FB681B6B9A1CFB681A6391
:1024AC00FB68DB8E9BB2013B9AB2FB68DA8659E083
:1024BC00FB681B689B6803F00203022B1BD1FB68B3
:1024CC00DB8E9BB2002B16D07B6A012B13D1FB68E1
:1024DC001B6B1A88FB681B68DA60FB681B6B9A1C09
:1024EC00FB681A63FB68DB8E9BB2013B9AB2FB68FC
:1024FC00DA8600237B62FB681B689B6803F0010390
:10250C00012B19D1FB68DB8F9BB2002B14D0FB681D
:10251C001B68DA68FB689B6B92B21A80FB689B6B3A
:10252C009A1CFB689A63FB68DB8F9BB2013B9AB2E7
:10253C00FB68DA8701237B62FEF73AFB02463B6AB3
:10254C00D31A3A6B9A420DD83B6BB3F1FF3F09D0CB
:10255C00FB68012283F85120FB68002283F850208D
:10256C000323BCE0FB68DB8E9BB2002BA0D1FB6885
:10257C00DB8F9BB2002B9BD182E0FB685B68002B4E
:10258C0002D0FB8A012B71D1FB681A6BFB681B68AC
:10259C000C3312781A70FB681B6B5A1CFB681A639D
:1025AC00FB68DB8E9BB2013B9AB2FB68DA865DE07E
:1025BC00FB681B689B6803F00203022B1CD1FB68B1
:1025CC00DB8E9BB2002B17D07B6A012B14D1FB68DE
:1025DC001A6BFB681B680C3312781A70FB681B6B48
:1025EC005A1CFB681A63FB68DB8E9BB2013B9AB2E8
:1025FC00FB68DA8600237B62FB681B689B6803F030
:10260C000103012B19D1FB68DB8F9BB2002B14D07B
:10261C00FB681B68DA68FB689B6BD2B21A70FB68AC
:10262C009B6B5A1CFB689A63FB68DB8F9BB2013B6C
:10263C009AB2FB68DA8701237B62FEF7B9FA02468D
:10264C003B6AD31A3A6B9A4203D83B6BB3F1FF3F08
:10265C0002D13B6B002B09D1FB68012283F851207E
:10266C00FB68002283F85020032338E0FB68DB8EE4
:10267C009BB2002B9CD1FB68DB8F9BB2002B97D1BC
:10268C003A6A396BF86800F0B7F80346002B08D0AB
:10269C00FB6820225A65FB68002283F85020012336
:1026AC001DE0FB689B68002B0AD100233B61FB6893
:1026BC001B68DB683B61FB681B689B683B613B6983
:1026CC00FB68012283F85120FB68002283F850201C
:1026DC00FB685B6D002B01D0012300E00023184642
:1026EC002837BD4680BD000080B588B000AFF860CB
:1026FC00B9603B601346FB71FEF75AFA0246BB6A9F
:10270C009B1A3A681344FB61FEF752FAB861394BD5
:10271C001B685B011B0DFA6902FB03F37B6154E040
:10272C003B68B3F1FF3F50D0FEF742FA0246BB695B
:10273C00D31AFA699A4202D9FB69002B3DD1FB6886
:10274C001B685A68FB681B6822F0E0025A60FB6841
:10275C005B68B3F5827F11D1FB689B68B3F5004FC2
:10276C0004D0FB689B68B3F5806F07D1FB681B68CE
:10277C001A68FB681B6822F040021A60FB689B6AAF
:10278C00B3F5005F0FD1FB681B681A68FB681B6808
:10279C0022F400521A60FB681B681A68FB681B68FD
:1027AC0042F400521A60FB68012283F85120FB6846
:1027BC00002283F85020032317E07B69002B01D102
:1027CC000023FB617B69013B7B61FB681B689A689A
:1027DC00BB681340BA689A420CBF01230023DBB2DA
:1027EC001A46FB799A429BD1002318462037BD46E6
:1027FC0080BD00BF0000002080B586B002AFF8603D
:10280C00B9607A607B680093BB6801220221F8688A
:10281C00FFF76AFF0346002B07D0FB685B6D43F0A4
:10282C002002FB685A65032313E07B680093BB68A6
:10283C0000228021F868FFF757FF0346002B07D0D2
:10284C00FB685B6D43F02002FB685A65032300E0D4
:10285C00002318461037BD4680BD80B582B000AF4E
:10286C0078607B68002B01D1012341E07B6893F8F1
:10287C003D30DBB2002B06D17B68002283F83C2074
:10288C00786802F03DF87B68022283F83D207B6873
:10289C001A687B6804331946104600F0CDFB7B6840
:1028AC00012283F846207B68012283F83E207B6856
:1028BC00012283F83F207B68012283F840207B684B
:1028CC00012283F841207B68012283F842207B6837
:1028DC00012283F843207B68012283F844207B6823
:1028EC00012283F845207B68012283F83D200023D8
:1028FC0018460837BD4680BD80B582B000AF786001
:10290C007B68002B01D1012341E07B6893F83D30BB
:10291C00DBB2002B06D17B68002283F83C20786860
:10292C0000F039F87B68022283F83D207B681A6836
:10293C007B6804331946104600F07EFB7B6801224D
:10294C0083F846207B68012283F83E207B680122B5
:10295C0083F83F207B68012283F840207B680122AA
:10296C0083F841207B68012283F842207B68012296
:10297C0083F843207B68012283F844207B68012282
:10298C0083F845207B68012283F83D2000231846FC
:10299C000837BD4680BD80B483B000AF786000BFFF
:1029AC000C37BD4680BC704780B584B000AF7860F2
:1029BC0039603B68002B09D17B6893F83E30DBB261
:1029CC00012B14BF01230023DBB222E03B68042B54
:1029DC0009D17B6893F83F30DBB2012B14BF012384
:1029EC000023DBB215E03B68082B09D17B6893F818
:1029FC004030DBB2012B14BF01230023DBB208E013
:102A0C007B6893F84130DBB2012B14BF0123002308
:102A1C00DBB2002B01D001235EE03B68002B04D11C
:102A2C007B68022283F83E2013E03B68042B04D120
:102A3C007B68022283F83F200BE03B68082B04D113
:102A4C007B68022283F8402003E07B68022283F833
:102A5C0041207B681B6801223968184600F078FD1C
:102A6C007B681B681E4A934207D17B681B685A6CB3
:102A7C007B681B6842F400425A647B681B68184AE6
:102A8C0093420ED07B681B68B3F1804F09D07B68F2
:102A9C001B68144A934204D07B681B68124A934209
:102AAC0011D17B681B689B6803F00703FB60FB6814
:102ABC00062B10D07B681B681A687B681B6842F079
:102ACC0001021A6007E07B681B681A687B681B6848
:102ADC0042F001021A60002318461037BD4680BD33
:102AEC00002C0140000400400008004080B584B078
:102AFC0000AF78607B681B68DB68FB607B681B68D9
:102B0C001B69BB60BB6803F00203002B20D0FB6881
:102B1C0003F00203002B1BD07B681B686FF00202D2
:102B2C001A617B6801221A777B681B689B6903F02A
:102B3C000303002B03D0786800F063FA05E0786893
:102B4C0000F056FA786800F065FA7B6800221A7774
:102B5C00BB6803F00403002B20D0FB6803F00403D4
:102B6C00002B1BD07B681B686FF004021A617B681A
:102B7C0002221A777B681B689B6903F44073002B55
:102B8C0003D0786800F03DFA05E0786800F030FA80
:102B9C00786800F03FFA7B6800221A77BB6803F074
:102BAC000803002B20D0FB6803F00803002B1BD07C
:102BBC007B681B686FF008021A617B6804221A7725
:102BCC007B681B68DB6903F00303002B03D0786878
:102BDC0000F017FA05E0786800F00AFA786800F05F
:102BEC0019FA7B6800221A77BB6803F01003002BDC
:102BFC0020D0FB6803F01003002B1BD07B681B68F4
:102C0C006FF010021A617B6808221A777B681B68C8
:102C1C00DB6903F44073002B03D0786800F0F1F902
:102C2C0005E0786800F0E4F9786800F0F3F97B6867
:102C3C0000221A77BB6803F00103002B0CD0FB6851
:102C4C0003F00103002B07D07B681B686FF00102B7
:102C5C001A61786800F0C3F9BB6803F08003002B9D
:102C6C000CD0FB6803F08003002B07D07B681B683B
:102C7C006FF080021A61786800F0F5FCBB6803F015
:102C8C004003002B0CD0FB6803F04003002B07D053
:102C9C007B681B686FF040021A61786800F0C3F91A
:102CAC00BB6803F02003002B0CD0FB6803F020035F
:102CBC00002B07D07B681B686FF020021A617868C4
:102CCC0000F0C8FC00BF1037BD4680BD80B586B093
:102CDC0000AFF860B9607A600023FB75FB6893F86D
:102CEC003C30012B01D10223AEE0FB68012283F8BA
:102CFC003C207B680C2B00F29F8001A252F823F041
:102D0C00412D0008452E0008452E0008452E0008D0
:102D1C00812D0008452E0008452E0008452E000880
:102D2C00C32D0008452E0008452E0008452E00082E
:102D3C00032E0008FB681B68B968184600F0EAF916
:102D4C00FB681B689A69FB681B6842F008029A6171
:102D5C00FB681B689A69FB681B6822F004029A6185
:102D6C00FB681B689969BB681A69FB681B680A4396
:102D7C009A6164E0FB681B68B968184600F030FA89
:102D8C00FB681B689A69FB681B6842F400629A61D5
:102D9C00FB681B689A69FB681B6822F480629A6165
:102DAC00FB681B689969BB681B691A02FB681B6886
:102DBC000A439A6143E0FB681B68B968184600F047
:102DCC0079FAFB681B68DA69FB681B6842F0080239
:102DDC00DA61FB681B68DA69FB681B6822F0040285
:102DEC00DA61FB681B68D969BB681A69FB681B68E8
:102DFC000A43DA6123E0FB681B68B968184600F0E7
:102E0C00C3FAFB681B68DA69FB681B6842F4006252
:102E1C00DA61FB681B68DA69FB681B6822F4806264
:102E2C00DA61FB681B68D969BB681B691A02FB680D
:102E3C001B680A43DA6102E00123FB7500BFFB68E3
:102E4C00002283F83C20FB7D18461837BD4680BD18
:102E5C0080B584B000AF786039600023FB737B6869
:102E6C0093F83C30012B01D10223B4E07B680122A2
:102E7C0083F83C207B68022283F83D207B681B682A
:102E8C009B68BB60BB6823F07703BB60BB6823F413
:102E9C007F43BB607B681B68BA689A603B681B68A1
:102EAC00B3F5005F3ED0B3F5005F00F28780B3F559
:102EBC00805F00F08680B3F5805F7FD8702B1AD0CE
:102ECC00702B7BD8602B50D0602B77D8502B3CD0FC
:102EDC00502B73D8402B58D0402B6FD8302B64D04C
:102EEC00302B6BD8202B60D0202B67D8002B5CD0DC
:102EFC00102B5AD062E07B6818683B6899683B6875
:102F0C005A683B68DB6800F004FB7B681B689B68B5
:102F1C00BB60BB6843F07703BB607B681B68BA6817
:102F2C009A604FE07B6818683B6899683B685A6800
:102F3C003B68DB6800F0EDFA7B681B689A687B687D
:102F4C001B6842F480429A603CE07B6818683B68DE
:102F5C0059683B68DB681A4600F064FA7B681B68AA
:102F6C005021184600F0BBFA2CE07B6818683B68CF
:102F7C0059683B68DB681A4600F082FA7B681B686C
:102F8C006021184600F0ABFA1CE07B6818683B68BF
:102F9C0059683B68DB681A4600F044FA7B681B688A
:102FAC004021184600F09BFA0CE07B681A683B68DD
:102FBC001B681946104600F092FA03E00123FB73DC
:102FCC0000E000BF7B68012283F83D207B68002273
:102FDC0083F83C20FB7B18461037BD4680BD80B47F
:102FEC0083B000AF786000BF0C37BD4680BC704723
:102FFC0080B483B000AF786000BF0C37BD4680BC96
:10300C00704780B483B000AF786000BF0C37BD460A
:10301C0080BC704780B483B000AF786000BF0C37C1
:10302C00BD4680BC704780B483B000AF786000BFF1
:10303C000C37BD4680BC704780B485B000AF78605B
:10304C0039607B681B68FB607B682F4A93420BD00E
:10305C007B68B3F1804F07D07B682C4A934203D036
:10306C007B682B4A934208D1FB6823F07003FB600A
:10307C003B685B68FA681343FB607B68224A9342A7
:10308C000BD07B68B3F1804F07D07B681F4A93420B
:10309C0003D07B681E4A934208D1FB6823F440732B
:1030AC00FB603B68DB68FA681343FB60FB6823F04A
:1030BC0080023B685B691343FB607B68FA681A60AB
:1030CC003B689A687B68DA623B681A687B689A622C
:1030DC007B680D4A934203D13B681A697B681A637B
:1030EC007B6801225A617B681B6903F00103002B8A
:1030FC0005D07B681B6923F001027B681A6100BF55
:10310C001437BD4680BC7047002C014000040040C1
:10311C000008004080B487B000AF786039607B68ED
:10312C001B6A7B617B681B6A23F001027B681A6255
:10313C007B685B683B617B689B69FB60FB6823F089
:10314C007003FB60FB6823F00303FB603B681B68A8
:10315C00FA681343FB607B6923F002037B613B68D5
:10316C009B687A6913437B617B681C4A93420CD140
:10317C007B6923F008037B613B68DB687A69134346
:10318C007B617B6923F004037B617B68134A934268
:10319C0011D13B6923F480733B613B6923F40073C9
:1031AC003B613B685B693A6913433B613B689B69D4
:1031BC003A6913433B617B683A695A607B68FA68E9
:1031CC009A613B685A687B685A637B687A691A62B1
:1031DC0000BF1C37BD4680BC704700BF002C0140AF
:1031EC0080B487B000AF786039607B681B6A7B6104
:1031FC007B681B6A23F010027B681A627B685B6831
:10320C003B617B689B69FB60FB6823F4E043FB60DC
:10321C00FB6823F44073FB603B681B681B02FA6875
:10322C001343FB607B6923F020037B613B689B6845
:10323C001B017A6913437B617B681D4A93420DD154
:10324C007B6923F080037B613B68DB681B017A6937
:10325C0013437B617B6923F040037B617B68144AD9
:10326C00934213D13B6923F480633B613B6923F4A4
:10327C0000633B613B685B699B003A6913433B61AC
:10328C003B689B699B003A6913433B617B683A69D5
:10329C005A607B68FA689A613B685A687B689A63E3
:1032AC007B687A691A6200BF1C37BD4680BC7047C8
:1032BC00002C014080B487B000AF786039607B6827
:1032CC001B6A7B617B681B6A23F480727B681A62C1
:1032DC007B685B683B617B68DB69FB60FB6823F0A8
:1032EC007003FB60FB6823F00303FB603B681B6807
:1032FC00FA681343FB607B6923F400737B613B68C2
:10330C009B681B027A6913437B617B681D4A93425D
:10331C000DD17B6923F400637B613B68DB681B0286
:10332C007A6913437B617B6923F480637B617B68DF
:10333C00144A934213D13B6923F480533B613B699C
:10334C0023F400533B613B685B691B013A691343EF
:10335C003B613B689B691B013A6913433B617B688A
:10336C003A695A607B68FA68DA613B685A687B682C
:10337C00DA637B687A691A6200BF1C37BD4680BC71
:10338C00704700BF002C014080B487B000AF78605C
:10339C0039607B681B6A3B617B681B6A23F4805233
:1033AC007B681A627B685B687B617B68DB69FB60AE
:1033BC00FB6823F4E043FB60FB6823F44073FB6081
:1033CC003B681B681B02FA681343FB603B6923F4E0
:1033DC0000533B613B689B681B033A6913433B6199
:1033EC007B680F4A934209D17B6923F480437B614C
:1033FC003B685B699B017A6913437B617B687A69E3
:10340C005A607B68FA68DA613B685A687B681A64B0
:10341C007B683A691A6200BF1C37BD4680BC704796
:10342C00002C014080B487B000AFF860B9607A60BE
:10343C00FB681B6A7B61FB681B6A23F00102FB685B
:10344C001A62FB689B693B613B6923F0F0033B61AB
:10345C007B681B013A6913433B617B6923F00A03C8
:10346C007B617A69BB6813437B61FB683A699A613B
:10347C00FB687A691A6200BF1C37BD4680BC704776
:10348C0080B487B000AFF860B9607A60FB681B6AE3
:10349C007B61FB681B6A23F01002FB681A62FB68F5
:1034AC009B693B613B6923F470433B617B681B0365
:1034BC003A6913433B617B6923F0A0037B61BB68D2
:1034CC001B017A6913437B61FB683A699A61FB685B
:1034DC007A691A6200BF1C37BD4680BC704780B445
:1034EC0085B000AF786039607B689B68FB60FB68D7
:1034FC0023F07003FB603A68FB68134343F0070347
:10350C00FB607B68FA689A6000BF1437BD4680BCCC
:10351C00704780B487B000AFF860B9607A603B60E8
:10352C00FB689B687B617B6923F47F437B613B6811
:10353C001A027B681A43BB6813437A6913437B6195
:10354C00FB687A699A6000BF1C37BD4680BC704727
:10355C0080B487B000AFF860B9607A60BB6803F0E4
:10356C001F03012202FA03F37B61FB681A6A7B6971
:10357C00DB431A40FB681A62FB681A6ABB6803F0EB
:10358C001F03796801FA03F31A43FB681A6200BF40
:10359C001C37BD4680BC704780B485B000AF7860E6
:1035AC0039607B6893F83C30012B01D1022346E053
:1035BC007B68012283F83C207B68022283F83D2043
:1035CC007B681B685B68FB607B681B689B68BB60E7
:1035DC00FB6823F07003FB603B681B68FA681343BD
:1035EC00FB607B681B68FA685A607B681B68164A2C
:1035FC0093420ED07B681B68B3F1804F09D07B6877
:10360C001B68124A934204D07B681B68104A934291
:10361C000CD1BB6823F08003BB603B685B68BA6865
:10362C001343BB607B681B68BA689A607B68012295
:10363C0083F83D207B68002283F83C200023184649
:10364C001437BD4680BC7047002C0140000400407C
:10365C000008004080B483B000AF786000BF0C3726
:10366C00BD4680BC704780B483B000AF786000BFAB
:10367C000C37BD4680BC704780B582B000AF786017
:10368C007B68002B01D1012342E07B6893F8413029
:10369C00DBB2002B06D17B68002283F840207868CF
:1036AC0001F082F97B68242283F841207B681B6837
:1036BC00DA687B681B6822F40052DA60786800F0E4
:1036CC0063FD7B681B681A697B681B6822F4904257
:1036DC001A617B681B685A697B681B6822F02A0296
:1036EC005A617B681B68DA687B681B6842F400527D
:1036FC00DA607B6800225A647B68202283F84120C0
:10370C007B68202283F842207B6800225A630023C6
:10371C0018460837BD4680BD80B58AB002AFF86048
:10372C00B9603B601346FB8000237B61FB6893F818
:10373C004130DBB2202B75D1BB68002B02D0FB884B
:10374C00002B01D101236EE0FB6800225A64FB6858
:10375C00212283F84120FDF72BFA7861FB68FA8867
:10376C009A84FB68FA88DA84FB689B68B3F5805FFF
:10377C0008D1FB681B69002B04D10023FB61BB68DB
:10378C00BB6103E0BB68FB610023BB612EE03B68BF
:10379C0000937B6900228021F86800F001FB03464E
:1037AC00002B05D0FB68202283F8412003233AE04C
:1037BC00FB69002B0BD1BB691B881A46FB681B6885
:1037CC00C2F308025A60BB690233BB6107E0FB69B4
:1037DC001A78FB681B685A60FB690133FB61FB6854
:1037EC00DB8C9BB2013B9AB2FB68DA84FB68DB8C06
:1037FC009BB2002BCBD13B6800937B69002240210C
:10380C00F86800F0CDFA0346002B05D0FB682022A7
:10381C0083F84120032306E0FB68202283F8412033
:10382C00002300E0022318462037BD4680BD00006F
:10383C0080B5BAB000AF78607B681B681B68C7F8AE
:10384C00E4307B681B68DB68C7F8E0307B681B687A
:10385C005B69C7F8DC300023C7F8D8300023C7F801
:10386C00D430D7F8E43003F00F03C7F8D830D7F8CA
:10387C00D830002B0FD1D7F8E43003F02003002B05
:10388C0009D0D7F8E03003F02003002B03D0786880
:10389C0000F0BCFB5BE2D7F8D830002B00F0DE80E8
:1038AC00D7F8DC3003F00103002B06D1D7F8E03059
:1038BC0003F49073002B00F0D180D7F8E43003F0C0
:1038CC000103002B0BD0D7F8E03003F48073002BEE
:1038DC0005D07B685B6C43F001027B685A64D7F8B7
:1038EC00E43003F00403002B0BD0D7F8DC3003F0EA
:1038FC000103002B05D07B685B6C43F002027B68F4
:10390C005A64D7F8E43003F00203002B0BD0D7F83D
:10391C00DC3003F00103002B05D07B685B6C43F0BB
:10392C0004027B685A64D7F8E43003F00803002BD8
:10393C0011D0D7F8E03003F02003002B05D1D7F8D5
:10394C00DC3003F00103002B05D07B685B6C43F08B
:10395C0008027B685A647B685B6C002B00F0F28178
:10396C00D7F8E43003F02003002B08D0D7F8E03070
:10397C0003F02003002B02D0786800F047FB7B6833
:10398C001B685B6903F04003002B14BF0123002369
:10399C00DBB2C7F8D4307B685B6C03F00803002BF8
:1039AC0003D1D7F8D430002B4FD0786800F051FAFF
:1039BC007B681B685B6903F04003002B41D07B687C
:1039CC001B681433C7F89C30D7F89C3053E8003F81
:1039DC00C7F89830D7F8983023F04003C7F8D030A8
:1039EC007B681B681433D7F8D020C7F8A820C7F819
:1039FC00A430D7F8A410D7F8A82041E80023C7F8C2
:103A0C00A030D7F8A030002BD9D17B68DB6B002B12
:103A1C0013D07B68DB6B7E4A5A637B68DB6B184682
:103A2C00FDF70CFF0346002B16D07B68DB6B5B6B42
:103A3C007A68D26B104698470EE0786800F09CF9D3
:103A4C000AE0786800F098F906E0786800F094F9DC
:103A5C007B6800225A6475E100BF73E17B681B6BC5
:103A6C00012B40F04F81D7F8E43003F01003002B0A
:103A7C0000F04881D7F8E03003F01003002B00F081
:103A8C0041810023BB607B681B681B68BB607B6843
:103A9C001B685B68BB60BB687B681B685B6903F079
:103AAC004003002B00F0B6807B68DB6B1B685B6807
:103ABC00A7F8BE30B7F8BE30002B00F045817B680C
:103ACC009B8DB7F8BE209A4280F03E817B68B7F898
:103ADC00BE20DA857B68DB6B9B69202B00F088802D
:103AEC007B681B680C33C7F88830D7F8883053E8EC
:103AFC00003FC7F88430D7F8843023F48073C7F8BC
:103B0C00B8307B681B680C33D7F8B820C7F8942002
:103B1C00C7F89030D7F89010D7F8942041E80023DC
:103B2C00C7F88C30D7F88C30002BD9D17B681B6848
:103B3C0014337B677B6F53E8003F3B673B6F23F08D
:103B4C000103C7F8B4307B681B681433D7F8B42072
:103B5C00C7F88020FB67F96FD7F8802041E8002375
:103B6C00BB67BB6F002BE1D17B681B6814333B66D2
:103B7C003B6E53E8003FFB65FB6D23F04003C7F839
:103B8C00B0307B681B681433D7F8B020FA66BB667C
:103B9C00B96EFA6E41E800237B667B6E002BE3D195
:103BAC007B68202283F842207B6800221A637B68A2
:103BBC001B680C33FB64FB6C53E8003FBB64BB6CB1
:103BCC0023F01003C7F8AC307B681B680C33D7F8B4
:103BDC00AC20BA657B65796DBA6D41E800233B6515
:103BEC003B6D002BE3D17B68DB6B1846FDF7EAFDE0
:103BFC007B6802225A637B689A8D7B68DB8D9BB253
:103C0C00D31A9BB21946786800F0BFF89CE000BF4D
:103C1C00233F00087B689A8D7B68DB8D9BB2D31A9F
:103C2C00A7F8CE307B68DB8D9BB2002B00F08E802A
:103C3C00B7F8CE30002B00F089807B681B680C3302
:103C4C00BB63BB6B53E8003F7B637B6B23F49073CC
:103C5C00C7F8C8307B681B680C33D7F8C8207A6467
:103C6C003B64396C7A6C41E80023FB63FB6B002BE3
:103C7C00E3D17B681B6814337B627B6A53E8003F9B
:103C8C003B623B6A23F00103C7F8C4307B681B68B6
:103C9C001433D7F8C4203A63FB62F96A3A6B41E8F3
:103CAC000023BB62BB6A002BE3D17B68202283F824
:103CBC0042207B6800221A637B681B680C333B61D3
:103CCC003B6953E8003FFB60FB6823F01003C7F827
:103CDC00C0307B681B680C33D7F8C020FA61BB611D
:103CEC00B969FA6941E800237B617B69002BE3D158
:103CFC007B6802225A63B7F8CE301946786800F018
:103D0C0044F823E0D7F8E43003F08003002B09D00B
:103D1C00D7F8E03003F08003002B03D0786800F074
:103D2C000EF914E0D7F8E43003F04003002B0ED06A
:103D3C00D7F8E03003F04003002B08D0786800F08F
:103D4C004DF904E000BF02E000BF00E000BFE8371F
:103D5C00BD4680BD80B483B000AF786000BF0C3727
:103D6C00BD4680BC704780B483B000AF786000BFA4
:103D7C000C37BD4680BC704780B483B000AF786010
:103D8C0000BF0C37BD4680BC704780B483B000AF19
:103D9C0078600B467B8000BF0C37BD4680BC7047FB
:103DAC0080B586B000AFF860B9603B601346FB711C
:103DBC003BE03B6AB3F1FF3F37D0FCF7F9FE02461C
:103DCC003B68D31A3A6A9A4202D33B6A002B01D160
:103DDC0003233AE0FB681B68DB6803F00403002B49
:103DEC0023D0BB68802B20D0BB68402B1DD0FB6838
:103DFC001B681B6803F00803082B16D100237B619A
:103E0C00FB681B681B687B61FB681B685B687B61DC
:103E1C007B69F86800F01DF8FB6808225A64FB689F
:103E2C00002283F8402001230FE0FB681B681A680E
:103E3C00BB681340BA689A420CBF01230023DBB263
:103E4C001A46FB799A42B4D0002318461837BD465F
:103E5C0080BD80B495B000AF78607B681B680C3374
:103E6C007B637B6B53E8003F3B633B6B23F49073AA
:103E7C00FB647B681B680C33FA6C3A64FB63F96B6C
:103E8C003A6C41E80023BB63BB6B002BE5D17B682C
:103E9C001B6814333B623B6A53E8003FFB61FB69D0
:103EAC0023F00103BB647B681B681433BA6CFA62A1
:103EBC00BB62B96AFA6A41E800237B627B6A002B19
:103ECC00E5D17B681B6B012B19D17B681B680C330C
:103EDC00FB60FB6853E8003FBB60BB6823F010033A
:103EEC007B647B681B680C337A6CBA617B61796983
:103EFC00BA6941E800233B613B69002BE5D17B6843
:103F0C00202283F842207B6800221A6300BF5437BA
:103F1C00BD4680BC704780B584B000AF78607B68CC
:103F2C005B6AFB60FB680022DA85FB680022DA849E
:103F3C00F868FFF721FF00BF1037BD4680BD80B485
:103F4C0085B000AF78607B6893F84130DBB2212BF1
:103F5C003ED17B689B68B3F5805F14D17B681B698D
:103F6C00002B10D17B681B6AFB60FB681B881A4610
:103F7C007B681B68C2F308025A607B681B6A9A1C38
:103F8C007B681A6208E07B681B6A591C7A681162AC
:103F9C001A787B681B685A607B68DB8C9BB2013B90
:103FAC009BB27A681946D184002B0FD17B681B68B1
:103FBC00DA687B681B6822F08002DA607B681B6819
:103FCC00DA687B681B6842F04002DA60002300E08C
:103FDC00022318461437BD4680BC704780B582B0AA
:103FEC0000AF78607B681B68DA687B681B6822F01E
:103FFC004002DA607B68202283F841207868FFF762
:10400C00A9FE002318460837BD4680BD80B58CB08C
:10401C0000AF78607B6893F84230DBB2222B40F023
:10402C00AE807B689B68B3F5805F17D17B681B699A
:10403C00002B13D10023FB627B689B6ABB627B68FD
:10404C001B685B689BB2C3F308039AB2BB6A1A8005
:10405C007B689B6A9A1C7B689A6226E07B689B6AE9
:10406C00FB620023BB627B689B68B3F5805F07D063
:10407C007B689B68002B0AD17B681B69002B06D1DF
:10408C007B681B685B68DAB2FB6A1A7008E07B68B5
:10409C001B685B68DBB203F07F03DAB2FB6A1A7051
:1040AC007B689B6A5A1C7B689A627B68DB8D9BB22F
:1040BC00013B9BB27A681946D185002B5DD17B6898
:1040CC001B68DA687B681B6822F02002DA607B6868
:1040DC001B68DA687B681B6822F48072DA607B6884
:1040EC001B685A697B681B6822F001025A617B6865
:1040FC00202283F842207B6800225A637B681B6B6A
:10410C00012B35D17B6800221A637B681B680C334A
:10411C007B617B6953E8003F3B613B6923F01003F3
:10412C007B627B681B680C337A6A3A62FB61F969C3
:10413C003A6A41E80023BB61BB69002BE5D17B687F
:10414C001B681B6803F01003102B0AD10023FB60C3
:10415C007B681B681B68FB607B681B685B68FB608B
:10416C00FB687B689B8D19467868FFF70EFE02E0B2
:10417C007868FFF7F8FD002302E0002300E002233B
:10418C0018463037BD4680BD80B584B000AF78602E
:10419C007B681B681B6923F440517B68DA687B6879
:1041AC001B680A431A617B689A687B681B691A430F
:1041BC007B685B691343BB607B681B68DB6823F41B
:1041CC00B05323F00C037A681268B9680B43D360C0
:1041DC007B681B685B6923F440717B689A697B6818
:1041EC001B680A435A617B681B682C4A934203D1B3
:1041FC00FDF7EAF8F86002E0FDF7D2F8F860FA682B
:10420C0013469B0013449A001A447B685B689B001E
:10421C00B2FBF3F3224AA2FB03235B091901FA68F0
:10422C0013469B0013449A001A447B685B689B00FE
:10423C00B2FBF3F21A4BA3FB02035B09642000FBF5
:10424C0003F3D31A1B013233154AA2FB03235B0978
:10425C0003F0F0031944FA6813469B0013449A00C8
:10426C001A447B685B689B00B2FBF3F20C4BA3FB1C
:10427C0002035B09642000FB03F3D31A1B013233E6
:10428C00074AA2FB03235B0903F00F027B681B6840
:10429C000A449A6000BF1037BD4680BD003801400B
:1042AC001F85EB5180B582B002AFFCF729FC00F002
:1042BC0029F800F071F900F06BF800F097F800F0B5
:1042CC00CBF800F03FF96420FCF77CFC02F050FBCB
:1042DC00064B0193064B0093064B074A07490848C7
:1042EC0000F0F6FF01F024F8FCE700BF0C00002002
:1042FC003C010020E8000020DC010020140000201C
:10430C001C00002080B590B000AF07F118032822E4
:10431C000021184603F0CAFB3B1D00221A605A60AC
:10432C009A60DA601A610123BB614FF48033FB6140
:10433C0000233B620123BB6202237B634FF4803377
:10434C00BB634FF4E013FB6307F118031846FCF74B
:10435C005DFC0346002B01D000F0B4F90F237B6009
:10436C000223BB600023FB604FF480633B6100239E
:10437C007B613B1D02211846FCF7CAFE0346002B4D
:10438C0001D000F09FF900BF4037BD4680BD000052
:10439C0080B500AF124B134A1A60114B124A5A6087
:1043AC000F4B00229A600E4B0022DA600C4B4FF43C
:1043BC0080421A610A4B00225A61094B00229A6111
:1043CC00074B0022DA61064B00221A620448FBF705
:1043DC00EBFE0346002B01D000F074F900BF80BD4A
:1043EC00E800002000540040A086010080B500AF1A
:1043FC00174B184A1A60164B4FF482725A60144BC2
:10440C0000229A60124B0022DA60114B00221A61D2
:10441C000F4B00225A610E4B4FF400729A610C4BF9
:10442C001022DA610A4B00221A62094B00225A62EE
:10443C00074B00229A62064B0A22DA620448FDF707
:10444C00E1FD0346002B01D000F03CF900BF80BD1C
:10445C003C0100200030014080B58EB000AF07F168
:10446C00280300221A605A609A60DA6007F1200370
:10447C0000221A605A603B1D00221A605A609A6032
:10448C00DA601A615A619A612D4B4FF080421A60C2
:10449C002B4B47225A602A4B00229A60284B44F639
:1044AC001F62DA60264B00221A61254B00229A61AA
:1044BC002348FEF7D2F90346002B01D000F002F995
:1044CC004FF48053BB6207F1280319461C48FEF7D2
:1044DC00BFFC0346002B01D000F0F4F81848FEF79F
:1044EC000BFA0346002B01D000F0ECF800233B62E2
:1044FC0000237B6207F1200319461148FFF74CF8A3
:10450C000346002B01D000F0DDF860237B60002314
:10451C00BB600023FB6000237B613B1D002219461E
:10452C000748FEF7D3FB0346002B01D000F0CAF876
:10453C00034800F009FA00BF3837BD4680BD00BF04
:10454C009401002080B500AF114B124A1A60104B39
:10455C004FF4E1325A600E4B00229A600C4B002251
:10456C00DA600B4B00221A61094B0C225A61084B82
:10457C0000229A61064B0022DA610548FFF77CF8AD
:10458C000346002B01D000F09DF800BF80BD00BF9A
:10459C00DC0100200038014080B588B000AF07F185
:1045AC00100300221A605A609A60DA60404B9B69D3
:1045BC003F4A43F0200393613D4B9B6903F020037A
:1045CC00FB60FB683A4B9B69394A43F004039361E7
:1045DC00374B9B6903F00403BB60BB68344B9B698E
:1045EC00334A43F008039361314B9B6903F0080392
:1045FC007B607B68002208212E48FDF7B2F8002270
:10460C0040F601712C48FDF7ACF806233B612B4BAF
:10461C007B610123BB6107F1100319462548FCF7A8
:10462C0005FF08233B6101237B610023BB6102234F
:10463C00FB6107F1100319461E48FCF7F7FE40F624
:10464C0001733B6101237B610023BB610223FB618E
:10465C0007F1100319461848FCF7E8FE4FF4E04345
:10466C003B61174B7B610123BB6107F110031946BA
:10467C001148FCF7DBFE002201210720FDF76FFA41
:10468C000720FDF788FA002201210820FDF767FAC0
:10469C000820FDF780FA002201212820FDF75FFA9F
:1046AC002820FDF778FA00BF2037BD4680BD00BF3B
:1046BC000010024000080140000C014000001110E5
:1046CC000000211080B400AF72B600BF00BFFDE740
:1046DC0080B400AF00BFFDE780B400AF00BFFDE7C2
:1046EC0080B400AF00BFFDE780B400AF00BFFDE7B2
:1046FC0080B400AF00BFFDE780B400AF00BFBD4683
:10470C0080BC704780B400AF00BFBD4680BC704712
:10471C0080B400AF00BFBD4680BC704780B500AF11
:10472C00FCF734FA00BF80BD80B500AF0220FDF766
:10473C0031F800BF80BD80B500AF0420FDF72AF82A
:10474C0000BF80BD80B500AF0248FEF7CFF900BFB7
:10475C0080BD00BF9401002080B500AF0248FFF778
:10476C0067F800BF80BD00BFDC01002080B500AF42
:10477C004FF48050FDF70EF84FF40050FDF70AF897
:10478C004FF48040FDF706F800BF80BD80B485B0C3
:10479C0000AF154B9B69144A43F001039361124B14
:1047AC009B6903F00103BB60BB680F4BDB690E4ACE
:1047BC0043F08053D3610C4BDB6903F080537B6077
:1047CC007B680A4B5B68FB60FB6823F0E063FB6073
:1047DC00FB6843F00073FB60044AFB68536000BF46
:1047EC001437BD4680BC70470010024000000140E9
:1047FC0080B588B000AF786007F1100300221A6012
:10480C005A609A60DA607B681B68154A934223D120
:10481C00144B9B69134A43F008039361114B9B693A
:10482C0003F00803FB60FB68C0233B6112237B6130
:10483C000323FB6107F1100319460B48FCF7F6FD47
:10484C00084BDB69074A43F40013D361054BDB6962
:10485C0003F40013BB60BB6800BF2037BD4680BDAE
:10486C000054004000100240000C014080B588B09C
:10487C0000AF786007F1100300221A605A609A604A
:10488C00DA607B681B681B4A93422FD11A4B9B69D9
:10489C00194A43F480539361174B9B6903F480537B
:1048AC00FB60FB68144B9B69134A43F00403936150
:1048BC00114B9B6903F00403BB60BB68A0233B61F5
:1048CC0002237B610323FB6107F1100319460B489C
:1048DC00FCF7ACFD40233B6100237B610023BB61F3
:1048EC0007F1100319460548FCF7A0FD00BF20375F
:1048FC00BD4680BD00300140001002400008014060
:10490C0080B584B000AF78607B681B68B3F1804FD2
:10491C0013D10C4BDB690B4A43F00103D361094BF8
:10492C00DB6903F00103FB60FB68002202211C2001
:10493C00FDF715F91C20FDF72EF900BF1037BD4609
:10494C0080BD00BF0010024080B588B000AF786019
:10495C0007F1100300221A605A609A60DA607B68D3
:10496C001B68B3F1804F17D10D4B9B690C4A43F078
:10497C00040393610A4B9B6903F00403FB60FB681F
:10498C0001233B6102237B610223FB6107F11003CE
:10499C0019460448FCF74AFD00BF2037BD4680BDD0
:1049AC00001002400008014080B588B000AF78606C
:1049BC0007F1100300221A605A609A60DA607B6873
:1049CC001B68204A934239D11F4B9B691E4A43F402
:1049DC00804393611C4B9B6903F48043FB60FB6831
:1049EC00194B9B69184A43F004039361164B9B695E
:1049FC0003F00403BB60BB684FF400733B610223FC
:104A0C007B610323FB6107F1100319460F48FCF788
:104A1C000DFD4FF480633B6100237B610023BB6180
:104A2C0007F1100319460948FCF700FD0022032189
:104A3C002520FDF794F82520FDF7ADF800BF2037B1
:104A4C00BD4680BD00380140001002400008014006
:104A5C0080B586B000AF7860144A154BD31A7B61D1
:104A6C007B693B61134B1B68002B02D1114B124A23
:104A7C001A60104B1A687B6813443A699A4207D241
:104A8C0003F01CF803460C221A604FF0FF3309E0C8
:104A9C00084B1B68FB60074B1A687B681344054A7C
:104AAC001360FB6818461837BD4680BD00500020C7
:104ABC00000400002402002008080020FBF76EFB15
:104ACC000B480C490C4A002302E0D458C450043360
:104ADC00C4188C42F9D3094A094C002301E0136035
:104AEC000432A242FBD302F0EFFFFFF7DBFB70476F
:104AFC0000000020A4000020548C0008A40000201A
:104B0C0008080020FEE780B500AF00F0CAF88D2140
:104B1C002A2000F01DF83E212B2000F019F81E2150
:104B2C002D2000F015F800212C2000F011F8702138
:104B3C00262000F00DF84021152000F009F8252161
:104B4C00112000F005F800F097F800BF80BD0000C0
:104B5C0080B584B000AF03460A46FB711346BB71A7
:104B6C00FB795B00DBB203F07E03DBB23B73BB79FA
:104B7C007B73002201210948FCF7F3FD07F10C01BE
:104B8C00642302220648FDF7C1FA012201210348E1
:104B9C00FCF7E7FD00BF1037BD4680BD000C01409F
:104BAC003C01002080B586B002AF0346FB710023A8
:104BBC003B81FB795B005BB203F07E035BB263F07D
:104BCC007F035BB2DBB23B7300237B7300220121BA
:104BDC000B48FCF7C6FD07F1080207F10C01642332
:104BEC00009302230748FDF7D5FB0122012104485D
:104BFC00FCF7B7FD7B7A18461037BD4680BD00BF69
:104C0C00000C01403C01002080B582B000AF03468F
:104C1C000A46FB711346BB71FB791846FFF7C2FFBE
:104C2C0003461A46BB791343DAB2FB791146184690
:104C3C00FFF78EFF00BF0837BD4680BD80B582B040
:104C4C0000AF03460A46FB711346BB71FB7918464D
:104C5C00FFF7A8FF03465AB297F90630DB435BB265
:104C6C0013405BB2DAB2FB7911461846FFF770FFBE
:104C7C0000BF0837BD4680BD80B582B000AF1420A0
:104C8C00FFF790FF0346FB71FB7903F00303002B46
:104C9C0003D103211420FFF7B7FF00BF0837BD462F
:104CAC0080BD80B500AF0F210120FFF751FF00BF81
:104CBC0080BD80B586B002AF03463960FB71072119
:104CCC000D20FFF745FF3B68FA791A7007F10C03CA
:104CDC0000933B68012239680C2000F00FF8034662
:104CEC00FB73FB7B002B02D1BB89102B01D0022361
:104CFC00FB73FB7B18461037BD4680BD90B587B063
:104D0C0000AFB9607B600346FB731346BB73022391
:104D1C00FB750023BB7500237B75FB7B0C2B06D02E
:104D2C000E2B09D11223BB7510237B7505E077235D
:104D3C00BB7530237B7500E000BFBB7D63F07F0348
:104D4C00DBB219460220FFF703FF80210420FFF796
:104D5C0075FF80210A20FFF757FF00210120FFF784
:104D6C00F7FE00237B820AE07B8ABA6813441B7827
:104D7C0019460920FFF7ECFE7B8A01337B82BB7B53
:104D8C009BB27A8A9A42EFD3FB7B19460120FFF73C
:104D9C00DFFEFB7B0C2B03D180210D20FFF734FFB2
:104DAC004FF4FA637B820420FFF7FCFE03463B754D
:104DBC007B8A013B7B827B8A002B0AD03B7D03F0F4
:104DCC000103002B05D13A7D7B7D1340DBB2002B18
:104DDC00E9D080210D20FFF731FF7B8A002B57D0C3
:104DEC000620FFF7DFFE034603F01B03002B4DD11B
:104DFC000023FB753A7DBB7D1340DBB203F001034E
:104E0C00002B01D00123FB75FB7B0C2B40D10A201E
:104E1C00FFF7C8FE03463B750C20FFF7C3FE0346A5
:104E2C0003F007037B747B7C002B0BD03B7D013B99
:104E3C009BB2DB009AB27B7C9BB213449AB2BB6AE6
:104E4C001A8005E03B7D9BB2DB009AB2BB6A1A80EC
:104E5C003B7D002B01D101233B753B7D102B01D9F0
:104E6C0010233B7500237B820AE07B8A7A68D41876
:104E7C000920FFF797FE034623707B8A01337B8260
:104E8C003B7D9BB27A8A9A42EFD301E00223FB75F9
:104E9C00FB7D18461C37BD4690BD80B586B002AF71
:104EAC00786000237B7300210D20FFF751FE7B6897
:104EBC0093221A707B68013320221A7007F10A03BF
:104ECC0000937B68022279680C20FFF717FF0346DA
:104EDC00FB73FB7B002B18D10023BB7309E0BB7B5E
:104EEC007A6813441A787B7B53407B73BB7B01330A
:104EFC00BB73BB7B032BF2D9BB7B7A6813441B7847
:104F0C007A7B9A4201D00223FB73FB7B1846103745
:104F1C00BD4680BD80B485B000AF78600B46FB7099
:104F2C0046F26333FB8100237B7322E07B7B7A6840
:104F3C0013441B781A46FB895340FB8100233B73B7
:104F4C0011E0FB8903F00103002B06D0FB895B0801
:104F5C009AB20D4B5340FB8102E0FB895B08FB814D
:104F6C003B7B01333B733B7B072BEAD97B7B0133C8
:104F7C007B737A7BFB789A42D8D3FB89184614371B
:104F8C00BD4680BC704700BF0884FFFF80B58AB067
:104F9C0002AF78600023BB7793233B7470237B7440
:104FAC000023FB7713E0FB7F7A681A44FB7F023304
:104FBC00127820333B4403F8102CFB7F7A6813449F
:104FCC001A78BB7F5340BB77FB7F0133FB77FB7FAA
:104FDC00032BE8D9BB7FBB7507F1100307211846DB
:104FEC00FFF798FF0346BB83BB8BDBB2FB75BB8B18
:104FFC001B0A9BB2DBB23B7607F1100207F11001E2
:10500C0007F10E030093134609220C20FFF776FEDE
:10501C00034618462037BD4680BD80B58CB002AF24
:10502C00BA607B600346FB730B46BB73FB7B3B7622
:10503C00BB7B7B76002387F8273010E097F827306E
:10504C00BA681A4497F827300233127828333B4455
:10505C0003F8102C97F82730013387F8273097F88E
:10506C002730052BEAD9002387F8273010E097F872
:10507C0027307A681A4497F8273008331278283387
:10508C003B4403F8102C97F82730013387F827306E
:10509C0097F82730032BEAD907F1180207F118010A
:1050AC0007F11603009313460C220E20FFF726FE81
:1050BC00034687F8263097F82630002B02D097F855
:1050CC0026300AE00820FFF76DFD034603F00403C9
:1050DC00002B01D1022300E0002318462837BD46DF
:1050EC0080BD80B588B002AF03463960FB713023B8
:1050FC003B74FB797B7407F1100302211846FFF710
:10510C0009FF0346FB82FB8ADBB2BB74FB8A1B0ADA
:10511C009BB2DBB2FB7407F1100107F10E03009395
:10512C003B6804220C20FFF7E9FD034618461837AC
:10513C00BD4680BD80B58CB002AF03463960FB71B3
:10514C00A0233B74FB797B7407F1100302211846F2
:10515C00FFF7E0FE0346BB84BB8CDBB2BB74BB8C9D
:10516C001B0A9BB2DBB2FB7407F1100207F11001B2
:10517C0007F10E030093134604220C20FFF7BEFD2B
:10518C00034687F8233097F82330002B02D097F88A
:10519C00233052E0FB89042B04D13B7C03F00F033A
:1051AC000A2B01D0022348E0002387F827300FE0B8
:1051BC0097F827303A681A4497F827301278283332
:1051CC003B4403F8182C97F82730013387F8273025
:1051DC0097F827300F2BEBD910213868FFF79AFE80
:1051EC000346BB84BB8CDBB287F82030BB8C1B0A1C
:1051FC009BB2DBB287F8213007F1100207F11001E6
:10520C0007F10E030093134612220C20FFF776FDD4
:10521C00034687F8233097F82330002B02D097F8F9
:10522C0023300AE0FB89042B04D13B7C03F00F03F1
:10523C000A2B01D0022300E0002318462837BD4674
:10524C0080BD80B586B002AF50233B7200237B72C9
:10525C0007F1080302211846FFF75CFE0346FB81A9
:10526C00FB89DBB2BB72FB891B0A9BB2DBB2FB7204
:10527C0007F1080207F10801BB1D00931346042235
:10528C000C20FFF73BFD034618461037BD4680BD8A
:10529C0080B483B000AF0346FB800B4B9B89FA882C
:1052AC009A4209D0084BDB89FA889A4204D0064B03
:1052BC001B8AFA889A4202D1044B01221A7000BF51
:1052CC000C37BD4680BC7047880600203602002093
:1052DC0080B584B000AFF860B9607A603B60386824
:1052EC0000F0D0FF786802F04BF9B86901F02AF9A8
:1052FC00F86902F0E5F8B86800F0F8FDF86802F01B
:10530C0095F901F0EDFB01F0E5FF064B00221A7058
:10531C00054B0B221A70054B0C221A7000BF10376C
:10532C00BD4680BD28020020290200202A02002050
:10533C0080B582B000AFC24B1B78DAB2C14B1B7880
:10534C00DBB29A4200F03082BD4B1B78DAB2BD4B17
:10535C001A70BB4B1B78DBB2182B00F2228201A215
:10536C0052F823F0D5530008F15300080F540008ED
:10537C002D5400084F540008D3540008EB54000877
:10538C00B9550008D9550008F15500080D5600080C
:10539C008D570008035500081B55000833550008AD
:1053AC005555000871550008F75300088955000839
:1053BC00A15500082D570008455700085D570008F7
:1053CC00755700086F54000802F048F9002002F0ED
:1053DC008FF800F09DFD0023002202219A4800F076
:1053EC00BDFFE1E102F054F9DEE102F037F90023F0
:1053FC0000220221954800F0B1FF954802F0CEF84A
:10540C00D2E102F02BF95A2002F072F80123914AF2
:10541C000221914800F0A2FF904802F0BFF8C3E1CE
:10542C0002F036F95A2002F063F800230022022120
:10543C008B4800F093FF8B4802F0B0F802F0CCF8E8
:10544C00B2E102F025F9002300220221864800F087
:10545C0085FF00F06BFD854802F0A0F802F0BCF867
:10546C00A2E102F015F9002002F042F800F05EFD16
:10547C007F4B1B780133DAB27D4B1A707C4B1B7857
:10548C00042B02D97A4B04221A70794B1B78013BFE
:10549C0040F6B83202FA03F3764A1360FBF788FB46
:1054AC000346754A1360754B00221A60714B1B68DA
:1054BC00734AA2FB03239B09184601F02BF8714891
:1054CC0002F06CF870E102F0E3F802236E4A02215C
:1054DC006E4800F043FF6E4802F060F864E102F0A1
:1054EC00D7F802236B4A0221684800F037FF6A485C
:1054FC0002F054F858E102F0B1F80123674A022196
:10550C00674800F02BFF674802F048F84CE102F0C6
:10551C00A5F80123644A0221644800F01FFF644887
:10552C0002F03CF840E102F099F8624BFF221A704D
:10553C000223614A0221614800F010FF604802F02A
:10554C002DF801F0C7FE2FE102F0A2F802235D4A0C
:10555C0002215D4800F002FF5C4802F01FF801F0E8
:10556C00BFFA21E102F094F80223594A022156486D
:10557C0000F0F4FE574802F011F815E102F088F83B
:10558C000223554A0221554800F0E8FE544802F027
:10559C0005F809E102F07CF80223524A02214F4837
:1055AC0000F0DCFE504801F0F9FFFDE002F070F86D
:1055BC0002234E4A02214E4800F0D0FE4D4801F025
:1055CC00EDFF02F009F801F08BFAEDE002F060F863
:1055DC000223494A0221464800F0C0FE474801F028
:1055EC00DDFFE1E002F054F80223454A0221404875
:1055FC0000F0B4FE434801F0D1FF01F0EDFFD3E021
:10560C0002F046F8404B1B78032B09D100230022F3
:10561C0002213E4800F0A2FE3D4801F0BFFFC2E06F
:10562C00394B1B78002B40F0BE800223394A0221F3
:10563C00394800F093FE394801F0B0FFB3E000BFE9
:10564C002802002029020020088400081484000885
:10565C0020840008308400083C840008488400083A
:10566C0074840008808400089084000898840008E2
:10567C003702002038020020300200203C020020BB
:10568C00D34D6210A4840008B4840008BC840008C4
:10569C00C4840008D0840008DC840008EC84000872
:1056AC00FC840008008500083C850008548500082F
:1056BC005C8500084C000020A8850008B085000817
:1056CC00B4850008E4850008F0850008F88500081A
:1056DC0018860008208600083C86000848860008CA
:1056EC0050860008608600086C86000880860008DA
:1056FC0088860008908600089C860008A48600080E
:10570C00B4860008C086000835020020CC8600084C
:10571C00D8860008E8860008F0860008FC86000899
:10572C0001F0B6FF0223B54A0221B54800F016FE7F
:10573C00B44801F033FF37E001F0AAFF0223B24A6C
:10574C000221AF4800F00AFEB04801F027FF2BE021
:10575C0001F09EFF0223AE4A0221A94800F0FEFD93
:10576C00AC4801F01BFF1FE001F092FF0223AA4A94
:10577C000221AA4800F0F2FDA94801F00FFF13E046
:10578C0001F086FF002001F0B3FE00F0CFFB0023F8
:10579C0000220221A34800F0E1FDA34801F0FEFE27
:1057AC0002E000BF00E000BFA04B1B78DBB2002B77
:1057BC0008D09E4B00221A7001F074FF03461A4663
:1057CC009B4B1A709B4B1B78DBB2182B00F262833D
:1057DC0001A252F823F000BF49580008895800086C
:1057EC00B3590008755E0008755E0008955C0008EA
:1057FC00375D0008755E0008755E0008755E000870
:10580C00755E00088F5E0008715A0008E35A0008A4
:10581C00715B0008755E0008755E0008355900085C
:10582C009D5D0008115E0008755E0008755E00083D
:10583C00755E0008755E0008455C000801F0D8FA3A
:10584C0003461A467C4B1A707B4B1B78002B03D1FA
:10585C00784B01221A701FE3774B1B78022B03D174
:10586C00744B0B221A7017E3714B1B78DBB20A2BAB
:10587C0040F012836F4B11221A700DE301F0E6FA1F
:10588C0003461A466D4B1A706C4B1B78002B09D1D2
:10589C006B4B00221A706B4B00221A70654B022264
:1058AC001A703BE0654B1B78012B09D1644B00222D
:1058BC001A70644B00221A705E4B03221A702DE092
:1058CC005E4B1B78022B29D15D4B1B78002B04D12E
:1058DC00FBF76EF903465C4A1360FBF769F9024665
:1058EC00594B1B68D31A42F21072934202D9544B93
:1058FC0000221A70524B1B780133DAB2504B1A70DB
:10590C004F4B1B78022B06D94D4B00221A70494B7A
:10591C0018221A7002E0474B04221A70FBF748F960
:10592C0003464A4A1360D0E2414B1B78404B1B782C
:10593C00DBB2092B0CD83E4B1B78DBB2184601F0BE
:10594C00C9FF01F0FFFF0346184600F063FDA5E216
:10595C00374B1B78DBB20B2B08D101F0D9FF01F0D0
:10596C00F1FF0346184600F055FD97E2304B1B78CB
:10597C00DBB20A2B40F0928201F0EEFF0346002BC3
:10598C0006D0304B00221A702A4B03221A7002E008
:10599C00284B04221A7002F007F8FBF709F90346AA
:1059AC002A4A13607AE2FBF703F90246274B1B687D
:1059BC00D31A41F28832934203D91E4B00221A703B
:1059CC006EE21B4B1B78DBB2012B08D1194B0C225E
:1059DC001A70FBF7EDF803461C4A136060E2144B97
:1059EC001B78DBB2022B33D1124B0D221A70FBF752
:1059FC00DFF80346154A136052E200BF80860008A8
:105A0C001887000820870008B4860008388700082B
:105A1C0090840008508700086C8700087487000881
:105A2C0080870008A4870008AC8700083602002095
:105A3C002A02002028020020340200203502002017
:105A4C002B020020370200202C0200203002002004
:105A5C00A04B1B78DBB20A2B40F022829E4B00221B
:105A6C001A701DE2FBF7A4F802469C4B1B68D31A74
:105A7C0041F28832934203D9974B00221A7011E2FB
:105A8C00944B1B78DBB2012B08D1934B05221A7077
:105A9C00FBF78EF80346914A136003E28D4B1B789B
:105AAC00DBB2022B08D18C4B12221A70FBF780F858
:105ABC0003468A4A1360F5E1864B1B78DBB20A2B4E
:105ACC0040F0F081844B02221A70FBF771F8034608
