:020000040800F2
:1000000000500020313C0008A9380008B138000831
:10001000B9380008C1380008C938000800000000DD
:10002000000000000000000000000000D1380008BF
:10003000DD38000800000000E9380008F538000845
:10004000793C0008793C0008793C0008793C0008BC
:10005000793C0008793C0008793C00080139000827
:100060000F390008793C0008793C0008793C000809
:10007000793C0008793C0008793C0008793C00088C
:10008000793C0008793C0008793C0008793C00087C
:10009000793C0008793C0008793C0008793C00086C
:1000A000793C0008793C0008793C0008793C00085C
:1000B0001D390008793C0008793C0008793C0008AB
:1000C000793C0008793C0008793C0008793C00083C
:1000D000793C000831390008793C0008793C000877
:1000E000793C0008793C0008793C000800000000D9
:1000F0000000000000000000000000000000000000
:0C01000000000000000000005FF808F1A3
:10010C00034613F8012B002AFBD1181A013870474B
:10011C000348044B834202D0034B03B1184770478A
:10012C000C0000200C000020000000000548064BCD
:10013C001B1AD90F01EBA301491002D0034B03B1D9
:10014C00184770470C0000200C0000200000000035
:10015C0010B5064C237843B9FFF7DAFF044B13B103
:10016C000448AFF300800123237010BD0C00002065
:10017C0000000000E842000808B5054B1BB105491A
:10018C000548AFF30080BDE80840FFF7CFBF00BFC4
:10019C000000000010000020E842000880B400AF0E
:1001AC0000BFBD4680BC704780B584B000AF78609E
:1001BC007B68002B01D101232BE17B6893F83D3048
:1001CC00DBB2002B06D17B68002283F83C207868D8
:1001DC0003F0E4FB7B68242283F83D207B681B68DA
:1001EC001A687B681B6822F001021A607B681B6826
:1001FC001A687B681B6842F400421A607B681B68B3
:10020C001A687B681B6822F400421A6001F0A4F89B
:10021C00F8607B685B68814A934207D8FB68804A28
:10022C00934294BF01230023DBB206E0FB687D4AB6
:10023C00934294BF01230023DBB2002B01D0012396
:10024C00E7E0FB68784AA2FB03239B0CBB607B684E
:10025C001B685B6823F03F017B681B68BA680A4324
:10026C005A607B681B681B6A23F03F017B685B68E4
:10027C006A4A934202D8BB68013309E0BB684FF469
:10028C00967202FB03F3694AA2FB03239B09013319
:10029C007A6812680B4313627B681B68DB6923F472
:1002AC004F4222F0FF027B685B685C498B4219D895
:1002BC00FB68591E7B685B685B00B1FBF3F3591C50
:1002CC0040F6FC730B40002B0AD0FB68591E7B6870
:1002DC005B685B00B1FBF3F30133C3F30B0351E039
:1002EC0004234FE07B689B68002B11D1FB68581EE0
:1002FC007B6859680B465B000B44B0FBF3F301338E
:10030C00C3F30B03002B0CBF01230023DBB212E061
:10031C00FB68581E7B6859680B469B000B44990080
:10032C000B44B0FBF3F30133C3F30B03002B0CBFF3
:10033C0001230023DBB2002B01D0012322E07B68D8
:10034C009B68002B0ED1FB68581E7B6859680B46C6
:10035C005B000B44B0FBF3F30133C3F30B0343F427
:10036C0000430FE0FB68581E7B6859680B469B00E6
:10037C000B4499000B44B0FBF3F30133C3F30B03B1
:10038C0043F44043796809681343CB617B681B686D
:10039C001B6823F0C0017B68DA697B681B6A1A430F
:1003AC007B681B680A431A607B681B689B6823F494
:1003BC00034323F0FF037A6811697A68D26811430A
:1003CC007A6812680B4393607B681B68DB6823F0C8
:1003DC00FF017B685A697B689B691A437B681B68C1
:1003EC000A43DA607B681B681A687B681B6842F0FA
:1003FC0001021A607B6800221A647B68202283F851
:10040C003D207B6800221A637B68002283F83E2023
:10041C00002318461037BD4680BD00BFA0860100E2
:10042C007F841E00FF083D0083DE1B43D34D62100A
:10043C0080B588B002AFF860084611461A460346EC
:10044C007B810B463B811346FB8000F0B1FB78614E
:10045C00FB6893F83D30DBB2202B40F0D9807B69F0
:10046C000093192301226D49F86800F071F90346D5
:10047C00002B01D00223CCE0FB6893F83C30012B1D
:10048C0001D10223C5E0FB68012283F83C20FB6804
:10049C001B681B6803F00103012B07D0FB681B686A
:1004AC001A68FB681B6842F001021A60FB681B6843
:1004BC001A68FB681B6822F400621A60FB68212230
:1004CC0083F83D20FB68402283F83E20FB68002225
:1004DC001A64FB683A6A5A62FB68BA8C5A85FB68E4
:1004EC005B8D9AB2FB681A85FB684D4ADA62F88814
:1004FC003A8979897B690193BB6A00930346F86852
:10050C0000F090F80346002B52D0012381E07A6969
:10051C00B96AF86800F036FA0346002B0DD0FB6878
:10052C001B6C042B07D1FB681B681A68FB681B68E3
:10053C0042F400721A6001236BE0FB685B6A1A7864
:10054C00FB681B681A61FB685B6A5A1CFB685A6281
:10055C00FB681B8D013B9AB2FB681A85FB685B8DAF
:10056C009BB2013B9AB2FB685A85FB681B685B69BE
:10057C0003F00403042B1BD1FB681B8D002B17D03D
:10058C00FB685B6A1A78FB681B681A61FB685B6A1C
:10059C005A1CFB685A62FB681B8D013B9AB2FB68C4
:1005AC001A85FB685B8D9BB2013B9AB2FB685A853E
:1005BC00FB681B8D002BAAD17A69B96AF86800F028
:1005CC0029FA0346002B0DD0FB681B6C042B07D1BA
:1005DC00FB681B681A68FB681B6842F400721A609F
:1005EC00012316E0FB681B681A68FB681B6842F461
:1005FC0000721A60FB68202283F83D20FB68002201
:10060C0083F83E20FB68002283F83C20002300E0A6
:10061C00022318461837BD4680BD00BF02001000EB
:10062C000000FFFF80B588B002AFF86008461146A5
:10063C001A4603467B810B463B811346FB80FB68C5
:10064C001B681A68FB681B6842F480721A607B6A2C
:10065C0000933B6A00224FF00111F86800F078F823
:10066C000346002B0DD0FB681B681B6803F48073DA
:10067C00B3F5807F03D1FB684FF400721A64032337
:10068C005FE07B89DBB21A46FB681B6802F0FE0256
:10069C001A617B6A3A6A2D49F86800F0D3F8034670
:1006AC00002B01D001234CE000237B61FB681B680D
:1006BC005B697B61FB681B689B697B617B697A6A00
:1006CC00396AF86800F05EF90346002B0DD0FB6820
:1006DC001B6C042B07D1FB681B681A68FB681B6832
:1006EC0042F400721A6001232BE0FB88012B05D128
:1006FC003B89DAB2FB681B681A6121E03B891B0A53
:10070C009BB2DAB2FB681B681A617A6A396AF868BC
:10071C0000F038F90346002B0DD0FB681B6C042B42
:10072C0007D1FB681B681A68FB681B6842F40072EF
:10073C001A60012305E03B89DAB2FB681B681A6179
:10074C00002318461837BD4680BD00BF02000100CB
:10075C0080B584B000AFF860B9603B601346FB71A4
:10076C0048E03B68B3F1FF3F44D000F021FA024669
:10077C00BB69D31A3A689A4202D33B68002B39D131
:10078C00BB681B0CDBB2012B0DD1FB681B685B69D2
:10079C00DA43BB6813409BB2002B0CBF0123002330
:1007AC00DBB21A460CE0FB681B689B69DA43BB683A
:1007BC0013409BB2002B0CBF01230023DBB21A4663
:1007CC00FB799A4216D1FB6800221A63FB6820223F
:1007DC0083F83D20FB68002283F83E20FB681B6CED
:1007EC0043F02002FB681A64FB68002283F83C206B
:1007FC00012323E0BB681B0CDBB2012B0DD1FB6882
:10080C001B685B69DA43BB6813409BB2002B0CBFBF
:10081C0001230023DBB21A460CE0FB681B689B69C2
:10082C00DA43BB6813409BB2002B0CBF012300239F
:10083C00DBB21A46FB799A4293D000231846103744
:10084C00BD4680BD80B584B000AFF860B9607A60F9
:10085C003B6071E0FB681B685B6903F48063B3F574
:10086C00806F23D1FB681B681A68FB681B6842F415
:10087C0000721A60FB681B686FF480625A61FB6837
:10088C0000221A63FB68202283F83D20FB680022BB
:10089C0083F83E20FB681B6C43F00402FB681A646F
:1008AC00FB68002283F83C20012367E07B68B3F1EE
:1008BC00FF3F41D000F07CF902463B68D31A7A68BE
:1008CC009A4202D37B68002B36D1BB681B0CDBB27F
:1008DC00012B0CD1FB681B685B69DA43BB681340C6
:1008EC009BB2002B14BF01230023DBB20BE0FB688F
:1008FC001B689B69DA43BB6813409BB2002B14BF87
:10090C0001230023DBB2002B16D0FB6800221A63F4
:10091C00FB68202283F83D20FB68002283F83E20F0
:10092C00FB681B6C43F02002FB681A64FB68002216
:10093C0083F83C20012321E0BB681B0CDBB2012BAC
:10094C000CD1FB681B685B69DA43BB6813409BB234
:10095C00002B14BF01230023DBB20BE0FB681B68E8
:10096C009B69DA43BB6813409BB2002B14BF012375
:10097C000023DBB2002B7FF46DAF00231846103739
:10098C00BD4680BD80B584B000AFF860B9607A60B8
:10099C0034E0F86800F086F80346002B01D0012300
:1009AC0034E0BB68B3F1FF3F28D000F001F90246F8
:1009BC007B68D31ABA689A4202D3BB68002B1DD14C
:1009CC00FB681B685B6903F08003802B16D0FB6807
:1009DC0000221A63FB68202283F83D20FB6800226A
:1009EC0083F83E20FB681B6C43F02002FB681A6402
:1009FC00FB68002283F83C20012307E0FB681B689E
:100A0C005B6903F08003802BC3D100231846103799
:100A1C00BD4680BD80B584B000AFF860B9607A6027
:100A2C0034E0F86800F03EF80346002B01D00123B7
:100A3C0034E0BB68B3F1FF3F28D000F0B9F80246B0
:100A4C007B68D31ABA689A4202D3BB68002B1DD1BB
:100A5C00FB681B685B6903F00403042B16D0FB686E
:100A6C0000221A63FB68202283F83D20FB680022D9
:100A7C0083F83E20FB681B6C43F02002FB681A6471
:100A8C00FB68002283F83C20012307E0FB681B680D
:100A9C005B6903F00403042BC3D100231846103701
:100AAC00BD4680BD80B483B000AF78607B681B68A6
:100ABC005B6903F48063B3F5806F1BD17B681B68A3
:100ACC006FF480625A617B6800221A637B68202273
:100ADC0083F83D207B68002283F83E207B681B6CEA
:100AEC0043F004027B681A647B68002283F83C2084
:100AFC00012300E0002318460C37BD4680BC70472C
:100B0C0080B500AF084B1B68074A43F01003136015
:100B1C00032000F0BDFF0F2000F008F802F00CFFDE
:100B2C000023184680BD00BF0020024080B582B073
:100B3C0000AF7860124B1A68124B1B7819464FF4B1
:100B4C007A73B3FBF1F3B2FBF3F3184600F0D5FF65
:100B5C000346002B01D001230EE07B680F2B0AD833
:100B6C00002279684FF0FF3000F09DFF064A7B6849
:100B7C001360002300E0012318460837BD4680BDF2
:100B8C0000000020080000200400002080B400AF0A
:100B9C00054B1B781A46054B1B681344034A13601C
:100BAC0000BFBD4680BC7047080000202800002014
:100BBC0080B400AF024B1B681846BD4680BC704722
:100BCC002800002080B586B000AF78607B68002BD1
:100BDC0001D1012372E27B681B6803F00103002B37
:100BEC0000F08780924B5B6803F00C03042B0CD055
:100BFC008F4B5B6803F00C03082B12D18C4B5B689A
:100C0C0003F48033B3F5803F0BD1894B1B6803F49D
:100C1C000033002B6CD07B685B68002B68D1012300
:100C2C004CE27B685B68B3F5803F06D1804B1B6858
:100C3C007F4A43F4803313602EE07B685B68002BA3
:100C4C000CD17B4B1B687A4A23F480331360784BAE
:100C5C001B68774A23F4802313601DE07B685B6874
:100C6C00B3F5A02F0CD1724B1B68714A43F480234F
:100C7C0013606F4B1B686E4A43F4803313600BE0B8
:100C8C006B4B1B686A4A23F480331360684B1B68F8
:100C9C00674A23F4802313607B685B68002B13D0B6
:100CAC00FFF786FF386108E0FFF782FF02463B69D9
:100CBC00D31A642B01D9032300E25D4B1B6803F4A8
:100CCC000033002BF0D014E0FFF772FF386108E01E
:100CDC00FFF76EFF02463B69D31A642B01D903233D
:100CEC00ECE1534B1B6803F40033002BF0D100E014
:100CFC0000BF7B681B6803F00203002B63D04C4BD6
:100D0C005B6803F00C03002B0BD0494B5B6803F0C2
:100D1C000C03082B1CD1464B5B6803F48033002B6F
:100D2C0016D1434B1B6803F00203002B05D07B68E4
:100D3C001B69012B01D00123C0E13D4B1B6823F043
:100D4C00F8027B685B69DB00394913430B603AE0BE
:100D5C007B681B69002B20D0364B01221A60FFF7F1
:100D6C0027FF386108E0FFF723FF02463B69D31ADF
:100D7C00022B01D90323A1E12D4B1B6803F00203C5
:100D8C00002BF0D02A4B1B6823F0F8027B685B69C0
:100D9C00DB00274913430B6015E0264B00221A6039
:100DAC00FFF706FF386108E0FFF702FF02463B69D8
:100DBC00D31A022B01D9032380E11D4B1B6803F0CE
:100DCC000203002BF0D17B681B6803F00803002B97
:100DDC003AD07B689B69002B19D0174B01221A6003
:100DEC00FFF7E6FE386108E0FFF7E2FE02463B69DA
:100DFC00D31A022B01D9032360E10D4B5B6A03F07C
:100E0C000203002BF0D0012000F0CEFA1CE00A4BBC
:100E1C0000221A60FFF7CCFE38610FE0FFF7C8FE26
:100E2C0002463B69D31A022B08D9032346E100BFC3
:100E3C00001002400000424280044242924B5B6A26
:100E4C0003F00203002BE9D17B681B6803F0040359
:100E5C00002B00F0A6800023FB758B4BDB6903F0A5
:100E6C008053002B0DD1884BDB69874A43F08053AC
:100E7C00D361854BDB6903F08053BB60BB680123F6
:100E8C00FB75824B1B6803F48073002B18D17F4BCE
:100E9C001B687E4A43F480731360FFF789FE386148
:100EAC0008E0FFF785FE02463B69D31A642B01D993
:100EBC00032303E1754B1B6803F48073002BF0D004
:100ECC007B68DB68012B06D16F4B1B6A6E4A43F0C3
:100EDC00010313622DE07B68DB68002B0CD16A4B9D
:100EEC001B6A694A23F001031362674B1B6A664A4B
:100EFC0023F0040313621CE07B68DB68052B0CD128
:100F0C00614B1B6A604A43F0040313625E4B1B6A1D
:100F1C005D4A43F0010313620BE05B4B1B6A5A4AB8
:100F2C0023F001031362584B1B6A574A23F0040346
:100F3C0013627B68DB68002B15D0FFF739FE386134
:100F4C000AE0FFF735FE02463B69D31A41F28832BC
:100F5C00934201D90323B1E04B4B1B6A03F002030C
:100F6C00002BEED014E0FFF723FE38610AE0FFF708
:100F7C001FFE02463B69D31A41F28832934201D9D3
:100F8C0003239BE0404B1B6A03F00203002BEED1C2
:100F9C00FB7D012B05D13C4BDB693B4A23F0805395
:100FAC00D3617B68DB69002B00F08780364B5B6874
:100FBC0003F00C03082B61D07B68DB69022B46D154
:100FCC00334B00221A60FFF7F3FD386108E0FFF79E
:100FDC00EFFD02463B69D31A022B01D903236DE0C6
:100FEC00294B1B6803F00073002BF0D17B681B6A44
:100FFC00B3F5803F08D1244B5B6823F400327B6847
:10100C009B68214913434B601F4B5B6823F474129C
:10101C007B68196A7B685B6A0B431B4913434B6003
:10102C001B4B01221A60FFF7C3FD386108E0FFF784
:10103C00BFFD02463B69D31A022B01D903233DE0C5
:10104C00114B1B6803F00073002BF0D035E0104BF4
:10105C0000221A60FFF7ACFD386108E0FFF7A8FD2D
:10106C0002463B69D31A022B01D9032326E0064B17
:10107C001B6803F00073002BF0D11EE07B68DB696A
:10108C00012B07D1012319E0001002400070004031
:10109C00600042420B4B5B68FB60FB6803F48032E0
:1010AC007B681B6A9A4206D1FB6803F470127B685A
:1010BC005B6A9A4201D0012300E0002318461837DE
:1010CC00BD4680BD0010024080B584B000AF786092
:1010DC0039607B68002B01D10123D0E06A4B1B687F
:1010EC0003F007033A689A4210D9674B1B6823F048
:1010FC00070265493B6813430B60634B1B6803F0A5
:10110C0007033A689A4201D00123B8E07B681B6858
:10111C0003F00203002B20D07B681B6803F0040350
:10112C00002B05D0594B5B68584A43F4E06353607D
:10113C007B681B6803F00803002B05D0534B5B68DE
:10114C00524A43F460535360504B5B6823F0F002F7
:10115C007B689B684D4913434B607B681B6803F0AD
:10116C000103002B40D07B685B68012B07D1474BF8
:10117C001B6803F40033002B15D101237FE07B683F
:10118C005B68022B07D1414B1B6803F00073002BEB
:10119C0009D1012373E03D4B1B6803F00203002BC4
:1011AC0001D101236BE0394B5B6823F003027B68B0
:1011BC005B68364913434B60FFF7FAFCF8600AE0B2
:1011CC00FFF7F6FC0246FB68D31A41F288329342D1
:1011DC0001D9032353E02D4B5B6803F00C027B68B1
:1011EC005B689B009A42EBD1274B1B6803F007030B
:1011FC003A689A4210D2244B1B6823F0070222490A
:10120C003B6813430B60204B1B6803F007033A68E1
:10121C009A4201D0012332E07B681B6803F004037F
:10122C00002B08D0194B5B6823F4E0627B68DB6809
:10123C00164913434B607B681B6803F00803002BB3
:10124C0009D0124B5B6823F460527B681B69DB008E
:10125C000E4913434B6000F021F802460B4B5B68C0
:10126C001B0903F00F030A49CB5C22FA03F3094A6A
:10127C001360094B1B681846FFF758FC00231846EF
:10128C001037BD4680BD00BF002002400010024058
:10129C00A4430008000000200400002080B487B0A4
:1012AC0000AF0023FB600023BB6000237B610023A5
:1012BC007B6000233B611E4B5B68FB60FB6803F0AB
:1012CC000C03042B02D0082B03D027E0194B3B61F5
:1012DC0027E0FB689B0C03F00F03174AD35C7B6081
:1012EC00FB6803F48033002B10D0114B5B685B0C54
:1012FC0003F00103114AD35CBB607B680D4A03FB0E
:10130C0002F2BB68B2FBF3F37B6104E07B680C4A2E
:10131C0002FB03F37B617B693B6102E0054B3B61A4
:10132C0000BF3B6918461C37BD4680BC704700BFE8
:10133C000010024000127A00BC430008CC430008A5
:10134C0000093D0080B400AF024B1B681846BD4637
:10135C0080BC70470000002080B500AFFFF7F2FFA3
:10136C000246054B5B681B0A03F007030349CB5C81
:10137C0022FA03F3184680BD00100240B443000863
:10138C0080B500AFFFF7DEFF0246054B5B68DB0A5A
:10139C0003F007030349CB5C22FA03F3184680BD24
:1013AC0000100240B443000880B485B000AF7860F0
:1013BC000A4B1B680A4AA2FB03235B0A7A6802FBEE
:1013CC0003F3FB6000BFFB685A1EFA60002BF9D1D7
:1013DC0000BF00BF1437BD4680BC70470000002022
:1013EC00D34D621080B48BB000AF786039600023AD
:1013FC007B6200233B6269E101227B6A02FA03F300
:10140C00FB613B681B68FA691340BB61BA69FB69F5
:10141C009A4240F058813B685B689A4A93425ED08E
:10142C00984A934275D8984A934258D0964A934218
:10143C006FD8964A934252D0944A934269D8944AB0
:10144C0093424CD0924A934263D8924A934246D0EC
:10145C00904A93425DD8122B2AD8122B59D801A24C
:10146C0052F823F0EB140008C5140008D714000838
:10147C00191500081F1500081F1500081F15000876
:10148C001F1500081F1500081F1500081F15000860
:10149C001F1500081F1500081F1500081F15000850
:1014AC001F1500081F150008CD140008E1140008D2
:1014BC00794A934213D02CE03B68DB683B6229E00D
:1014CC003B68DB6804333B6224E03B68DB68083331
:1014DC003B621FE03B68DB680C333B621AE03B6805
:1014EC009B68002B02D104233B6213E03B689B6892
:1014FC00012B05D108233B627B68FA691A6109E06C
:10150C0008233B627B68FA695A6103E000233B6263
:10151C0000E000BFBB69FF2B01D87B6801E07B6852
:10152C0004337B61BB69FF2B02D87B6A9B0002E012
:10153C007B6A083B9B003B617B691A680F213B6906
:10154C0001FA03F3DB431A40396A3B6901FA03F3EE
:10155C001A437B691A603B685B6803F08053002B6D
:10156C0000F0B1804D4B9B694C4A43F001039361F1
:10157C004A4B9B6903F00103BB60BB68484A7B6A1A
:10158C009B08023352F82330FB607B6A03F00303A1
:10159C009B000F2202FA03F3DB43FA681340FB6053
:1015AC007B68404A934213D07B683F4A93420DD0EC
:1015BC007B683E4A934207D07B683D4A934201D1F7
:1015CC00032306E0042304E0022302E0012300E0ED
:1015DC0000237A6A02F0030292009340FA681343E4
:1015EC00FB602F497B6A9B080233FA6841F8232081
:1015FC003B685B6803F48013002B06D02D4B9A6874
:10160C002C49BB6913438B6006E02A4B9A68BB6973
:10161C00DB43284913408B603B685B6803F4001381
:10162C00002B06D0234BDA682249BB691343CB60ED
:10163C0006E0204BDA68BB69DB431E491340CB60E4
:10164C003B685B6803F40033002B06D0194B5A68D7
:10165C001849BB6913434B6006E0164B5A68BB69CB
:10166C00DB43144913404B603B685B6803F48033E5
:10167C00002B21D00F4B1A680E49BB6913430B602A
:10168C0021E000BF000032100000311000002210D9
:10169C000000211000001210000011100010024078
:1016AC000000014000080140000C01400010014006
:1016BC0000140140000401400B4B1A68BB69DB436A
:1016CC00094913400B607B6A01337B623B681A68E3
:1016DC007B6A22FA03F3002B7FF48EAE00BF00BFAF
:1016EC002C37BD4680BC70470004014080B485B0E7
:1016FC0000AF78600B467B807B689A687B881340D0
:10170C00002B02D00123FB7301E00023FB73FB7B56
:10171C0018461437BD4680BC704780B483B000AF08
:10172C0078600B467B8013467B707B78002B03D054
:10173C007A887B681A6103E07B881A047B681A61DB
:10174C0000BF0C37BD4680BC7047000080B582B02E
:10175C0000AF0346FB80084B5A69FB881340002BF3
:10176C0006D0054AFB885361FB88184600F006F842
:10177C0000BF0837BD4680BD0004014080B483B073
:10178C0000AF0346FB8000BF0C37BD4680BC7047E2
:10179C0080B485B000AF78600023FB737B6893F84E
:1017AC002130DBB2022B08D07B6804229A637B6861
:1017BC00002283F82020012320E07B681B681A6834
:1017CC007B681B6822F00E021A607B681B681A6823
:1017DC007B681B6822F001021A607B681A6C7B68BC
:1017EC00DB6B012101FA02F25A607B68012283F85B
:1017FC0021207B68002283F82020FB7B18461437BD
:10180C00BD4680BC7047000080B584B000AF7860E6
:10181C000023FB737B6893F82130DBB2022B05D0DD
:10182C007B6804229A630123FB7351E07B681B687D
:10183C001A687B681B6822F00E021A607B681B68B2
:10184C001A687B681B6822F001021A607B681B68AF
:10185C00224A934229D07B681B68214A934222D0AA
:10186C007B681B681F4A93421AD07B681B681E4A10
:10187C00934212D07B681B681C4A93420AD07B6847
:10188C001B681B4A934202D14FF480130EE04FF0B9
:10189C0080730BE04FF4803308E04FF4805305E085
:1018AC004FF4807302E0102300E00123114A5360CF
:1018BC007B68012283F821207B68002283F820209A
:1018CC007B685B6B002B03D07B685B6B78689847FD
:1018DC00FB7B18461037BD4680BD00BF0800024098
:1018EC001C000240300002404400024058000240FC
:1018FC006C0002400000024080B485B000AF7860FC
:10190C007B6803F00703FB600C4BDB68BB60BA68B9
:10191C004FF6FF031340BB60FB681A02BB6813430E
:10192C0043F0BF6343F40033BB60044ABB68D3602D
:10193C0000BF1437BD4680BC704700BF00ED00E00F
:10194C0080B400AF044BDB681B0A03F00703184696
:10195C00BD4680BC704700BF00ED00E080B483B092
:10196C0000AF0346FB7197F90730002B0BDBFB79BB
:10197C0003F01F02064997F907305B09012000FAB2
:10198C0002F241F8232000BF0C37BD4680BC7047E3
:10199C0000E100E080B483B000AF03463960FB7116
:1019AC0097F90730002B0ADB3B68DAB20C4997F940
:1019BC0007301201D2B20B4483F800230AE03B68D3
:1019CC00DAB20849FB7903F00F03043B1201D2B2DF
:1019DC000B441A7600BF0C37BD4680BC704700BF65
:1019EC0000E100E000ED00E080B489B000AFF860E9
:1019FC00B9607A60FB6803F00703FB61FB69C3F114
:101A0C000703042B28BF0423BB61FB690433062B9B
:101A1C0002D9FB69033B00E000237B614FF0FF32EE
:101A2C00BB6902FA03F3DA43BB681A407B699A403C
:101A3C004FF0FF317B6901FA03F3D9437B680B400C
:101A4C00134318462437BD4680BC704780B582B01E
:101A5C0000AF78607B68013BB3F1807F01D3012339
:101A6C000FE00A4A7B68013B53600F214FF0FF30B7
:101A7C00FFF790FF054B00229A60044B07221A6077
:101A8C00002318460837BD4680BD00BF10E000E0BB
:101A9C0080B582B000AF78607868FFF72DFF00BF8B
:101AAC000837BD4680BD80B586B000AF0346B9602F
:101ABC007A60FB7300237B61FFF742FF78617A68E1
:101ACC00B9687869FFF790FF024697F90F30114615
:101ADC001846FFF75FFF00BF1837BD4680BD80B5C5
:101AEC0082B000AF0346FB7197F907301846FFF739
:101AFC0035FF00BF0837BD4680BD80B582B000AF52
:101B0C0078607868FFF7A2FF034618460837BD4691
:101B1C0080BD80B582B000AF78607B68002B01D1AE
:101B2C00012376E07B685B6A002B08D17B685B68DD
:101B3C00B3F5827F09D07B680022DA6105E07B680F
:101B4C0000221A617B6800225A617B6800229A622B
:101B5C007B6893F85130DBB2002B06D17B680022F6
:101B6C0083F85020786801F057FF7B68022283F8D5
:101B7C0051207B681B681A687B681B6822F0400246
:101B8C001A607B685B6803F482727B689B6803F461
:101B9C0004431A437B68DB6803F400631A437B68D5
:101BAC001B6903F002031A437B685B6903F00103B2
:101BBC001A437B689B6903F400731A437B68DB69E7
:101BCC0003F038031A437B681B6A03F0800342EA74
:101BDC0003017B689B6A03F400527B681B680A4311
:101BEC001A607B689B691A0C7B681B6802F0040204
:101BFC005A607B681B68DA697B681B6822F4006298
:101C0C00DA617B6800225A657B68012283F85120D7
:101C1C00002318460837BD4680BD80B582B000AFA2
:101C2C0078607B68002B01D1012341E07B6893F83D
:101C3C003D30DBB2002B06D17B68002283F83C20C0
:101C4C00786801F033FF7B68022283F83D207B68C3
:101C5C001A687B6804331946104600F02BFB7B682E
:101C6C00012283F846207B68012283F83E207B68A2
:101C7C00012283F83F207B68012283F840207B6897
:101C8C00012283F841207B68012283F842207B6883
:101C9C00012283F843207B68012283F844207B686F
:101CAC00012283F845207B68012283F83D20002324
:101CBC0018460837BD4680BD80B582B000AF78604D
:101CCC007B68002B01D1012341E07B6893F83D3008
:101CDC00DBB2002B06D17B68002283F83C207868AD
:101CEC0000F039F87B68022283F83D207B681A6883
:101CFC007B6804331946104600F0DCFA7B6801223D
:101D0C0083F846207B68012283F83E207B68012201
:101D1C0083F83F207B68012283F840207B680122F6
:101D2C0083F841207B68012283F842207B680122E2
:101D3C0083F843207B68012283F844207B680122CE
:101D4C0083F845207B68012283F83D200023184648
:101D5C000837BD4680BD80B483B000AF786000BF4B
:101D6C000C37BD4680BC704780B584B000AF78603E
:101D7C007B681B68DB68FB607B681B681B69BB604E
:101D8C00BB6803F00203002B20D0FB6803F00203B6
:101D9C00002B1BD07B681B686FF002021A617B68FA
:101DAC0001221A777B681B689B6903F00303002BE5
:101DBC0003D0786800F063FA05E0786800F056FA12
:101DCC00786800F065FA7B6800221A77BB6803F02C
:101DDC000403002B20D0FB6803F00403002B1BD062
:101DEC007B681B686FF004021A617B6802221A7709
:101DFC007B681B689B6903F44073002B03D07868E5
:101E0C0000F03DFA05E0786800F030FA786800F0F0
:101E1C003FFA7B6800221A77BB6803F00803002B9B
:101E2C0020D0FB6803F00803002B1BD07B681B68D9
:101E3C006FF008021A617B6804221A777B681B68B2
:101E4C00DB6903F00303002B03D0786800F017FA6A
:101E5C0005E0786800F00AFA786800F019FA7B68F7
:101E6C0000221A77BB6803F01003002B20D0FB680C
:101E7C0003F01003002B1BD07B681B686FF0100263
:101E8C001A617B6808221A777B681B68DB6903F48C
:101E9C004073002B03D0786800F0F1F905E0786806
:101EAC0000F0E4F9786800F0F3F97B6800221A7707
:101EBC00BB6803F00103002B0CD0FB6803F001039B
:101ECC00002B07D07B681B686FF001021A617868E1
:101EDC0000F0C3F9BB6803F08003002B0CD0FB6847
:101EEC0003F08003002B07D07B681B686FF0800227
:101EFC001A61786800F0D1FCBB6803F04003002B3A
:101F0C000CD0FB6803F04003002B07D07B681B68E8
:101F1C006FF040021A61786800F0C3F9BB6803F0F7
:101F2C002003002B0CD0FB6803F02003002B07D000
:101F3C007B681B686FF020021A61786800F0A4FCC3
:101F4C0000BF1037BD4680BD80B586B000AFF860CD
:101F5C00B9607A600023FB75FB6893F83C30012B69
:101F6C0001D10223AEE0FB68012283F83C207B68A0
:101F7C000C2B00F29F8001A252F823F0BD1F000829
:101F8C00C1200008C1200008C1200008FD1F000866
:101F9C00C1200008C1200008C12000083F20000813
:101FAC00C1200008C1200008C12000087F200008C3
:101FBC00FB681B68B968184600F0EAF9FB681B68F7
:101FCC009A69FB681B6842F008029A61FB681B68FF
:101FDC009A69FB681B6822F004029A61FB681B6813
:101FEC009969BB681A69FB681B680A439A6164E0CB
:101FFC00FB681B68B968184600F030FAFB681B6870
:10200C009A69FB681B6842F400629A61FB681B6862
:10201C009A69FB681B6822F480629A61FB681B68F2
:10202C009969BB681B691A02FB681B680A439A61B1
:10203C0043E0FB681B68B968184600F079FAFB6846
:10204C001B68DA69FB681B6842F00802DA61FB68FE
:10205C001B68DA69FB681B6822F00402DA61FB6812
:10206C001B68D969BB681A69FB681B680A43DA618B
:10207C0023E0FB681B68B968184600F0C3FAFB68DC
:10208C001B68DA69FB681B6842F40062DA61FB6862
:10209C001B68DA69FB681B6822F48062DA61FB68F2
:1020AC001B68D969BB681B691A02FB681B680A4369
:1020BC00DA6102E00123FB7500BFFB68002283F8A4
:1020CC003C20FB7D18461837BD4680BD80B584B0DA
:1020DC0000AF786039600023FB737B6893F83C3069
:1020EC00012B01D10223B4E07B68012283F83C2050
:1020FC007B68022283F83D207B681B689B68BB6071
:10210C00BB6823F07703BB60BB6823F47F43BB60E1
:10211C007B681B68BA689A603B681B68B3F5005F04
:10212C003ED0B3F5005F00F28780B3F5805F00F01E
:10213C008680B3F5805F7FD8702B1AD0702B7BD83C
:10214C00602B50D0602B77D8502B3CD0502B73D8B1
:10215C00402B58D0402B6FD8302B64D0302B6BD801
:10216C00202B60D0202B67D8002B5CD0102B5AD0A2
:10217C0062E07B6818683B6899683B685A683B6802
:10218C00DB6800F004FB7B681B689B68BB60BB686A
:10219C0043F07703BB607B681B68BA689A604FE0BA
:1021AC007B6818683B6899683B685A683B68DB68D1
:1021BC0000F0EDFA7B681B689A687B681B6842F438
:1021CC0080429A603CE07B6818683B6859683B68C1
:1021DC00DB681A4600F064FA7B681B6850211846CD
:1021EC0000F0BBFA2CE07B6818683B6859683B68C8
:1021FC00DB681A4600F082FA7B681B68602118467F
:10220C0000F0ABFA1CE07B6818683B6859683B68C7
:10221C00DB681A4600F044FA7B681B6840211846BC
:10222C0000F09BFA0CE07B681A683B681B68194647
:10223C00104600F092FA03E00123FB7300E000BFAC
:10224C007B68012283F83D207B68002283F83C20C8
:10225C00FB7B18461037BD4680BD80B483B000AF01
:10226C00786000BF0C37BD4680BC704780B483B02B
:10227C0000AF786000BF0C37BD4680BC704780B49F
:10228C0083B000AF786000BF0C37BD4680BC704790
:10229C0080B483B000AF786000BF0C37BD4680BC03
:1022AC00704780B483B000AF786000BF0C37BD4678
:1022BC0080BC704780B485B000AF786039607B68B3
:1022CC001B68FB607B682F4A93420BD07B68B3F191
:1022DC00804F07D07B682C4A934203D07B682B4AF3
:1022EC00934208D1FB6823F07003FB603B685B688A
:1022FC00FA681343FB607B68224A93420BD07B68DD
:10230C00B3F1804F07D07B681F4A934203D07B68A0
:10231C001E4A934208D1FB6823F44073FB603B6870
:10232C00DB68FA681343FB60FB6823F080023B68B0
:10233C005B691343FB607B68FA681A603B689A68B8
:10234C007B68DA623B681A687B689A627B680D4A24
:10235C00934203D13B681A697B681A637B6801223C
:10236C005A617B681B6903F00103002B05D07B6865
:10237C001B6923F001027B681A6100BF1437BD464C
:10238C0080BC7047002C0140000400400008004055
:10239C0080B487B000AF786039607B681B6A7B6162
:1023AC007B681B6A23F001027B681A627B685B689E
:1023BC003B617B689B69FB60FB6823F07003FB60EF
:1023CC00FB6823F00303FB603B681B68FA6813434C
:1023DC00FB607B6923F002037B613B689B687A6935
:1023EC0013437B617B681C4A93420CD17B6923F0BD
:1023FC0008037B613B68DB687A6913437B617B690B
:10240C0023F004037B617B68134A934211D13B692F
:10241C0023F480733B613B6923F400733B613B689D
:10242C005B693A6913433B613B689B693A691343A7
:10243C003B617B683A695A607B68FA689A613B68D1
:10244C005A687B685A637B687A691A6200BF1C37CA
:10245C00BD4680BC704700BF002C014080B487B0E3
:10246C0000AF786039607B681B6A7B617B681B6A94
:10247C0023F010027B681A627B685B683B617B68A7
:10248C009B69FB60FB6823F4E043FB60FB6823F46F
:10249C004073FB603B681B681B02FA681343FB60CC
:1024AC007B6923F020037B613B689B681B017A6985
:1024BC0013437B617B681D4A93420DD17B6923F0EA
:1024CC0080037B613B68DB681B017A6913437B618A
:1024DC007B6923F040037B617B68144A934213D1E0
:1024EC003B6923F480633B613B6923F400633B61EC
:1024FC003B685B699B003A6913433B613B689B6992
:10250C009B003A6913433B617B683A695A607B686C
:10251C00FA689A613B685A687B689A637B687A6947
:10252C001A6200BF1C37BD4680BC7047002C0140AE
:10253C0080B487B000AF786039607B681B6A7B61C0
:10254C007B681B6A23F480727B681A627B685B6809
:10255C003B617B68DB69FB60FB6823F07003FB600D
:10256C00FB6823F00303FB603B681B68FA681343AA
:10257C00FB607B6923F400737B613B689B681B02E7
:10258C007A6913437B617B681D4A93420DD17B6949
:10259C0023F400637B613B68DB681B027A6913439D
:1025AC007B617B6923F480637B617B68144A934273
:1025BC0013D13B6923F480533B613B6923F40053F3
:1025CC003B613B685B691B013A6913433B613B68A8
:1025DC009B691B013A6913433B617B683A695A60FA
:1025EC007B68FA68DA613B685A687B68DA637B68F7
:1025FC007A691A6200BF1C37BD4680BC704700BFA9
:10260C00002C014080B487B000AF786039607B68E3
:10261C001B6A3B617B681B6A23F480527B681A62DD
:10262C007B685B687B617B68DB69FB60FB6823F420
:10263C00E043FB60FB6823F44073FB603B681B6862
:10264C001B02FA681343FB603B6923F400533B61A4
:10265C003B689B681B033A6913433B617B680F4AD9
:10266C00934209D17B6923F480437B613B685B69AE
:10267C009B017A6913437B617B687A695A607B683A
:10268C00FA68DA613B685A687B681A647B683A6955
:10269C001A6200BF1C37BD4680BC7047002C01403D
:1026AC0080B487B000AFF860B9607A60FB681B6AD1
:1026BC007B61FB681B6A23F00102FB681A62FB68F2
:1026CC009B693B613B6923F0F0033B617B681B0119
:1026DC003A6913433B617B6923F00A037B617A6996
:1026EC00BB6813437B61FB683A699A61FB687A6942
:1026FC001A6200BF1C37BD4680BC704780B487B0DF
:10270C0000AFF860B9607A60FB681B6A7B61FB689C
:10271C001B6A23F01002FB681A62FB689B693B6121
:10272C003B6923F470433B617B681B033A69134399
:10273C003B617B6923F0A0037B61BB681B017A6959
:10274C0013437B61FB683A699A61FB687A691A6288
:10275C0000BF1C37BD4680BC704780B485B000AF4D
:10276C00786039607B689B68FB60FB6823F07003C2
:10277C00FB603A68FB68134343F00703FB607B681C
:10278C00FA689A6000BF1437BD4680BC704780B4AD
:10279C0087B000AFF860B9607A603B60FB689B68FB
:1027AC007B617B6923F47F437B613B681A027B6806
:1027BC001A43BB6813437A6913437B61FB687A69DC
:1027CC009A6000BF1C37BD4680BC704780B485B092
:1027DC0000AF786039607B6893F83C30012B01D1F5
:1027EC00022346E07B68012283F83C207B680222AE
:1027FC0083F83D207B681B685B68FB607B681B680B
:10280C009B68BB60FB6823F07003FB603B681B6834
:10281C00FA681343FB607B681B68FA685A607B6834
:10282C001B68164A93420ED07B681B68B3F1804F2D
:10283C0009D07B681B68124A934204D07B681B68E2
:10284C00104A93420CD1BB6823F08003BB603B68F9
:10285C005B68BA681343BB607B681B68BA689A6094
:10286C007B68012283F83D207B68002283F83C20A2
:10287C00002318461437BD4680BC7047002C01401D
:10288C00000400400008004080B483B000AF7860C2
:10289C0000BF0C37BD4680BC704780B483B000AF1E
:1028AC00786000BF0C37BD4680BC704780B582B0E5
:1028BC0000AF78607B68002B01D1012342E07B687C
:1028CC0093F84130DBB2002B06D17B68002283F8F1
:1028DC004020786801F052F97B68242283F841206B
:1028EC007B681B68DA687B681B6822F40052DA602C
:1028FC00786800F07FFC7B681B681A697B681B6832
:10290C0022F490421A617B681B685A697B681B68C9
:10291C0022F02A025A617B681B68DA687B681B68A4
:10292C0042F40052DA607B6800225A647B682022F1
:10293C0083F841207B68202283F842207B680022A8
:10294C005A63002318460837BD4680BD80B5BAB01F
:10295C0000AF78607B681B681B68C7F8E4307B6845
:10296C001B68DB68C7F8E0307B681B685B69C7F8DD
:10297C00DC300023C7F8D8300023C7F8D430D7F8A0
:10298C00E43003F00F03C7F8D830D7F8D830002B59
:10299C000FD1D7F8E43003F02003002B09D0D7F87F
:1029AC00E03003F02003002B03D0786800F063FBC9
:1029BC005BE2D7F8D830002B00F0DE80D7F8DC30A3
:1029CC0003F00103002B06D1D7F8E03003F4907329
:1029DC00002B00F0D180D7F8E43003F00103002B7A
:1029EC000BD0D7F8E03003F48073002B05D07B6854
:1029FC005B6C43F001027B685A64D7F8E43003F057
:102A0C000403002B0BD0D7F8DC3003F00103002BB0
:102A1C0005D07B685B6C43F002027B685A64D7F884
:102A2C00E43003F00203002B0BD0D7F8DC3003F0BA
:102A3C000103002B05D07B685B6C43F004027B68C0
:102A4C005A64D7F8E43003F00803002B11D0D7F800
:102A5C00E03003F02003002B05D1D7F8DC3003F075
:102A6C000103002B05D07B685B6C43F008027B688C
:102A7C005A647B685B6C002B00F0F281D7F8E43071
:102A8C0003F02003002B08D0D7F8E03003F020032C
:102A9C00002B02D0786800F0EEFA7B681B685B694B
:102AAC0003F04003002B14BF01230023DBB2C7F853
:102ABC00D4307B685B6C03F00803002B03D1D7F890
:102ACC00D430002B4FD0786800F0F8F97B681B6885
:102ADC005B6903F04003002B41D07B681B68143307
:102AEC00C7F89C30D7F89C3053E8003FC7F89830B3
:102AFC00D7F8983023F04003C7F8D0307B681B68B8
:102B0C001433D7F8D020C7F8A820C7F8A430D7F8CA
:102B1C00A410D7F8A82041E80023C7F8A030D7F8B4
:102B2C00A030002BD9D17B68DB6B002B13D07B68DA
:102B3C00DB6B7E4A5A637B68DB6B1846FEF764FEE0
:102B4C000346002B16D07B68DB6B5B6B7A68D26B11
:102B5C00104698470EE0786800F09CF90AE0786817
:102B6C0000F098F906E0786800F094F97B68002290
:102B7C005A6475E100BF73E17B681B6B012B40F05D
:102B8C004F81D7F8E43003F01003002B00F048819C
:102B9C00D7F8E03003F01003002B00F04181002344
:102BAC00BB607B681B681B68BB607B681B685B68D1
:102BBC00BB60BB687B681B685B6903F04003002B40
:102BCC0000F0B6807B68DB6B1B685B68A7F8BE30D7
:102BDC00B7F8BE30002B00F045817B689B8DB7F8B1
:102BEC00BE209A4280F03E817B68B7F8BE20DA8521
:102BFC007B68DB6B9B69202B00F088807B681B68F3
:102C0C000C33C7F88830D7F8883053E8003FC7F842
:102C1C008430D7F8843023F48073C7F8B8307B68DD
:102C2C001B680C33D7F8B820C7F89420C7F890303D
:102C3C00D7F89010D7F8942041E80023C7F88C30CF
:102C4C00D7F88C30002BD9D17B681B6814337B6789
:102C5C007B6F53E8003F3B673B6F23F00103C7F8E2
:102C6C00B4307B681B681433D7F8B420C7F88020C5
:102C7C00FB67F96FD7F8802041E80023BB67BB6F77
:102C8C00002BE1D17B681B6814333B663B6E53E829
:102C9C00003FFB65FB6D23F04003C7F8B0307B6849
:102CAC001B681433D7F8B020FA66BB66B96EFA6E9F
:102CBC0041E800237B667B6E002BE3D17B682022EE
:102CCC0083F842207B6800221A637B681B680C33F4
:102CDC00FB64FB6C53E8003FBB64BB6C23F010033C
:102CEC00C7F8AC307B681B680C33D7F8AC20BA65DE
:102CFC007B65796DBA6D41E800233B653B6D002B1C
:102D0C00E3D17B68DB6B1846FEF742FD7B68022241
:102D1C005A637B689A8D7B68DB8D9BB2D31A9BB20E
:102D2C001946786800F0BFF89CE000BF8D2F0008B2
:102D3C007B689A8D7B68DB8D9BB2D31AA7F8CE305B
:102D4C007B68DB8D9BB2002B00F08E80B7F8CE3009
:102D5C00002B00F089807B681B680C33BB63BB6B5A
:102D6C0053E8003F7B637B6B23F49073C7F8C83048
:102D7C007B681B680C33D7F8C8207A643B64396CC9
:102D8C007A6C41E80023FB63FB6B002BE3D17B687F
:102D9C001B6814337B627B6A53E8003F3B623B6ADF
:102DAC0023F00103C7F8C4307B681B681433D7F8D1
:102DBC00C4203A63FB62F96A3A6B41E80023BB62B8
:102DCC00BB6A002BE3D17B68202283F842207B680E
:102DDC0000221A637B681B680C333B613B6953E828
:102DEC00003FFB60FB6823F01003C7F8C0307B6822
:102DFC001B680C33D7F8C020FA61BB61B969FA695A
:102E0C0041E800237B617B69002BE3D17B680222C4
:102E1C005A63B7F8CE301946786800F044F823E0CE
:102E2C00D7F8E43003F08003002B09D0D7F8E0305A
:102E3C0003F08003002B03D0786800F0B5F814E0A1
:102E4C00D7F8E43003F04003002B0ED0D7F8E03075
:102E5C0003F04003002B08D0786800F0F4F804E08D
:102E6C0000BF02E000BF00E000BFE837BD4680BDF8
:102E7C0080B483B000AF786000BF0C37BD4680BC17
:102E8C00704780B483B000AF786000BF0C37BD468C
:102E9C0080BC704780B483B000AF786000BF0C3743
:102EAC00BD4680BC704780B483B000AF78600B46E1
:102EBC007B8000BF0C37BD4680BC704780B495B09A
:102ECC0000AF78607B681B680C337B637B6B53E8CB
:102EDC00003F3B633B6B23F49073FB647B681B6884
:102EEC000C33FA6C3A64FB63F96B3A6C41E80023DF
:102EFC00BB63BB6B002BE5D17B681B6814333B6257
:102F0C003B6A53E8003FFB61FB6923F00103BB64A0
:102F1C007B681B681433BA6CFA62BB62B96AFA6AD2
:102F2C0041E800237B627B6A002BE5D17B681B6B3D
:102F3C00012B19D17B681B680C33FB60FB6853E8D1
:102F4C00003FBB60BB6823F010037B647B681B688D
:102F5C000C337A6CBA617B617969BA6941E80023F8
:102F6C003B613B69002BE5D17B68202283F8422032
:102F7C007B6800221A6300BF5437BD4680BC704783
:102F8C0080B584B000AF78607B685B6AFB60FB68DF
:102F9C000022DA85FB680022DA84F868FFF77AFFF2
:102FAC0000BF1037BD4680BD80B485B000AF7860DF
:102FBC007B6893F84130DBB2212B3ED17B689B6858
:102FCC00B3F5805F14D17B681B69002B10D17B6833
:102FDC001B6AFB60FB681B881A467B681B68C2F384
:102FEC0008025A607B681B6A9A1C7B681A6208E0AC
:102FFC007B681B6A591C7A6811621A787B681B689B
:10300C005A607B68DB8C9BB2013B9BB27A68194699
:10301C00D184002B0FD17B681B68DA687B681B6836
:10302C0022F08002DA607B681B68DA687B681B68B8
:10303C0042F04002DA60002300E002231846143705
:10304C00BD4680BC704780B582B000AF78607B68AD
:10305C001B68DA687B681B6822F04002DA607B68C8
:10306C00202283F841207868FFF702FF00231846DE
:10307C000837BD4680BD80B58CB000AF78607B68EA
:10308C0093F84230DBB2222B40F0AE807B689B6819
:10309C00B3F5805F17D17B681B69002B13D100231C
:1030AC00FB627B689B6ABB627B681B685B689BB23C
:1030BC00C3F308039AB2BB6A1A807B689B6A9A1C9A
:1030CC007B689A6226E07B689B6AFB620023BB628A
:1030DC007B689B68B3F5805F07D07B689B68002B8F
:1030EC000AD17B681B69002B06D17B681B685B6867
:1030FC00DAB2FB6A1A7008E07B681B685B68DBB2AB
:10310C0003F07F03DAB2FB6A1A707B689B6A5A1C65
:10311C007B689A627B68DB8D9BB2013B9BB27A68C1
:10312C001946D185002B5DD17B681B68DA687B68FA
:10313C001B6822F02002DA607B681B68DA687B6807
:10314C001B6822F48072DA607B681B685A697B68A2
:10315C001B6822F001025A617B68202283F842200E
:10316C007B6800225A637B681B6B012B35D17B6813
:10317C0000221A637B681B680C337B617B6953E804
:10318C00003F3B613B6923F010037B627B681B684B
:10319C000C337A6A3A62FB61F9693A6A41E80023B6
:1031AC00BB61BB69002BE5D17B681B681B6803F016
:1031BC001003102B0AD10023FB607B681B681B6873
:1031CC00FB607B681B685B68FB60FB687B689B8DA6
:1031DC0019467868FFF767FE02E07868FFF751FE42
:1031EC00002302E0002300E0022318463037BD46DE
:1031FC0080BD000080B584B000AF78607B681B6830
:10320C001B6923F440517B68DA687B681B680A43AE
:10321C001A617B689A687B681B691A437B685B69D7
:10322C001343BB607B681B68DB6823F4B05323F04B
:10323C000C037A681268B9680B43D3607B681B680F
:10324C005B6923F440717B689A697B681B680A434D
:10325C005A617B681B682C4A934203D1FEF790F8A5
:10326C00F86002E0FEF778F8F860FA6813469B0005
:10327C0013449A001A447B685B689B00B2FBF3F31F
:10328C00224AA2FB03235B091901FA6813469B002F
:10329C0013449A001A447B685B689B00B2FBF3F200
:1032AC001A4BA3FB02035B09642000FB03F3D31A44
:1032BC001B013233154AA2FB03235B0903F0F00315
:1032CC001944FA6813469B0013449A001A447B680D
:1032DC005B689B00B2FBF3F20C4BA3FB02035B0994
:1032EC00642000FB03F3D31A1B013233074AA2FB01
:1032FC0003235B0903F00F027B681B680A449A6086
:10330C0000BF1037BD4680BD003801401F85EB5112
:10331C0080B500AFFDF7F4FB00F022F800F0BAF92D
:10332C0000F064F800F090F800F014F900F088F95F
:10333C0000F0C0F800F02AFA064800F0F5FC064B45
:10334C001B781A46054B9B5C184600F0F7FE00F004
:10335C0049FAFCE72C000020B0010020D043000803
:10336C0080B590B000AF07F1180328220021184651
:10337C0000F088FF3B1D00221A605A609A60DA60E8
:10338C001A610123BB614FF48033FB6100233B6264
:10339C000123BB6202237B634FF48033BB634FF486
:1033AC00E013FB6307F118031846FDF70BFC03460B
:1033BC00002B01D000F06CFA0F237B600223BB6062
:1033CC000023FB604FF480633B6100237B613B1D5A
:1033DC0002211846FDF778FE0346002B01D000F0C1
:1033EC0057FA00BF4037BD4680BD000080B500AF26
:1033FC00124B134A1A60114B124A5A600F4B00229F
:10340C009A600E4B0022DA600C4B4FF480421A612A
:10341C000A4B00225A61094B00229A61074B002289
:10342C00DA61064B00221A620448FCF7BDFE034623
:10343C00002B01D000F02CFA00BF80BD2C00002026
:10344C0000540040801A060080B500AF174B184A94
:10345C001A60164B4FF482725A60144B00229A6019
:10346C00124B0022DA60114B00221A610F4B002222
:10347C005A610E4B4FF400729A610C4B1022DA61B8
:10348C000A4B00221A62094B00225A62074B002297
:10349C009A62064B0A22DA620448FEF73AFB0346AC
:1034AC00002B01D000F0F4F900BF80BD800000209B
:1034BC000030014080B586B000AF07F10803002250
:1034CC001A605A609A60DA603B4600221A605A60B1
:1034DC001E4B1F4A1A601D4B00225A601B4B0022C8
:1034EC009A601A4B4FF6FF72DA60184B00221A6181
:1034FC00164B00225A61154B00229A611348FEF7B5
:10350C008CFB0346002B01D000F0C2F94FF4805322
:10351C00BB6007F1080319460C48FEF7D7FD0346BC
:10352C00002B01D000F0B4F900233B6000237B603A
:10353C003B4619460548FFF749F90346002B01D0D5
:10354C0000F0A6F900BF1837BD4680BDD80000209A
:10355C00002C014080B58EB000AF07F1280300228B
:10356C001A605A609A60DA6007F1200300221A6030
:10357C005A603B1D00221A605A609A60DA601A6128
:10358C005A619A612D4B4FF080421A602B4B0022EE
:10359C005A602A4B00229A60284B4FF6FF72DA6071
:1035AC00264B00221A61254B00229A612348FEF714
:1035BC0034FB0346002B01D000F06AF94FF4805322
:1035CC00BB6207F1280319461C48FEF77FFD034632
:1035DC00002B01D000F05CF91848FEF76DFB034698
:1035EC00002B01D000F054F900233B6200237B62D6
:1035FC0007F1200319461148FFF7E8F80346002BA2
:10360C0001D000F045F960237B600023BB600023F0
:10361C00FB6000237B613B1D002219460748FEF727
:10362C0093FC0346002B01D000F032F9034800F064
:10363C0075FA00BF3837BD4680BD00BF20010020A1
:10364C0080B500AF114B124A1A60104B4FF4E132A7
:10365C005A600E4B00229A600C4B0022DA600B4B26
:10366C0000221A61094B0C225A61084B00229A6104
:10367C00064B0022DA610548FFF718F90346002BC8
:10368C0001D000F005F900BF80BD00BF680100202B
:10369C000038014080B588B000AF07F1100300225C
:1036AC001A605A609A60DA60344B9B69334A43F073
:1036BC0020039361314B9B6903F02003FB60FB6893
:1036CC002E4B9B692D4A43F0040393612B4B9B6952
:1036DC0003F00403BB60BB68284B9B69274A43F08B
:1036EC0008039361254B9B6903F008037B607B689F
:1036FC00002208212248FEF710F80022012121485F
:10370C00FEF70BF806233B611F4B7B610023BB616B
:10371C0007F1100319461A48FDF764FE08233B61B4
:10372C0001237B610023BB610223FB6107F11003C2
:10373C0019461348FDF756FE01233B6101237B61BB
:10374C000023BB610223FB6107F1100319460D48EE
:10375C00FDF748FE002201210720FEF7A4F90720FF
:10376C00FEF7BDF9002201210820FEF79CF9082084
:10377C00FEF7B5F900BF2037BD4680BD00100240F2
:10378C0000080140000C01400000111080B586B00B
:10379C0000AF124B9B69114A43F0100393610F4B1E
:1037AC009B6903F010037B607B6807F10803002220
:1037BC001A605A609A60DA604FF40043BB600023D1
:1037CC00FB6001233B6107F1080319460448FDF730
:1037DC0009FE00BF1837BD4680BD00BF0010024077
:1037EC000010014080B582B000AF4FF40041214879
:1037FC00FDF77CFF0346FB711F4B1B78FA799A424D
:10380C0004D0FDF7D5F903461C4A1360FDF7D0F937
:10381C0002461A4B1B68D31A322B24D9184B1B782F
:10382C00FA799A421FD0164AFB791370144B1B7805
:10383C00002B18D1134B1B785A1C134B83FB021310
:10384C005910D317C91A0B465B000B449B00D11AB5
:10385C00CAB20C4B1A700B4B1B781A460B4B9B5C69
:10386C00184600F06BFC044AFB79137000BF083754
:10387C00BD4680BD0010014009000020B4010020AD
:10388C000A000020B0010020ABAAAA2AD0430008ED
:10389C0080B400AF72B600BF00BFFDE780B400AFCC
:1038AC0000BFFDE780B400AF00BFFDE780B400AF00
:1038BC0000BFFDE780B400AF00BFFDE780B400AFF0
:1038CC0000BFFDE780B400AF00BFBD4680BC7047B1
:1038DC0080B400AF00BFBD4680BC704780B400AF61
:1038EC0000BFBD4680BC704780B500AFFDF74EF9F8
:1038FC0000BF80BD80B500AF0220FDF727FF00BFE1
:10390C0080BD80B500AF0420FDF720FF00BF80BD57
:10391C0080B500AF0248FEF727FA00BF80BD00BF9C
:10392C002001002080B500AF0248FFF70FF800BF60
:10393C0080BD00BF6801002080B485B000AF154B7E
:10394C009B69144A43F001039361124B9B6903F08A
:10395C000103BB60BB680F4BDB690E4A43F080531D
:10396C00D3610C4BDB6903F080537B607B680A4BA3
:10397C005B68FB60FB6823F0E063FB60FB6843F073
:10398C000073FB60044AFB68536000BF1437BD46EC
:10399C0080BC7047001002400000014080B588B028
:1039AC0000AF786007F1100300221A605A609A6029
:1039BC00DA607B681B68154A934223D1144B9B69D0
:1039CC00134A43F008039361114B9B6903F00803FE
:1039DC00FB60FB68C0233B6112237B610323FB610B
:1039EC0007F1100319460B48FDF7FCFC084BDB698B
:1039FC00074A43F40013D361054BDB6903F400134E
:103A0C00BB60BB6800BF2037BD4680BD0054004082
:103A1C0000100240000C014080B588B000AF786007
:103A2C0007F1100300221A605A609A60DA607B6812
:103A3C001B681B4A93422FD11A4B9B69194A43F4BA
:103A4C0080539361174B9B6903F48053FB60FB68B5
:103A5C00144B9B69134A43F004039361114B9B690C
:103A6C0003F00403BB60BB68A0233B6102237B61B2
:103A7C000323FB6107F1100319460B48FDF7B2FC59
:103A8C0040233B6100237B610023BB6107F11003E2
:103A9C0019460548FDF7A6FC00BF2037BD4680BD82
:103AAC0000300140001002400008014080B584B095
:103ABC0000AF78607B681B68164A93420CD1164B9A
:103ACC009B69154A43F400639361134B9B6903F4A0
:103ADC000063FB60FB6818E07B681B68B3F1804FE8
:103AEC0013D10D4BDB690C4A43F00103D3610A4B34
:103AFC00DB6903F00103BB60BB68002202211C20C0
:103B0C00FDF7D1FF1C20FDF7EAFF00BF1037BD46C3
:103B1C0080BD00BF002C01400010024080B588B071
:103B2C0000AF786007F1100300221A605A609A60A7
:103B3C00DA607B681B68B3F1804F17D10D4B9B6922
:103B4C000C4A43F0040393610A4B9B6903F0040392
:103B5C00FB60FB6801233B6102237B610223FB6159
:103B6C0007F1100319460448FDF73CFC00BF203751
:103B7C00BD4680BD001002400008014080B588B0F1
:103B8C0000AF786007F1100300221A605A609A6047
:103B9C00DA607B681B68204A934239D11F4B9B69C2
:103BAC001E4A43F4804393611C4B9B6903F480438E
:103BBC00FB60FB68194B9B69184A43F00403936143
:103BCC00164B9B6903F00403BB60BB684FF4007396
:103BDC003B6102237B610323FB6107F11003194650
:103BEC000F48FDF7FFFB4FF480633B6100237B61C3
:103BFC000023BB6107F1100319460948FDF7F2FBDE
:103C0C00002203212520FDF74EFF2520FDF767FF3D
:103C1C0000BF2037BD4680BD003801400010024077
:103C2C0000080140FCF7BAFA0B480C490C4A002377
:103C3C0002E0D458C4500433C4188C42F9D3094A56
:103C4C00094C002301E013600432A242FBD300F0C4
:103C5C0021FBFFF75DFB7047000000200C000020EB
:103C6C00B84400080C000020BC050020FEE7000052
:103C7C0080B586B004AF0346FB71094B18684FF052
:103C8C00FF33029301230193FB1D009301230022B8
:103C9C007821FCF7CDFB00BF0837BD4680BD00BFC7
:103CAC00B801002080B586B004AF78600B467B80ED
:103CBC00084B18684FF0FF3302937B8801937B68A5
:103CCC000093012340227821FCF7B2FB00BF083798
:103CDC00BD4680BDB801002080B582B000AF002386
:103CEC00FB7116E0FB79503BDBB21846FFF7C0FFC7
:103CFC000220FFF7BDFF1020FFF7BAFFFB79DB01B5
:103D0C00084A134480211846FFF7CCFFFB79013396
:103D1C00FB71FB79072BE5D900BF00BF0837BD4607
:103D2C0080BD00BFBC01002080B582B000AF7860C0
:103D3C002B4A7B681360AE20FFF79AFF4020FFF7F9
:103D4C0097FFB020FFF794FFC820FFF791FF0220E8
:103D5C00FFF78EFF1020FFF78BFF8120FFF788FF06
:103D6C008020FFF785FFA120FFF782FFA620FFF739
:103D7C007FFFA820FFF77CFF3F20FFF779FFA420EF
:103D8C00FFF776FFD320FFF773FF0020FFF770FFDC
:103D9C00D520FFF76DFF8020FFF76AFFD920FFF7D2
:103DAC0067FF2220FFF764FFDA20FFF761FF122084
:103DBC00FFF75EFFDB20FFF75BFF4020FFF758FFAC
:103DCC00AD20FFF755FF8B20FFF752FFAF20FFF719
:103DDC004FFF00F007F800BF0837BD4680BD00BF9D
:103DEC00B801002080B500AF4FF480620021034879
:103DFC0000F048FAFFF770FF00BF80BDBC01002047
:103E0C0080B485B000AF0346FB710023FB6015E066
:103E1C000F49FA6813465B0013445B000B441B7894
:103E2C00FA799A4207D1FA6813465B0013445B0097
:103E3C00074A134406E0FB680133FB60FB68212B47
:103E4C00E6D9034B18461437BD4680BC704700BFFB
:103E5C00DC43000880B483B000AF03460A46FB8005
:103E6C001346BB80B7F90630002B33DBB7F90630AD
:103E7C007F2B2FDCB7F90430002B2BDBB7F9043088
:103E8C003F2B27DCB7F90620B7F90430002B00DAFA
:103E9C000733DB1018B20346DB011344104AD35C22
:103EAC005AB2B7F90430594203F0070301F0070185
:103EBC0058BF4B421BB2194601238B405BB21343D4
:103ECC0059B2B7F906200346DB011344C9B2044AC0
:103EDC00D15400E000BF0C37BD4680BC704700BF1A
:103EEC00BC01002090B587B000AF044608461146CF
:103EFC001A462346FB800346BB800B46FB701346D9
:103F0C00BB70FB781846FFF77BFF38610023FB750D
:103F1C004DE0FB7D3A6913445B78FB730023BB7562
:103F2C003FE0FA7BBB7D42FA03F303F00103002B65
:103F3C0034D000237B752DE000233B7523E0FB7D03
:103F4C009BB2BA7892B202FB03F39AB2FB88134489
:103F5C009AB23B7D9BB213449BB218B2BB7D9BB211
:103F6C00BA7892B202FB03F39AB2BB8813449AB2AA
:103F7C007B7D9BB213449BB21BB21946FFF76AFFC1
:103F8C003B7D01333B753A7DBB789A42D7D37B7D21
:103F9C0001337B757A7DBB789A42CDD3BB7D0133DF
:103FAC00BB75BB7D062BBCD9FB7D0133FB75FB7D43
:103FBC00042BAED900BF00BF1C37BD4690BD80B5E9
:103FCC0084B000AF78600B46FB707868FCF798F80B
:103FDC000346FB81FB89002B01D100230EE0FB780B
:103FEC009BB2FA8902FB03F39BB21A4652001344AC
:103FFC005B009AB2FB789BB2D31A9BB2184610376F
:10400C00BD4680BD80B586B000AF78600B467B8026
:10401C0013467B707B7819467868FFF7D0FF034610
:10402C00FB81B7F90E30C3F18003DA0F13445B1038
:10403C00FB82B7F91630002B01DA0023FB827B6878
:10404C003B6116E03B691A787B78B7F90210B7F937
:10405C001600FFF747FF7B789BB21A4652001344B9
:10406C005B009AB2FB8A13449BB2FB823B6901331F
:10407C003B613B691B78002BE4D100BF00BF1837B4
:10408C00BD4680BD80B586B000AFF8607A601A4638
:10409C000B46FB721346BB724FF48062002126481C
:1040AC0000F0F0F8FB7A1A46D200D31AFB757B6845
:1040BC00002B05D0BB7A1A46D200D31ADBB200E033
:1040CC000023BB757B68002B01D0042300E0002388
:1040DC007B75FB7D9AB27B7D9BB213449AB2BB7D00
:1040EC009BB213449BB27B82B7F91230C3F14003ED
:1040FC00DA0F13445B103B82FA7AB7F91030194689
:10410C00F868FFF77FFF7B68002B0ED0FB7D9AB21F
:10411C003B8A13449AB27B7D9BB213449BB21BB275
:10412C00BA7A19467868FFF76DFFFFF7D5FD00BF27
:10413C001837BD4680BD00BFBC01002080B582B0E1
:10414C0000AF0346FB71FB790B2B6FD801A252F821
:10415C0023F000BF914100089F410008AD410008C9
:10416C00BB410008F3410008014200080F4200085F
:10417C001D4200082B420008C9410008E541000817
:10418C00D74100080023002202212E48FFF77AFFB6
:10419C0053E00023002202212B48FFF773FF4CE071
:1041AC000023002202212948FFF76CFF45E0012380
:1041BC00274A02212748FFF765FF3EE00223264AE3
:1041CC0002212648FFF75EFF37E000230022022180
:1041DC002348FFF757FF30E00223224A02211F48F1
:1041EC00FFF750FF29E002231F4A02211F48FFF767
:1041FC0049FF22E002231E4A02211C48FFF742FF1E
:10420C001BE002231B4A02211848FFF73BFF14E076
:10421C000023002202211848FFF734FF0DE002238F
:10422C00164A02211648FFF72DFF06E00023002254
:10423C0002210448FFF726FF00BF00BF0837BD4628
:10424C0080BD00BF004300080C4300081843000861
:10425C0020430008304300083C4300084443000856
:10426C004C430008544300086043000868430008AE
:10427C00704300087843000884430008904300080A
:10428C009843000803460244934200D1704703F858
:10429C00011BF9E770B500260C4D0D4C641BA410E6
:1042AC00A64209D100F01AF800260A4D0A4C641BEC
:1042BC00A410A64205D170BD55F8043B98470136B1
:1042CC00EEE755F8043B98470136F2E7B044000896
:1042DC00B0440008B0440008B4440008F8B500BF6E
:1042EC00F8BC08BC9E467047F8B500BFF8BC08BCCB
:0442FC009E46704723
:104300005363616E6E696E672100000057656C63D0
:104310006F6D65210000000044656E6965642100D1
:10432000313A41444420323A44454C45544500001A
:10433000486920426F73732100000000746F206190
:10434000646421005363616E000000004572726F67
:1043500072210000746F2064656C65746521000033
:104360004578697374732100436172640000000032
:10437000416464656421000044656C657465642172
:10438000000000004E6F7420466F756E64210000BF
:1043900041646D696E2100004E6F2044656C657448
:1043A000650000000000000000000000010203049E
:1043B00006070809000000000102030402030405C7
:1043C000060708090A0B0C0D0E0F10100102000061
:1043D000000102030904050A0607080B200000007B
:1043E00000002100005F00002F403008060131006E
:1043F000427F40003242615149463A0000140000B9
:10440000417C1211127C427F49494936433E414169
:104410004141447F4141413E457F49494941467FB1
:1044200009090901487F0808087F4E7F0204087FB8
:104430004C7F404040005346494949315401017F77
:104440000101577F2018207F61304A4A2A7C633C53
:104450004242420064384444447F653C4A4A4A0C24
:1044600066047E050500670C5252523E6900447D89
:1044700040006C00417F40006D7C043804786E7C05
:10448000080404786F3844444438727C08040408F3
:1044900073444A4A4A307400023F4240753C4040EF
:0844A000207C78442810284418
:0844A80064BCFF7F010000006D
:0444B000850100087A
:0444B4005D0100089E
:0C44B80000127A00100000000101010059
:0400000508003C3182
:00000001FF
